{
  "_format": "hh-sol-artifact-1",
  "contractName": "Wallet",
  "sourceName": "contracts/ERC4337/Wallet.sol",
  "abi": [
    {
      "inputs": [
        {
          "internalType": "address",
          "name": "_entryPoint",
          "type": "address"
        },
        {
          "internalType": "address",
          "name": "_owner",
          "type": "address"
        }
      ],
      "stateMutability": "nonpayable",
      "type": "constructor"
    },
    {
      "inputs": [],
      "name": "entryPoint",
      "outputs": [
        {
          "internalType": "address",
          "name": "",
          "type": "address"
        }
      ],
      "stateMutability": "view",
      "type": "function"
    },
    {
      "inputs": [
        {
          "internalType": "address",
          "name": "to",
          "type": "address"
        },
        {
          "internalType": "uint256",
          "name": "value",
          "type": "uint256"
        },
        {
          "internalType": "bytes",
          "name": "data",
          "type": "bytes"
        }
      ],
      "name": "executeUserOp",
      "outputs": [],
      "stateMutability": "nonpayable",
      "type": "function"
    },
    {
      "inputs": [],
      "name": "nonce",
      "outputs": [
        {
          "internalType": "uint256",
          "name": "",
          "type": "uint256"
        }
      ],
      "stateMutability": "view",
      "type": "function"
    },
    {
      "inputs": [],
      "name": "owner",
      "outputs": [
        {
          "internalType": "address",
          "name": "",
          "type": "address"
        }
      ],
      "stateMutability": "view",
      "type": "function"
    },
    {
      "inputs": [
        {
          "internalType": "enum PostOpMode",
          "name": "mode",
          "type": "uint8"
        },
        {
          "internalType": "bytes",
          "name": "context",
          "type": "bytes"
        },
        {
          "internalType": "uint256",
          "name": "actualGasCost",
          "type": "uint256"
        }
      ],
      "name": "postOp",
      "outputs": [],
      "stateMutability": "nonpayable",
      "type": "function"
    },
    {
      "inputs": [
        {
          "components": [
            {
              "internalType": "address",
              "name": "sender",
              "type": "address"
            },
            {
              "internalType": "uint256",
              "name": "nonce",
              "type": "uint256"
            },
            {
              "internalType": "bytes",
              "name": "initCode",
              "type": "bytes"
            },
            {
              "internalType": "bytes",
              "name": "callData",
              "type": "bytes"
            },
            {
              "internalType": "uint256",
              "name": "callGas",
              "type": "uint256"
            },
            {
              "internalType": "uint256",
              "name": "verificationGas",
              "type": "uint256"
            },
            {
              "internalType": "uint256",
              "name": "preVerificationGas",
              "type": "uint256"
            },
            {
              "internalType": "uint256",
              "name": "maxFeePerGas",
              "type": "uint256"
            },
            {
              "internalType": "uint256",
              "name": "maxPriorityFeePerGas",
              "type": "uint256"
            },
            {
              "internalType": "address",
              "name": "paymaster",
              "type": "address"
            },
            {
              "internalType": "bytes",
              "name": "paymasterData",
              "type": "bytes"
            },
            {
              "internalType": "bytes",
              "name": "signature",
              "type": "bytes"
            }
          ],
          "internalType": "struct UserOperation",
          "name": "userOp",
          "type": "tuple"
        },
        {
          "internalType": "uint256",
          "name": "maxcost",
          "type": "uint256"
        }
      ],
      "name": "validatePaymasterUserOp",
      "outputs": [
        {
          "internalType": "bytes",
          "name": "context",
          "type": "bytes"
        }
      ],
      "stateMutability": "view",
      "type": "function"
    },
    {
      "inputs": [
        {
          "components": [
            {
              "internalType": "address",
              "name": "sender",
              "type": "address"
            },
            {
              "internalType": "uint256",
              "name": "nonce",
              "type": "uint256"
            },
            {
              "internalType": "bytes",
              "name": "initCode",
              "type": "bytes"
            },
            {
              "internalType": "bytes",
              "name": "callData",
              "type": "bytes"
            },
            {
              "internalType": "uint256",
              "name": "callGas",
              "type": "uint256"
            },
            {
              "internalType": "uint256",
              "name": "verificationGas",
              "type": "uint256"
            },
            {
              "internalType": "uint256",
              "name": "preVerificationGas",
              "type": "uint256"
            },
            {
              "internalType": "uint256",
              "name": "maxFeePerGas",
              "type": "uint256"
            },
            {
              "internalType": "uint256",
              "name": "maxPriorityFeePerGas",
              "type": "uint256"
            },
            {
              "internalType": "address",
              "name": "paymaster",
              "type": "address"
            },
            {
              "internalType": "bytes",
              "name": "paymasterData",
              "type": "bytes"
            },
            {
              "internalType": "bytes",
              "name": "signature",
              "type": "bytes"
            }
          ],
          "internalType": "struct UserOperation",
          "name": "userOp",
          "type": "tuple"
        },
        {
          "internalType": "uint256",
          "name": "requiredPrefund",
          "type": "uint256"
        }
      ],
      "name": "validateUserOp",
      "outputs": [],
      "stateMutability": "nonpayable",
      "type": "function"
    },
    {
      "stateMutability": "payable",
      "type": "receive"
    }
  ],
  "bytecode": "0x60806040523480156200001157600080fd5b50604051620032623803806200326283398181016040528101906200003791906200012a565b816000806101000a81548173ffffffffffffffffffffffffffffffffffffffff021916908373ffffffffffffffffffffffffffffffffffffffff16021790555080600160006101000a81548173ffffffffffffffffffffffffffffffffffffffff021916908373ffffffffffffffffffffffffffffffffffffffff160217905550505062000171565b600080fd5b600073ffffffffffffffffffffffffffffffffffffffff82169050919050565b6000620000f282620000c5565b9050919050565b6200010481620000e5565b81146200011057600080fd5b50565b6000815190506200012481620000f9565b92915050565b60008060408385031215620001445762000143620000c0565b5b6000620001548582860162000113565b9250506020620001678582860162000113565b9150509250929050565b6130e180620001816000396000f3fe6080604052600436106100745760003560e01c80638da5cb5b1161004e5780638da5cb5b1461010f578063a9a234091461013a578063affed0e014610163578063b0d691fe1461018e5761007b565b80631058ea3c146100805780635765f462146100a957806367674a6f146100e65761007b565b3661007b57005b600080fd5b34801561008c57600080fd5b506100a760048036038101906100a2919061191e565b6101b9565b005b3480156100b557600080fd5b506100d060048036038101906100cb919061191e565b6103f5565b6040516100dd9190611a13565b60405180910390f35b3480156100f257600080fd5b5061010d60048036038101906101089190611af8565b610537565b005b34801561011b57600080fd5b506101246106a9565b6040516101319190611b7b565b60405180910390f35b34801561014657600080fd5b50610161600480360381019061015c9190611bbb565b6106cf565b005b34801561016f57600080fd5b506101786108e2565b6040516101859190611c3e565b60405180910390f35b34801561019a57600080fd5b506101a36108e8565b6040516101b09190611b7b565b60405180910390f35b60008054906101000a900473ffffffffffffffffffffffffffffffffffffffff1673ffffffffffffffffffffffffffffffffffffffff163373ffffffffffffffffffffffffffffffffffffffff1614610247576040517f08c379a000000000000000000000000000000000000000000000000000000000815260040161023e90611cb6565b60405180910390fd5b600160009054906101000a900473ffffffffffffffffffffffffffffffffffffffff1673ffffffffffffffffffffffffffffffffffffffff166102898361090c565b73ffffffffffffffffffffffffffffffffffffffff16146102df576040517f08c379a00000000000000000000000000000000000000000000000000000000081526004016102d690611d22565b60405180910390fd5b60008280604001906102f19190611d51565b9050141561035a57816020013560025414610341576040517f08c379a000000000000000000000000000000000000000000000000000000000815260040161033890611e00565b60405180910390fd5b6002600081548092919061035490611e4f565b91905055505b600081146103f15760008060009054906101000a900473ffffffffffffffffffffffffffffffffffffffff1673ffffffffffffffffffffffffffffffffffffffff16826040516103a990611ec9565b60006040518083038185875af1925050503d80600081146103e6576040519150601f19603f3d011682016040523d82523d6000602084013e6103eb565b606091505b50509050505b5050565b6060600160009054906101000a900473ffffffffffffffffffffffffffffffffffffffff1673ffffffffffffffffffffffffffffffffffffffff1661043984610a6b565b73ffffffffffffffffffffffffffffffffffffffff161461048f576040517f08c379a000000000000000000000000000000000000000000000000000000000815260040161048690611f2a565b60405180910390fd5b6104a28284610b9890919063ffffffff16565b80156104bd57506104bc8284610c6590919063ffffffff16565b5b806104d757506104d68284610c9390919063ffffffff16565b5b806104e757506104e683610cc1565b5b610526576040517f08c379a000000000000000000000000000000000000000000000000000000000815260040161051d90611f96565b60405180910390fd5b61052f83610cdf565b905092915050565b60008054906101000a900473ffffffffffffffffffffffffffffffffffffffff1673ffffffffffffffffffffffffffffffffffffffff163373ffffffffffffffffffffffffffffffffffffffff16146105c5576040517f08c379a00000000000000000000000000000000000000000000000000000000081526004016105bc90611cb6565b60405180910390fd5b6000808573ffffffffffffffffffffffffffffffffffffffff168585856040516105f0929190611fea565b60006040518083038185875af1925050503d806000811461062d576040519150601f19603f3d011682016040523d82523d6000602084013e610632565b606091505b5091509150816106a15760448151101561064b57600080fd5b600481019050808060200190518101906106659190612124565b6040517f08c379a000000000000000000000000000000000000000000000000000000000815260040161069891906121b1565b60405180910390fd5b505050505050565b600160009054906101000a900473ffffffffffffffffffffffffffffffffffffffff1681565b60008054906101000a900473ffffffffffffffffffffffffffffffffffffffff1673ffffffffffffffffffffffffffffffffffffffff163373ffffffffffffffffffffffffffffffffffffffff161461075d576040517f08c379a000000000000000000000000000000000000000000000000000000000815260040161075490611cb6565b60405180910390fd5b60008060008086868101906107729190612211565b935093509350935060008373ffffffffffffffffffffffffffffffffffffffff1663313ce5676040518163ffffffff1660e01b815260040160206040518083038186803b1580156107c257600080fd5b505afa1580156107d6573d6000803e3d6000fd5b505050506040513d601f19601f820116820180604052508101906107fa91906122b1565b600a6108069190612411565b90508373ffffffffffffffffffffffffffffffffffffffff166323b872dd86308585670de0b6b3a764000061083b919061245c565b86898d610848919061245c565b610852919061245c565b61085c91906124e5565b6108669190612516565b6040518463ffffffff1660e01b81526004016108849392919061256c565b602060405180830381600087803b15801561089e57600080fd5b505af11580156108b2573d6000803e3d6000fd5b505050506040513d601f19601f820116820180604052508101906108d691906125db565b50505050505050505050565b60025481565b60008054906101000a900473ffffffffffffffffffffffffffffffffffffffff1681565b6000610a64828061016001906109229190611d51565b8080601f016020809104026020016040519081016040528093929190818152602001838380828437600081840152601f19601f82011690508083019250505050505050610a5684600001602081019061097b9190612608565b85602001358680604001906109909190611d51565b60405161099e929190611fea565b60405180910390208780606001906109b69190611d51565b6040516109c4929190611fea565b604051809103902088608001358960a001358a60c001358b60e001358c61010001358d6101200160208101906109fa9190612608565b8e806101400190610a0b9190611d51565b604051610a19929190611fea565b6040518091039020604051602001610a3b9b9a999897969594939291906126c9565b60405160208183030381529060405280519060200120610d3e565b610d6e90919063ffffffff16565b9050919050565b600080610a7783610d95565b9050610b908160600151610b82856000016020810190610a979190612608565b8660200135878060400190610aac9190611d51565b604051610aba929190611fea565b6040518091039020888060600190610ad29190611d51565b604051610ae0929190611fea565b604051809103902089608001358a60a001358b60c001358c60e001358d61010001358e610120016020810190610b169190612608565b8d600001518e602001518f60400151604051602001610b379392919061278e565b60405160208183030381529060405280519060200120604051602001610b679b9a999897969594939291906126c9565b60405160208183030381529060405280519060200120610d3e565b610d6e90919063ffffffff16565b915050919050565b600080610ba484610d95565b9050610bb98385610e6190919063ffffffff16565b816020015173ffffffffffffffffffffffffffffffffffffffff1663dd62ed3e866000016020810190610bec9190612608565b306040518363ffffffff1660e01b8152600401610c0a9291906127cb565b60206040518083038186803b158015610c2257600080fd5b505afa158015610c36573d6000803e3d6000fd5b505050506040513d601f19601f82011682018060405250810190610c5a9190612809565b101591505092915050565b6000610c7083610f5d565b1580610c8b5750610c8a828461105690919063ffffffff16565b5b905092915050565b6000610c9e83610f5d565b8015610cb95750610cb8828461105690919063ffffffff16565b5b905092915050565b600080610ccd83610d95565b90506000816000015114915050919050565b60606000610cec83610d95565b9050826000016020810190610d019190612608565b8160200151610d0f856110ed565b8360000151604051602001610d279493929190612836565b604051602081830303815290604052915050919050565b600081604051602001610d5191906128d2565b604051602081830303815290604052805190602001209050919050565b6000806000610d7d85856112b3565b91509150610d8a81611336565b819250505092915050565b610d9d611824565b60008060008085806101400190610db49190611d51565b810190610dc19190612999565b9350935093509350610dd1611824565b8481600001818152505083816020019073ffffffffffffffffffffffffffffffffffffffff16908173ffffffffffffffffffffffffffffffffffffffff168152505082816040019073ffffffffffffffffffffffffffffffffffffffff16908173ffffffffffffffffffffffffffffffffffffffff16815250508181606001819052508095505050505050919050565b600080610e6d84610d95565b90506000816020015173ffffffffffffffffffffffffffffffffffffffff1663313ce5676040518163ffffffff1660e01b815260040160206040518083038186803b158015610ebb57600080fd5b505afa158015610ecf573d6000803e3d6000fd5b505050506040513d601f19601f82011682018060405250810190610ef391906122b1565b600a610eff9190612411565b9050600081670de0b6b3a7640000610f17919061245c565b82610f21886110ed565b87610f2c919061245c565b610f36919061245c565b610f4091906124e5565b9050826000015181610f529190612516565b935050505092915050565b600080610f698361150b565b90506000610f7684610d95565b9050806020015173ffffffffffffffffffffffffffffffffffffffff16826000015173ffffffffffffffffffffffffffffffffffffffff1614801561104d57506040518060400160405280601881526020017f617070726f766528616464726573732c75696e74323536290000000000000000815250805190602001207bffffffffffffffffffffffffffffffffffffffffffffffffffffffff19166110238360400151600060046115ab565b61102c90612a7a565b7bffffffffffffffffffffffffffffffffffffffffffffffffffffffff1916145b92505050919050565b6000806110628461150b565b905060008061108783604001516004808660400151516110829190612ae1565b6115ab565b80602001905181019061109a9190612b2a565b915091503073ffffffffffffffffffffffffffffffffffffffff168273ffffffffffffffffffffffffffffffffffffffff161480156110e257506110de8686610e61565b8110155b935050505092915050565b6000806110f983610d95565b90506000816040015173ffffffffffffffffffffffffffffffffffffffff1663feaf968c6040518163ffffffff1660e01b815260040160a06040518083038186803b15801561114757600080fd5b505afa15801561115b573d6000803e3d6000fd5b505050506040513d601f19601f8201168201806040525081019061117f9190612be2565b505050915050816020015173ffffffffffffffffffffffffffffffffffffffff1663313ce5676040518163ffffffff1660e01b815260040160206040518083038186803b1580156111cf57600080fd5b505afa1580156111e3573d6000803e3d6000fd5b505050506040513d601f19601f8201168201806040525081019061120791906122b1565b826040015173ffffffffffffffffffffffffffffffffffffffff1663313ce5676040518163ffffffff1660e01b815260040160206040518083038186803b15801561125157600080fd5b505afa158015611265573d6000803e3d6000fd5b505050506040513d601f19601f8201168201806040525081019061128991906122b1565b6112939190612c5d565b600a61129f9190612411565b816112aa91906124e5565b92505050919050565b6000806041835114156112f55760008060006020860151925060408601519150606086015160001a90506112e9878285856116c9565b9450945050505061132f565b60408351141561132657600080602085015191506040850151905061131b8683836117d6565b93509350505061132f565b60006002915091505b9250929050565b6000600481111561134a57611349612c91565b5b81600481111561135d5761135c612c91565b5b141561136857611508565b6001600481111561137c5761137b612c91565b5b81600481111561138f5761138e612c91565b5b14156113d0576040517f08c379a00000000000000000000000000000000000000000000000000000000081526004016113c790612d0c565b60405180910390fd5b600260048111156113e4576113e3612c91565b5b8160048111156113f7576113f6612c91565b5b1415611438576040517f08c379a000000000000000000000000000000000000000000000000000000000815260040161142f90612d78565b60405180910390fd5b6003600481111561144c5761144b612c91565b5b81600481111561145f5761145e612c91565b5b14156114a0576040517f08c379a000000000000000000000000000000000000000000000000000000000815260040161149790612e0a565b60405180910390fd5b6004808111156114b3576114b2612c91565b5b8160048111156114c6576114c5612c91565b5b1415611507576040517f08c379a00000000000000000000000000000000000000000000000000000000081526004016114fe90612e9c565b60405180910390fd5b5b50565b611513611878565b60008060008480606001906115289190611d51565b600490809261153993929190612ec6565b8101906115469190612f01565b925092509250611554611878565b83816000019073ffffffffffffffffffffffffffffffffffffffff16908173ffffffffffffffffffffffffffffffffffffffff16815250508281602001818152505081816040018190525080945050505050919050565b606081601f836115bb9190612516565b10156115fc576040517f08c379a00000000000000000000000000000000000000000000000000000000081526004016115f390612fbc565b60405180910390fd5b81836116089190612516565b8451101561164b576040517f08c379a000000000000000000000000000000000000000000000000000000000815260040161164290613028565b60405180910390fd5b606082156000811461166c57604051915060008252602082016040526116bd565b6040519150601f8416801560200281840101858101878315602002848b0101015b818310156116aa578051835260208301925060208101905061168d565b50868552601f19601f8301166040525050505b50809150509392505050565b6000807f7fffffffffffffffffffffffffffffff5d576e7357a4501ddfe92f46681b20a08360001c11156117045760006003915091506117cd565b601b8560ff161415801561171c5750601c8560ff1614155b1561172e5760006004915091506117cd565b6000600187878787604051600081526020016040526040516117539493929190613066565b6020604051602081039080840390855afa158015611775573d6000803e3d6000fd5b505050602060405103519050600073ffffffffffffffffffffffffffffffffffffffff168173ffffffffffffffffffffffffffffffffffffffff1614156117c4576000600192509250506117cd565b80600092509250505b94509492505050565b6000806000807f7fffffffffffffffffffffffffffffffffffffffffffffffffffffffffffffff85169150601b8560ff1c019050611816878288856116c9565b935093505050935093915050565b604051806080016040528060008152602001600073ffffffffffffffffffffffffffffffffffffffff168152602001600073ffffffffffffffffffffffffffffffffffffffff168152602001606081525090565b6040518060600160405280600073ffffffffffffffffffffffffffffffffffffffff16815260200160008152602001606081525090565b6000604051905090565b600080fd5b600080fd5b600080fd5b600061018082840312156118df576118de6118c3565b5b81905092915050565b6000819050919050565b6118fb816118e8565b811461190657600080fd5b50565b600081359050611918816118f2565b92915050565b60008060408385031215611935576119346118b9565b5b600083013567ffffffffffffffff811115611953576119526118be565b5b61195f858286016118c8565b925050602061197085828601611909565b9150509250929050565b600081519050919050565b600082825260208201905092915050565b60005b838110156119b4578082015181840152602081019050611999565b838111156119c3576000848401525b50505050565b6000601f19601f8301169050919050565b60006119e58261197a565b6119ef8185611985565b93506119ff818560208601611996565b611a08816119c9565b840191505092915050565b60006020820190508181036000830152611a2d81846119da565b905092915050565b600073ffffffffffffffffffffffffffffffffffffffff82169050919050565b6000611a6082611a35565b9050919050565b611a7081611a55565b8114611a7b57600080fd5b50565b600081359050611a8d81611a67565b92915050565b600080fd5b600080fd5b600080fd5b60008083601f840112611ab857611ab7611a93565b5b8235905067ffffffffffffffff811115611ad557611ad4611a98565b5b602083019150836001820283011115611af157611af0611a9d565b5b9250929050565b60008060008060608587031215611b1257611b116118b9565b5b6000611b2087828801611a7e565b9450506020611b3187828801611909565b935050604085013567ffffffffffffffff811115611b5257611b516118be565b5b611b5e87828801611aa2565b925092505092959194509250565b611b7581611a55565b82525050565b6000602082019050611b906000830184611b6c565b92915050565b60038110611ba357600080fd5b50565b600081359050611bb581611b96565b92915050565b60008060008060608587031215611bd557611bd46118b9565b5b6000611be387828801611ba6565b945050602085013567ffffffffffffffff811115611c0457611c036118be565b5b611c1087828801611aa2565b93509350506040611c2387828801611909565b91505092959194509250565b611c38816118e8565b82525050565b6000602082019050611c536000830184611c2f565b92915050565b600082825260208201905092915050565b7f57616c6c65743a204e6f742066726f6d20456e747279506f696e740000000000600082015250565b6000611ca0601b83611c59565b9150611cab82611c6a565b602082019050919050565b60006020820190508181036000830152611ccf81611c93565b9050919050565b7f57616c6c65743a20496e76616c6964207369676e617475726500000000000000600082015250565b6000611d0c601983611c59565b9150611d1782611cd6565b602082019050919050565b60006020820190508181036000830152611d3b81611cff565b9050919050565b600080fd5b600080fd5b600080fd5b60008083356001602003843603038112611d6e57611d6d611d42565b5b80840192508235915067ffffffffffffffff821115611d9057611d8f611d47565b5b602083019250600182023603831315611dac57611dab611d4c565b5b509250929050565b7f57616c6c65743a20496e76616c6964206e6f6e63650000000000000000000000600082015250565b6000611dea601583611c59565b9150611df582611db4565b602082019050919050565b60006020820190508181036000830152611e1981611ddd565b9050919050565b7f4e487b7100000000000000000000000000000000000000000000000000000000600052601160045260246000fd5b6000611e5a826118e8565b91507fffffffffffffffffffffffffffffffffffffffffffffffffffffffffffffffff821415611e8d57611e8c611e20565b5b600182019050919050565b600081905092915050565b50565b6000611eb3600083611e98565b9150611ebe82611ea3565b600082019050919050565b6000611ed482611ea6565b9150819050919050565b7f5061796d61737465723a20496e76616c6964207369676e617475726500000000600082015250565b6000611f14601c83611c59565b9150611f1f82611ede565b602082019050919050565b60006020820190508181036000830152611f4381611f07565b9050919050565b7f5061796d61737465723a204e6f7420617070726f766564000000000000000000600082015250565b6000611f80601783611c59565b9150611f8b82611f4a565b602082019050919050565b60006020820190508181036000830152611faf81611f73565b9050919050565b82818337600083830152505050565b6000611fd18385611e98565b9350611fde838584611fb6565b82840190509392505050565b6000611ff7828486611fc5565b91508190509392505050565b600080fd5b7f4e487b7100000000000000000000000000000000000000000000000000000000600052604160045260246000fd5b612040826119c9565b810181811067ffffffffffffffff8211171561205f5761205e612008565b5b80604052505050565b60006120726118af565b905061207e8282612037565b919050565b600067ffffffffffffffff82111561209e5761209d612008565b5b6120a7826119c9565b9050602081019050919050565b60006120c76120c284612083565b612068565b9050828152602081018484840111156120e3576120e2612003565b5b6120ee848285611996565b509392505050565b600082601f83011261210b5761210a611a93565b5b815161211b8482602086016120b4565b91505092915050565b60006020828403121561213a576121396118b9565b5b600082015167ffffffffffffffff811115612158576121576118be565b5b612164848285016120f6565b91505092915050565b600081519050919050565b60006121838261216d565b61218d8185611c59565b935061219d818560208601611996565b6121a6816119c9565b840191505092915050565b600060208201905081810360008301526121cb8184612178565b905092915050565b60006121de82611a35565b9050919050565b6121ee816121d3565b81146121f957600080fd5b50565b60008135905061220b816121e5565b92915050565b6000806000806080858703121561222b5761222a6118b9565b5b6000612239878288016121fc565b945050602061224a878288016121fc565b935050604061225b87828801611909565b925050606061226c87828801611909565b91505092959194509250565b600060ff82169050919050565b61228e81612278565b811461229957600080fd5b50565b6000815190506122ab81612285565b92915050565b6000602082840312156122c7576122c66118b9565b5b60006122d58482850161229c565b91505092915050565b60008160011c9050919050565b6000808291508390505b60018511156123355780860481111561231157612310611e20565b5b60018516156123205780820291505b808102905061232e856122de565b94506122f5565b94509492505050565b60008261234e576001905061240a565b8161235c576000905061240a565b8160018114612372576002811461237c576123ab565b600191505061240a565b60ff84111561238e5761238d611e20565b5b8360020a9150848211156123a5576123a4611e20565b5b5061240a565b5060208310610133831016604e8410600b84101617156123e05782820a9050838111156123db576123da611e20565b5b61240a565b6123ed84848460016122eb565b9250905081840481111561240457612403611e20565b5b81810290505b9392505050565b600061241c826118e8565b915061242783612278565b92506124547fffffffffffffffffffffffffffffffffffffffffffffffffffffffffffffffff848461233e565b905092915050565b6000612467826118e8565b9150612472836118e8565b9250817fffffffffffffffffffffffffffffffffffffffffffffffffffffffffffffffff04831182151516156124ab576124aa611e20565b5b828202905092915050565b7f4e487b7100000000000000000000000000000000000000000000000000000000600052601260045260246000fd5b60006124f0826118e8565b91506124fb836118e8565b92508261250b5761250a6124b6565b5b828204905092915050565b6000612521826118e8565b915061252c836118e8565b9250827fffffffffffffffffffffffffffffffffffffffffffffffffffffffffffffffff0382111561256157612560611e20565b5b828201905092915050565b60006060820190506125816000830186611b6c565b61258e6020830185611b6c565b61259b6040830184611c2f565b949350505050565b60008115159050919050565b6125b8816125a3565b81146125c357600080fd5b50565b6000815190506125d5816125af565b92915050565b6000602082840312156125f1576125f06118b9565b5b60006125ff848285016125c6565b91505092915050565b60006020828403121561261e5761261d6118b9565b5b600061262c84828501611a7e565b91505092915050565b60008160601b9050919050565b600061264d82612635565b9050919050565b600061265f82612642565b9050919050565b61267761267282611a55565b612654565b82525050565b6000819050919050565b612698612693826118e8565b61267d565b82525050565b6000819050919050565b6000819050919050565b6126c36126be8261269e565b6126a8565b82525050565b60006126d5828e612666565b6014820191506126e5828d612687565b6020820191506126f5828c6126b2565b602082019150612705828b6126b2565b602082019150612715828a612687565b6020820191506127258289612687565b6020820191506127358288612687565b6020820191506127458287612687565b6020820191506127558286612687565b6020820191506127658285612666565b60148201915061277582846126b2565b6020820191508190509c9b505050505050505050505050565b600061279a8286612687565b6020820191506127aa8285612666565b6014820191506127ba8284612666565b601482019150819050949350505050565b60006040820190506127e06000830185611b6c565b6127ed6020830184611b6c565b9392505050565b600081519050612803816118f2565b92915050565b60006020828403121561281f5761281e6118b9565b5b600061282d848285016127f4565b91505092915050565b600060808201905061284b6000830187611b6c565b6128586020830186611b6c565b6128656040830185611c2f565b6128726060830184611c2f565b95945050505050565b600081905092915050565b7f19457468657265756d205369676e6564204d6573736167653a0a333200000000600082015250565b60006128bc601c8361287b565b91506128c782612886565b601c82019050919050565b60006128dd826128af565b91506128e982846126b2565b60208201915081905092915050565b600067ffffffffffffffff82111561291357612912612008565b5b61291c826119c9565b9050602081019050919050565b600061293c612937846128f8565b612068565b90508281526020810184848401111561295857612957612003565b5b612963848285611fb6565b509392505050565b600082601f8301126129805761297f611a93565b5b8135612990848260208601612929565b91505092915050565b600080600080608085870312156129b3576129b26118b9565b5b60006129c187828801611909565b94505060206129d2878288016121fc565b93505060406129e3878288016121fc565b925050606085013567ffffffffffffffff811115612a0457612a036118be565b5b612a108782880161296b565b91505092959194509250565b6000819050602082019050919050565b60007fffffffff0000000000000000000000000000000000000000000000000000000082169050919050565b6000612a648251612a2c565b80915050919050565b600082821b905092915050565b6000612a858261197a565b82612a8f84612a1c565b9050612a9a81612a58565b92506004821015612ada57612ad57fffffffff0000000000000000000000000000000000000000000000000000000083600403600802612a6d565b831692505b5050919050565b6000612aec826118e8565b9150612af7836118e8565b925082821015612b0a57612b09611e20565b5b828203905092915050565b600081519050612b24816121e5565b92915050565b60008060408385031215612b4157612b406118b9565b5b6000612b4f85828601612b15565b9250506020612b60858286016127f4565b9150509250929050565b600069ffffffffffffffffffff82169050919050565b612b8981612b6a565b8114612b9457600080fd5b50565b600081519050612ba681612b80565b92915050565b6000819050919050565b612bbf81612bac565b8114612bca57600080fd5b50565b600081519050612bdc81612bb6565b92915050565b600080600080600060a08688031215612bfe57612bfd6118b9565b5b6000612c0c88828901612b97565b9550506020612c1d88828901612bcd565b9450506040612c2e888289016127f4565b9350506060612c3f888289016127f4565b9250506080612c5088828901612b97565b9150509295509295909350565b6000612c6882612278565b9150612c7383612278565b925082821015612c8657612c85611e20565b5b828203905092915050565b7f4e487b7100000000000000000000000000000000000000000000000000000000600052602160045260246000fd5b7f45434453413a20696e76616c6964207369676e61747572650000000000000000600082015250565b6000612cf6601883611c59565b9150612d0182612cc0565b602082019050919050565b60006020820190508181036000830152612d2581612ce9565b9050919050565b7f45434453413a20696e76616c6964207369676e6174757265206c656e67746800600082015250565b6000612d62601f83611c59565b9150612d6d82612d2c565b602082019050919050565b60006020820190508181036000830152612d9181612d55565b9050919050565b7f45434453413a20696e76616c6964207369676e6174757265202773272076616c60008201527f7565000000000000000000000000000000000000000000000000000000000000602082015250565b6000612df4602283611c59565b9150612dff82612d98565b604082019050919050565b60006020820190508181036000830152612e2381612de7565b9050919050565b7f45434453413a20696e76616c6964207369676e6174757265202776272076616c60008201527f7565000000000000000000000000000000000000000000000000000000000000602082015250565b6000612e86602283611c59565b9150612e9182612e2a565b604082019050919050565b60006020820190508181036000830152612eb581612e79565b9050919050565b600080fd5b600080fd5b60008085851115612eda57612ed9612ebc565b5b83861115612eeb57612eea612ec1565b5b6001850283019150848603905094509492505050565b600080600060608486031215612f1a57612f196118b9565b5b6000612f28868287016121fc565b9350506020612f3986828701611909565b925050604084013567ffffffffffffffff811115612f5a57612f596118be565b5b612f668682870161296b565b9150509250925092565b7f736c6963655f6f766572666c6f77000000000000000000000000000000000000600082015250565b6000612fa6600e83611c59565b9150612fb182612f70565b602082019050919050565b60006020820190508181036000830152612fd581612f99565b9050919050565b7f736c6963655f6f75744f66426f756e6473000000000000000000000000000000600082015250565b6000613012601183611c59565b915061301d82612fdc565b602082019050919050565b6000602082019050818103600083015261304181613005565b9050919050565b6130518161269e565b82525050565b61306081612278565b82525050565b600060808201905061307b6000830187613048565b6130886020830186613057565b6130956040830185613048565b6130a26060830184613048565b9594505050505056fea26469706673582212208ef03cc593806220a539b7c4cd6f69f425e69372e435937e2ef3c5927f70063764736f6c63430008090033",
  "linkReferences": {},
  "deployedLinkReferences": {}
}