{
  "_format": "hh-sol-artifact-1",
  "contractName": "Wallet",
  "sourceName": "contracts/ERC4337/Wallet.sol",
  "abi": [
    {
      "inputs": [
        {
          "internalType": "address",
          "name": "_entryPoint",
          "type": "address"
        },
        {
          "internalType": "address",
          "name": "_owner",
          "type": "address"
        }
      ],
      "stateMutability": "nonpayable",
      "type": "constructor"
    },
    {
      "inputs": [],
      "name": "entryPoint",
      "outputs": [
        {
          "internalType": "address",
          "name": "",
          "type": "address"
        }
      ],
      "stateMutability": "view",
      "type": "function"
    },
    {
      "inputs": [
        {
          "internalType": "address",
          "name": "to",
          "type": "address"
        },
        {
          "internalType": "uint256",
          "name": "value",
          "type": "uint256"
        },
        {
          "internalType": "bytes",
          "name": "data",
          "type": "bytes"
        }
      ],
      "name": "executeUserOp",
      "outputs": [],
      "stateMutability": "nonpayable",
      "type": "function"
    },
    {
      "inputs": [],
      "name": "nonce",
      "outputs": [
        {
          "internalType": "uint256",
          "name": "",
          "type": "uint256"
        }
      ],
      "stateMutability": "view",
      "type": "function"
    },
    {
      "inputs": [],
      "name": "owner",
      "outputs": [
        {
          "internalType": "address",
          "name": "",
          "type": "address"
        }
      ],
      "stateMutability": "view",
      "type": "function"
    },
    {
      "inputs": [
        {
          "internalType": "enum PostOpMode",
          "name": "mode",
          "type": "uint8"
        },
        {
          "internalType": "bytes",
          "name": "context",
          "type": "bytes"
        },
        {
          "internalType": "uint256",
          "name": "actualGasCost",
          "type": "uint256"
        }
      ],
      "name": "postOp",
      "outputs": [],
      "stateMutability": "nonpayable",
      "type": "function"
    },
    {
      "inputs": [
        {
          "components": [
            {
              "internalType": "address",
              "name": "sender",
              "type": "address"
            },
            {
              "internalType": "uint256",
              "name": "nonce",
              "type": "uint256"
            },
            {
              "internalType": "bytes",
              "name": "initCode",
              "type": "bytes"
            },
            {
              "internalType": "bytes",
              "name": "callData",
              "type": "bytes"
            },
            {
              "internalType": "uint256",
              "name": "callGas",
              "type": "uint256"
            },
            {
              "internalType": "uint256",
              "name": "verificationGas",
              "type": "uint256"
            },
            {
              "internalType": "uint256",
              "name": "preVerificationGas",
              "type": "uint256"
            },
            {
              "internalType": "uint256",
              "name": "maxFeePerGas",
              "type": "uint256"
            },
            {
              "internalType": "uint256",
              "name": "maxPriorityFeePerGas",
              "type": "uint256"
            },
            {
              "internalType": "address",
              "name": "paymaster",
              "type": "address"
            },
            {
              "internalType": "bytes",
              "name": "paymasterData",
              "type": "bytes"
            },
            {
              "internalType": "bytes",
              "name": "signature",
              "type": "bytes"
            }
          ],
          "internalType": "struct UserOperation",
          "name": "userOp",
          "type": "tuple"
        },
        {
          "internalType": "uint256",
          "name": "maxcost",
          "type": "uint256"
        }
      ],
      "name": "validatePaymasterUserOp",
      "outputs": [
        {
          "internalType": "bytes",
          "name": "context",
          "type": "bytes"
        }
      ],
      "stateMutability": "view",
      "type": "function"
    },
    {
      "inputs": [
        {
          "components": [
            {
              "internalType": "address",
              "name": "sender",
              "type": "address"
            },
            {
              "internalType": "uint256",
              "name": "nonce",
              "type": "uint256"
            },
            {
              "internalType": "bytes",
              "name": "initCode",
              "type": "bytes"
            },
            {
              "internalType": "bytes",
              "name": "callData",
              "type": "bytes"
            },
            {
              "internalType": "uint256",
              "name": "callGas",
              "type": "uint256"
            },
            {
              "internalType": "uint256",
              "name": "verificationGas",
              "type": "uint256"
            },
            {
              "internalType": "uint256",
              "name": "preVerificationGas",
              "type": "uint256"
            },
            {
              "internalType": "uint256",
              "name": "maxFeePerGas",
              "type": "uint256"
            },
            {
              "internalType": "uint256",
              "name": "maxPriorityFeePerGas",
              "type": "uint256"
            },
            {
              "internalType": "address",
              "name": "paymaster",
              "type": "address"
            },
            {
              "internalType": "bytes",
              "name": "paymasterData",
              "type": "bytes"
            },
            {
              "internalType": "bytes",
              "name": "signature",
              "type": "bytes"
            }
          ],
          "internalType": "struct UserOperation",
          "name": "userOp",
          "type": "tuple"
        },
        {
          "internalType": "uint256",
          "name": "requiredPrefund",
          "type": "uint256"
        }
      ],
      "name": "validateUserOp",
      "outputs": [],
      "stateMutability": "nonpayable",
      "type": "function"
    },
    {
      "stateMutability": "payable",
      "type": "receive"
    }
  ],
  "bytecode": "0x60806040523480156200001157600080fd5b506040516200318b3803806200318b83398181016040528101906200003791906200012a565b816000806101000a81548173ffffffffffffffffffffffffffffffffffffffff021916908373ffffffffffffffffffffffffffffffffffffffff16021790555080600160006101000a81548173ffffffffffffffffffffffffffffffffffffffff021916908373ffffffffffffffffffffffffffffffffffffffff160217905550505062000171565b600080fd5b600073ffffffffffffffffffffffffffffffffffffffff82169050919050565b6000620000f282620000c5565b9050919050565b6200010481620000e5565b81146200011057600080fd5b50565b6000815190506200012481620000f9565b92915050565b60008060408385031215620001445762000143620000c0565b5b6000620001548582860162000113565b9250506020620001678582860162000113565b9150509250929050565b61300a80620001816000396000f3fe6080604052600436106100745760003560e01c80638da5cb5b1161004e5780638da5cb5b1461010f578063a9a234091461013a578063affed0e014610163578063b0d691fe1461018e5761007b565b80631058ea3c146100805780635765f462146100a957806367674a6f146100e65761007b565b3661007b57005b600080fd5b34801561008c57600080fd5b506100a760048036038101906100a29190611847565b6101b9565b005b3480156100b557600080fd5b506100d060048036038101906100cb9190611847565b6103f5565b6040516100dd919061193c565b60405180910390f35b3480156100f257600080fd5b5061010d60048036038101906101089190611a21565b610527565b005b34801561011b57600080fd5b50610124610699565b6040516101319190611aa4565b60405180910390f35b34801561014657600080fd5b50610161600480360381019061015c9190611ae4565b6106bf565b005b34801561016f57600080fd5b506101786108d2565b6040516101859190611b67565b60405180910390f35b34801561019a57600080fd5b506101a36108d8565b6040516101b09190611aa4565b60405180910390f35b60008054906101000a900473ffffffffffffffffffffffffffffffffffffffff1673ffffffffffffffffffffffffffffffffffffffff163373ffffffffffffffffffffffffffffffffffffffff1614610247576040517f08c379a000000000000000000000000000000000000000000000000000000000815260040161023e90611bdf565b60405180910390fd5b600160009054906101000a900473ffffffffffffffffffffffffffffffffffffffff1673ffffffffffffffffffffffffffffffffffffffff16610289836108fc565b73ffffffffffffffffffffffffffffffffffffffff16146102df576040517f08c379a00000000000000000000000000000000000000000000000000000000081526004016102d690611c4b565b60405180910390fd5b60008280604001906102f19190611c7a565b9050141561035a57816020013560025414610341576040517f08c379a000000000000000000000000000000000000000000000000000000000815260040161033890611d29565b60405180910390fd5b6002600081548092919061035490611d78565b91905055505b600081146103f15760008060009054906101000a900473ffffffffffffffffffffffffffffffffffffffff1673ffffffffffffffffffffffffffffffffffffffff16826040516103a990611df2565b60006040518083038185875af1925050503d80600081146103e6576040519150601f19603f3d011682016040523d82523d6000602084013e6103eb565b606091505b50509050505b5050565b6060600160009054906101000a900473ffffffffffffffffffffffffffffffffffffffff1673ffffffffffffffffffffffffffffffffffffffff1661043984610a5b565b73ffffffffffffffffffffffffffffffffffffffff161461048f576040517f08c379a000000000000000000000000000000000000000000000000000000000815260040161048690611e53565b60405180910390fd5b6104a28284610b8890919063ffffffff16565b80156104bd57506104bc8284610c5590919063ffffffff16565b5b806104d757506104d68284610c8390919063ffffffff16565b5b610516576040517f08c379a000000000000000000000000000000000000000000000000000000000815260040161050d90611ebf565b60405180910390fd5b61051f83610cb1565b905092915050565b60008054906101000a900473ffffffffffffffffffffffffffffffffffffffff1673ffffffffffffffffffffffffffffffffffffffff163373ffffffffffffffffffffffffffffffffffffffff16146105b5576040517f08c379a00000000000000000000000000000000000000000000000000000000081526004016105ac90611bdf565b60405180910390fd5b6000808573ffffffffffffffffffffffffffffffffffffffff168585856040516105e0929190611f13565b60006040518083038185875af1925050503d806000811461061d576040519150601f19603f3d011682016040523d82523d6000602084013e610622565b606091505b5091509150816106915760448151101561063b57600080fd5b60048101905080806020019051810190610655919061204d565b6040517f08c379a000000000000000000000000000000000000000000000000000000000815260040161068891906120da565b60405180910390fd5b505050505050565b600160009054906101000a900473ffffffffffffffffffffffffffffffffffffffff1681565b60008054906101000a900473ffffffffffffffffffffffffffffffffffffffff1673ffffffffffffffffffffffffffffffffffffffff163373ffffffffffffffffffffffffffffffffffffffff161461074d576040517f08c379a000000000000000000000000000000000000000000000000000000000815260040161074490611bdf565b60405180910390fd5b6000806000808686810190610762919061213a565b935093509350935060008373ffffffffffffffffffffffffffffffffffffffff1663313ce5676040518163ffffffff1660e01b815260040160206040518083038186803b1580156107b257600080fd5b505afa1580156107c6573d6000803e3d6000fd5b505050506040513d601f19601f820116820180604052508101906107ea91906121da565b600a6107f6919061233a565b90508373ffffffffffffffffffffffffffffffffffffffff166323b872dd86308585670de0b6b3a764000061082b9190612385565b86898d6108389190612385565b6108429190612385565b61084c919061240e565b610856919061243f565b6040518463ffffffff1660e01b815260040161087493929190612495565b602060405180830381600087803b15801561088e57600080fd5b505af11580156108a2573d6000803e3d6000fd5b505050506040513d601f19601f820116820180604052508101906108c69190612504565b50505050505050505050565b60025481565b60008054906101000a900473ffffffffffffffffffffffffffffffffffffffff1681565b6000610a54828061016001906109129190611c7a565b8080601f016020809104026020016040519081016040528093929190818152602001838380828437600081840152601f19601f82011690508083019250505050505050610a4684600001602081019061096b9190612531565b85602001358680604001906109809190611c7a565b60405161098e929190611f13565b60405180910390208780606001906109a69190611c7a565b6040516109b4929190611f13565b604051809103902088608001358960a001358a60c001358b60e001358c61010001358d6101200160208101906109ea9190612531565b8e8061014001906109fb9190611c7a565b604051610a09929190611f13565b6040518091039020604051602001610a2b9b9a999897969594939291906125f2565b60405160208183030381529060405280519060200120610d10565b610d4090919063ffffffff16565b9050919050565b600080610a6783610d67565b9050610b808160600151610b72856000016020810190610a879190612531565b8660200135878060400190610a9c9190611c7a565b604051610aaa929190611f13565b6040518091039020888060600190610ac29190611c7a565b604051610ad0929190611f13565b604051809103902089608001358a60a001358b60c001358c60e001358d61010001358e610120016020810190610b069190612531565b8d600001518e602001518f60400151604051602001610b27939291906126b7565b60405160208183030381529060405280519060200120604051602001610b579b9a999897969594939291906125f2565b60405160208183030381529060405280519060200120610d10565b610d4090919063ffffffff16565b915050919050565b600080610b9484610d67565b9050610ba98385610e3390919063ffffffff16565b816020015173ffffffffffffffffffffffffffffffffffffffff1663dd62ed3e866000016020810190610bdc9190612531565b306040518363ffffffff1660e01b8152600401610bfa9291906126f4565b60206040518083038186803b158015610c1257600080fd5b505afa158015610c26573d6000803e3d6000fd5b505050506040513d601f19601f82011682018060405250810190610c4a9190612732565b101591505092915050565b6000610c6083610e86565b1580610c7b5750610c7a8284610f7f90919063ffffffff16565b5b905092915050565b6000610c8e83610e86565b8015610ca95750610ca88284610f7f90919063ffffffff16565b5b905092915050565b60606000610cbe83610d67565b9050826000016020810190610cd39190612531565b8160200151610ce185611016565b8360000151604051602001610cf9949392919061275f565b604051602081830303815290604052915050919050565b600081604051602001610d2391906127fb565b604051602081830303815290604052805190602001209050919050565b6000806000610d4f85856111dc565b91509150610d5c8161125f565b819250505092915050565b610d6f61174d565b60008060008085806101400190610d869190611c7a565b810190610d9391906128c2565b9350935093509350610da361174d565b8481600001818152505083816020019073ffffffffffffffffffffffffffffffffffffffff16908173ffffffffffffffffffffffffffffffffffffffff168152505082816040019073ffffffffffffffffffffffffffffffffffffffff16908173ffffffffffffffffffffffffffffffffffffffff16815250508181606001819052508095505050505050919050565b600080610e3f84610d67565b90506000670de0b6b3a764000084610e5687611016565b610e609190612385565b610e6a919061240e565b9050816000015181610e7c919061243f565b9250505092915050565b600080610e9283611434565b90506000610e9f84610d67565b9050806020015173ffffffffffffffffffffffffffffffffffffffff16826000015173ffffffffffffffffffffffffffffffffffffffff16148015610f7657506040518060400160405280601881526020017f617070726f766528616464726573732c75696e74323536290000000000000000815250805190602001207bffffffffffffffffffffffffffffffffffffffffffffffffffffffff1916610f4c8360400151600060046114d4565b610f55906129a3565b7bffffffffffffffffffffffffffffffffffffffffffffffffffffffff1916145b92505050919050565b600080610f8b84611434565b9050600080610fb08360400151600480866040015151610fab9190612a0a565b6114d4565b806020019051810190610fc39190612a53565b915091503073ffffffffffffffffffffffffffffffffffffffff168273ffffffffffffffffffffffffffffffffffffffff1614801561100b57506110078686610e33565b8110155b935050505092915050565b60008061102283610d67565b90506000816040015173ffffffffffffffffffffffffffffffffffffffff1663feaf968c6040518163ffffffff1660e01b815260040160a06040518083038186803b15801561107057600080fd5b505afa158015611084573d6000803e3d6000fd5b505050506040513d601f19601f820116820180604052508101906110a89190612b0b565b505050915050816020015173ffffffffffffffffffffffffffffffffffffffff1663313ce5676040518163ffffffff1660e01b815260040160206040518083038186803b1580156110f857600080fd5b505afa15801561110c573d6000803e3d6000fd5b505050506040513d601f19601f8201168201806040525081019061113091906121da565b826040015173ffffffffffffffffffffffffffffffffffffffff1663313ce5676040518163ffffffff1660e01b815260040160206040518083038186803b15801561117a57600080fd5b505afa15801561118e573d6000803e3d6000fd5b505050506040513d601f19601f820116820180604052508101906111b291906121da565b6111bc9190612b86565b600a6111c8919061233a565b816111d3919061240e565b92505050919050565b60008060418351141561121e5760008060006020860151925060408601519150606086015160001a9050611212878285856115f2565b94509450505050611258565b60408351141561124f5760008060208501519150604085015190506112448683836116ff565b935093505050611258565b60006002915091505b9250929050565b6000600481111561127357611272612bba565b5b81600481111561128657611285612bba565b5b141561129157611431565b600160048111156112a5576112a4612bba565b5b8160048111156112b8576112b7612bba565b5b14156112f9576040517f08c379a00000000000000000000000000000000000000000000000000000000081526004016112f090612c35565b60405180910390fd5b6002600481111561130d5761130c612bba565b5b8160048111156113205761131f612bba565b5b1415611361576040517f08c379a000000000000000000000000000000000000000000000000000000000815260040161135890612ca1565b60405180910390fd5b6003600481111561137557611374612bba565b5b81600481111561138857611387612bba565b5b14156113c9576040517f08c379a00000000000000000000000000000000000000000000000000000000081526004016113c090612d33565b60405180910390fd5b6004808111156113dc576113db612bba565b5b8160048111156113ef576113ee612bba565b5b1415611430576040517f08c379a000000000000000000000000000000000000000000000000000000000815260040161142790612dc5565b60405180910390fd5b5b50565b61143c6117a1565b60008060008480606001906114519190611c7a565b600490809261146293929190612def565b81019061146f9190612e2a565b92509250925061147d6117a1565b83816000019073ffffffffffffffffffffffffffffffffffffffff16908173ffffffffffffffffffffffffffffffffffffffff16815250508281602001818152505081816040018190525080945050505050919050565b606081601f836114e4919061243f565b1015611525576040517f08c379a000000000000000000000000000000000000000000000000000000000815260040161151c90612ee5565b60405180910390fd5b8183611531919061243f565b84511015611574576040517f08c379a000000000000000000000000000000000000000000000000000000000815260040161156b90612f51565b60405180910390fd5b606082156000811461159557604051915060008252602082016040526115e6565b6040519150601f8416801560200281840101858101878315602002848b0101015b818310156115d357805183526020830192506020810190506115b6565b50868552601f19601f8301166040525050505b50809150509392505050565b6000807f7fffffffffffffffffffffffffffffff5d576e7357a4501ddfe92f46681b20a08360001c111561162d5760006003915091506116f6565b601b8560ff16141580156116455750601c8560ff1614155b156116575760006004915091506116f6565b60006001878787876040516000815260200160405260405161167c9493929190612f8f565b6020604051602081039080840390855afa15801561169e573d6000803e3d6000fd5b505050602060405103519050600073ffffffffffffffffffffffffffffffffffffffff168173ffffffffffffffffffffffffffffffffffffffff1614156116ed576000600192509250506116f6565b80600092509250505b94509492505050565b6000806000807f7fffffffffffffffffffffffffffffffffffffffffffffffffffffffffffffff85169150601b8560ff1c01905061173f878288856115f2565b935093505050935093915050565b604051806080016040528060008152602001600073ffffffffffffffffffffffffffffffffffffffff168152602001600073ffffffffffffffffffffffffffffffffffffffff168152602001606081525090565b6040518060600160405280600073ffffffffffffffffffffffffffffffffffffffff16815260200160008152602001606081525090565b6000604051905090565b600080fd5b600080fd5b600080fd5b60006101808284031215611808576118076117ec565b5b81905092915050565b6000819050919050565b61182481611811565b811461182f57600080fd5b50565b6000813590506118418161181b565b92915050565b6000806040838503121561185e5761185d6117e2565b5b600083013567ffffffffffffffff81111561187c5761187b6117e7565b5b611888858286016117f1565b925050602061189985828601611832565b9150509250929050565b600081519050919050565b600082825260208201905092915050565b60005b838110156118dd5780820151818401526020810190506118c2565b838111156118ec576000848401525b50505050565b6000601f19601f8301169050919050565b600061190e826118a3565b61191881856118ae565b93506119288185602086016118bf565b611931816118f2565b840191505092915050565b600060208201905081810360008301526119568184611903565b905092915050565b600073ffffffffffffffffffffffffffffffffffffffff82169050919050565b60006119898261195e565b9050919050565b6119998161197e565b81146119a457600080fd5b50565b6000813590506119b681611990565b92915050565b600080fd5b600080fd5b600080fd5b60008083601f8401126119e1576119e06119bc565b5b8235905067ffffffffffffffff8111156119fe576119fd6119c1565b5b602083019150836001820283011115611a1a57611a196119c6565b5b9250929050565b60008060008060608587031215611a3b57611a3a6117e2565b5b6000611a49878288016119a7565b9450506020611a5a87828801611832565b935050604085013567ffffffffffffffff811115611a7b57611a7a6117e7565b5b611a87878288016119cb565b925092505092959194509250565b611a9e8161197e565b82525050565b6000602082019050611ab96000830184611a95565b92915050565b60038110611acc57600080fd5b50565b600081359050611ade81611abf565b92915050565b60008060008060608587031215611afe57611afd6117e2565b5b6000611b0c87828801611acf565b945050602085013567ffffffffffffffff811115611b2d57611b2c6117e7565b5b611b39878288016119cb565b93509350506040611b4c87828801611832565b91505092959194509250565b611b6181611811565b82525050565b6000602082019050611b7c6000830184611b58565b92915050565b600082825260208201905092915050565b7f57616c6c65743a204e6f742066726f6d20456e747279506f696e740000000000600082015250565b6000611bc9601b83611b82565b9150611bd482611b93565b602082019050919050565b60006020820190508181036000830152611bf881611bbc565b9050919050565b7f57616c6c65743a20496e76616c6964207369676e617475726500000000000000600082015250565b6000611c35601983611b82565b9150611c4082611bff565b602082019050919050565b60006020820190508181036000830152611c6481611c28565b9050919050565b600080fd5b600080fd5b600080fd5b60008083356001602003843603038112611c9757611c96611c6b565b5b80840192508235915067ffffffffffffffff821115611cb957611cb8611c70565b5b602083019250600182023603831315611cd557611cd4611c75565b5b509250929050565b7f57616c6c65743a20496e76616c6964206e6f6e63650000000000000000000000600082015250565b6000611d13601583611b82565b9150611d1e82611cdd565b602082019050919050565b60006020820190508181036000830152611d4281611d06565b9050919050565b7f4e487b7100000000000000000000000000000000000000000000000000000000600052601160045260246000fd5b6000611d8382611811565b91507fffffffffffffffffffffffffffffffffffffffffffffffffffffffffffffffff821415611db657611db5611d49565b5b600182019050919050565b600081905092915050565b50565b6000611ddc600083611dc1565b9150611de782611dcc565b600082019050919050565b6000611dfd82611dcf565b9150819050919050565b7f5061796d61737465723a20496e76616c6964207369676e617475726500000000600082015250565b6000611e3d601c83611b82565b9150611e4882611e07565b602082019050919050565b60006020820190508181036000830152611e6c81611e30565b9050919050565b7f5061796d61737465723a204e6f7420617070726f766564000000000000000000600082015250565b6000611ea9601783611b82565b9150611eb482611e73565b602082019050919050565b60006020820190508181036000830152611ed881611e9c565b9050919050565b82818337600083830152505050565b6000611efa8385611dc1565b9350611f07838584611edf565b82840190509392505050565b6000611f20828486611eee565b91508190509392505050565b600080fd5b7f4e487b7100000000000000000000000000000000000000000000000000000000600052604160045260246000fd5b611f69826118f2565b810181811067ffffffffffffffff82111715611f8857611f87611f31565b5b80604052505050565b6000611f9b6117d8565b9050611fa78282611f60565b919050565b600067ffffffffffffffff821115611fc757611fc6611f31565b5b611fd0826118f2565b9050602081019050919050565b6000611ff0611feb84611fac565b611f91565b90508281526020810184848401111561200c5761200b611f2c565b5b6120178482856118bf565b509392505050565b600082601f830112612034576120336119bc565b5b8151612044848260208601611fdd565b91505092915050565b600060208284031215612063576120626117e2565b5b600082015167ffffffffffffffff811115612081576120806117e7565b5b61208d8482850161201f565b91505092915050565b600081519050919050565b60006120ac82612096565b6120b68185611b82565b93506120c68185602086016118bf565b6120cf816118f2565b840191505092915050565b600060208201905081810360008301526120f481846120a1565b905092915050565b60006121078261195e565b9050919050565b612117816120fc565b811461212257600080fd5b50565b6000813590506121348161210e565b92915050565b60008060008060808587031215612154576121536117e2565b5b600061216287828801612125565b945050602061217387828801612125565b935050604061218487828801611832565b925050606061219587828801611832565b91505092959194509250565b600060ff82169050919050565b6121b7816121a1565b81146121c257600080fd5b50565b6000815190506121d4816121ae565b92915050565b6000602082840312156121f0576121ef6117e2565b5b60006121fe848285016121c5565b91505092915050565b60008160011c9050919050565b6000808291508390505b600185111561225e5780860481111561223a57612239611d49565b5b60018516156122495780820291505b808102905061225785612207565b945061221e565b94509492505050565b6000826122775760019050612333565b816122855760009050612333565b816001811461229b57600281146122a5576122d4565b6001915050612333565b60ff8411156122b7576122b6611d49565b5b8360020a9150848211156122ce576122cd611d49565b5b50612333565b5060208310610133831016604e8410600b84101617156123095782820a90508381111561230457612303611d49565b5b612333565b6123168484846001612214565b9250905081840481111561232d5761232c611d49565b5b81810290505b9392505050565b600061234582611811565b9150612350836121a1565b925061237d7fffffffffffffffffffffffffffffffffffffffffffffffffffffffffffffffff8484612267565b905092915050565b600061239082611811565b915061239b83611811565b9250817fffffffffffffffffffffffffffffffffffffffffffffffffffffffffffffffff04831182151516156123d4576123d3611d49565b5b828202905092915050565b7f4e487b7100000000000000000000000000000000000000000000000000000000600052601260045260246000fd5b600061241982611811565b915061242483611811565b925082612434576124336123df565b5b828204905092915050565b600061244a82611811565b915061245583611811565b9250827fffffffffffffffffffffffffffffffffffffffffffffffffffffffffffffffff0382111561248a57612489611d49565b5b828201905092915050565b60006060820190506124aa6000830186611a95565b6124b76020830185611a95565b6124c46040830184611b58565b949350505050565b60008115159050919050565b6124e1816124cc565b81146124ec57600080fd5b50565b6000815190506124fe816124d8565b92915050565b60006020828403121561251a576125196117e2565b5b6000612528848285016124ef565b91505092915050565b600060208284031215612547576125466117e2565b5b6000612555848285016119a7565b91505092915050565b60008160601b9050919050565b60006125768261255e565b9050919050565b60006125888261256b565b9050919050565b6125a061259b8261197e565b61257d565b82525050565b6000819050919050565b6125c16125bc82611811565b6125a6565b82525050565b6000819050919050565b6000819050919050565b6125ec6125e7826125c7565b6125d1565b82525050565b60006125fe828e61258f565b60148201915061260e828d6125b0565b60208201915061261e828c6125db565b60208201915061262e828b6125db565b60208201915061263e828a6125b0565b60208201915061264e82896125b0565b60208201915061265e82886125b0565b60208201915061266e82876125b0565b60208201915061267e82866125b0565b60208201915061268e828561258f565b60148201915061269e82846125db565b6020820191508190509c9b505050505050505050505050565b60006126c382866125b0565b6020820191506126d3828561258f565b6014820191506126e3828461258f565b601482019150819050949350505050565b60006040820190506127096000830185611a95565b6127166020830184611a95565b9392505050565b60008151905061272c8161181b565b92915050565b600060208284031215612748576127476117e2565b5b60006127568482850161271d565b91505092915050565b60006080820190506127746000830187611a95565b6127816020830186611a95565b61278e6040830185611b58565b61279b6060830184611b58565b95945050505050565b600081905092915050565b7f19457468657265756d205369676e6564204d6573736167653a0a333200000000600082015250565b60006127e5601c836127a4565b91506127f0826127af565b601c82019050919050565b6000612806826127d8565b915061281282846125db565b60208201915081905092915050565b600067ffffffffffffffff82111561283c5761283b611f31565b5b612845826118f2565b9050602081019050919050565b600061286561286084612821565b611f91565b90508281526020810184848401111561288157612880611f2c565b5b61288c848285611edf565b509392505050565b600082601f8301126128a9576128a86119bc565b5b81356128b9848260208601612852565b91505092915050565b600080600080608085870312156128dc576128db6117e2565b5b60006128ea87828801611832565b94505060206128fb87828801612125565b935050604061290c87828801612125565b925050606085013567ffffffffffffffff81111561292d5761292c6117e7565b5b61293987828801612894565b91505092959194509250565b6000819050602082019050919050565b60007fffffffff0000000000000000000000000000000000000000000000000000000082169050919050565b600061298d8251612955565b80915050919050565b600082821b905092915050565b60006129ae826118a3565b826129b884612945565b90506129c381612981565b92506004821015612a03576129fe7fffffffff0000000000000000000000000000000000000000000000000000000083600403600802612996565b831692505b5050919050565b6000612a1582611811565b9150612a2083611811565b925082821015612a3357612a32611d49565b5b828203905092915050565b600081519050612a4d8161210e565b92915050565b60008060408385031215612a6a57612a696117e2565b5b6000612a7885828601612a3e565b9250506020612a898582860161271d565b9150509250929050565b600069ffffffffffffffffffff82169050919050565b612ab281612a93565b8114612abd57600080fd5b50565b600081519050612acf81612aa9565b92915050565b6000819050919050565b612ae881612ad5565b8114612af357600080fd5b50565b600081519050612b0581612adf565b92915050565b600080600080600060a08688031215612b2757612b266117e2565b5b6000612b3588828901612ac0565b9550506020612b4688828901612af6565b9450506040612b578882890161271d565b9350506060612b688882890161271d565b9250506080612b7988828901612ac0565b9150509295509295909350565b6000612b91826121a1565b9150612b9c836121a1565b925082821015612baf57612bae611d49565b5b828203905092915050565b7f4e487b7100000000000000000000000000000000000000000000000000000000600052602160045260246000fd5b7f45434453413a20696e76616c6964207369676e61747572650000000000000000600082015250565b6000612c1f601883611b82565b9150612c2a82612be9565b602082019050919050565b60006020820190508181036000830152612c4e81612c12565b9050919050565b7f45434453413a20696e76616c6964207369676e6174757265206c656e67746800600082015250565b6000612c8b601f83611b82565b9150612c9682612c55565b602082019050919050565b60006020820190508181036000830152612cba81612c7e565b9050919050565b7f45434453413a20696e76616c6964207369676e6174757265202773272076616c60008201527f7565000000000000000000000000000000000000000000000000000000000000602082015250565b6000612d1d602283611b82565b9150612d2882612cc1565b604082019050919050565b60006020820190508181036000830152612d4c81612d10565b9050919050565b7f45434453413a20696e76616c6964207369676e6174757265202776272076616c60008201527f7565000000000000000000000000000000000000000000000000000000000000602082015250565b6000612daf602283611b82565b9150612dba82612d53565b604082019050919050565b60006020820190508181036000830152612dde81612da2565b9050919050565b600080fd5b600080fd5b60008085851115612e0357612e02612de5565b5b83861115612e1457612e13612dea565b5b6001850283019150848603905094509492505050565b600080600060608486031215612e4357612e426117e2565b5b6000612e5186828701612125565b9350506020612e6286828701611832565b925050604084013567ffffffffffffffff811115612e8357612e826117e7565b5b612e8f86828701612894565b9150509250925092565b7f736c6963655f6f766572666c6f77000000000000000000000000000000000000600082015250565b6000612ecf600e83611b82565b9150612eda82612e99565b602082019050919050565b60006020820190508181036000830152612efe81612ec2565b9050919050565b7f736c6963655f6f75744f66426f756e6473000000000000000000000000000000600082015250565b6000612f3b601183611b82565b9150612f4682612f05565b602082019050919050565b60006020820190508181036000830152612f6a81612f2e565b9050919050565b612f7a816125c7565b82525050565b612f89816121a1565b82525050565b6000608082019050612fa46000830187612f71565b612fb16020830186612f80565b612fbe6040830185612f71565b612fcb6060830184612f71565b9594505050505056fea2646970667358221220137e4dbd4946e902594b06c376b8bbd099343155eb07ae8f3b2a7263cc5433a164736f6c63430008090033",
  "linkReferences": {},
  "deployedLinkReferences": {}
}