{
  "_format": "hh-sol-artifact-1",
  "contractName": "Wallet",
  "sourceName": "contracts/ERC4337/Wallet.sol",
  "abi": [
    {
      "inputs": [],
      "stateMutability": "nonpayable",
      "type": "constructor"
    },
    {
      "anonymous": false,
      "inputs": [
        {
          "indexed": false,
          "internalType": "address",
          "name": "previousAdmin",
          "type": "address"
        },
        {
          "indexed": false,
          "internalType": "address",
          "name": "newAdmin",
          "type": "address"
        }
      ],
      "name": "AdminChanged",
      "type": "event"
    },
    {
      "anonymous": false,
      "inputs": [
        {
          "indexed": true,
          "internalType": "address",
          "name": "beacon",
          "type": "address"
        }
      ],
      "name": "BeaconUpgraded",
      "type": "event"
    },
    {
      "anonymous": false,
      "inputs": [
        {
          "indexed": true,
          "internalType": "bytes32",
          "name": "role",
          "type": "bytes32"
        },
        {
          "indexed": true,
          "internalType": "bytes32",
          "name": "previousAdminRole",
          "type": "bytes32"
        },
        {
          "indexed": true,
          "internalType": "bytes32",
          "name": "newAdminRole",
          "type": "bytes32"
        }
      ],
      "name": "RoleAdminChanged",
      "type": "event"
    },
    {
      "anonymous": false,
      "inputs": [
        {
          "indexed": true,
          "internalType": "bytes32",
          "name": "role",
          "type": "bytes32"
        },
        {
          "indexed": true,
          "internalType": "address",
          "name": "account",
          "type": "address"
        },
        {
          "indexed": true,
          "internalType": "address",
          "name": "sender",
          "type": "address"
        }
      ],
      "name": "RoleGranted",
      "type": "event"
    },
    {
      "anonymous": false,
      "inputs": [
        {
          "indexed": true,
          "internalType": "bytes32",
          "name": "role",
          "type": "bytes32"
        },
        {
          "indexed": true,
          "internalType": "address",
          "name": "account",
          "type": "address"
        },
        {
          "indexed": true,
          "internalType": "address",
          "name": "sender",
          "type": "address"
        }
      ],
      "name": "RoleRevoked",
      "type": "event"
    },
    {
      "anonymous": false,
      "inputs": [
        {
          "indexed": true,
          "internalType": "address",
          "name": "implementation",
          "type": "address"
        }
      ],
      "name": "Upgraded",
      "type": "event"
    },
    {
      "inputs": [],
      "name": "DEFAULT_ADMIN_ROLE",
      "outputs": [
        {
          "internalType": "bytes32",
          "name": "",
          "type": "bytes32"
        }
      ],
      "stateMutability": "view",
      "type": "function"
    },
    {
      "inputs": [],
      "name": "GUARDIAN_ROLE",
      "outputs": [
        {
          "internalType": "bytes32",
          "name": "",
          "type": "bytes32"
        }
      ],
      "stateMutability": "view",
      "type": "function"
    },
    {
      "inputs": [],
      "name": "OWNER_ROLE",
      "outputs": [
        {
          "internalType": "bytes32",
          "name": "",
          "type": "bytes32"
        }
      ],
      "stateMutability": "view",
      "type": "function"
    },
    {
      "inputs": [],
      "name": "entryPoint",
      "outputs": [
        {
          "internalType": "address",
          "name": "",
          "type": "address"
        }
      ],
      "stateMutability": "view",
      "type": "function"
    },
    {
      "inputs": [
        {
          "internalType": "address",
          "name": "to",
          "type": "address"
        },
        {
          "internalType": "uint256",
          "name": "value",
          "type": "uint256"
        },
        {
          "internalType": "bytes",
          "name": "data",
          "type": "bytes"
        }
      ],
      "name": "executeUserOp",
      "outputs": [],
      "stateMutability": "nonpayable",
      "type": "function"
    },
    {
      "inputs": [],
      "name": "getCurrentImplementation",
      "outputs": [
        {
          "internalType": "address",
          "name": "",
          "type": "address"
        }
      ],
      "stateMutability": "view",
      "type": "function"
    },
    {
      "inputs": [
        {
          "internalType": "uint256",
          "name": "index",
          "type": "uint256"
        }
      ],
      "name": "getGuardian",
      "outputs": [
        {
          "internalType": "address",
          "name": "",
          "type": "address"
        }
      ],
      "stateMutability": "view",
      "type": "function"
    },
    {
      "inputs": [],
      "name": "getGuardianCount",
      "outputs": [
        {
          "internalType": "uint256",
          "name": "",
          "type": "uint256"
        }
      ],
      "stateMutability": "view",
      "type": "function"
    },
    {
      "inputs": [
        {
          "internalType": "uint256",
          "name": "index",
          "type": "uint256"
        }
      ],
      "name": "getOwner",
      "outputs": [
        {
          "internalType": "address",
          "name": "",
          "type": "address"
        }
      ],
      "stateMutability": "view",
      "type": "function"
    },
    {
      "inputs": [],
      "name": "getOwnerCount",
      "outputs": [
        {
          "internalType": "uint256",
          "name": "",
          "type": "uint256"
        }
      ],
      "stateMutability": "view",
      "type": "function"
    },
    {
      "inputs": [
        {
          "internalType": "bytes32",
          "name": "role",
          "type": "bytes32"
        }
      ],
      "name": "getRoleAdmin",
      "outputs": [
        {
          "internalType": "bytes32",
          "name": "",
          "type": "bytes32"
        }
      ],
      "stateMutability": "view",
      "type": "function"
    },
    {
      "inputs": [
        {
          "internalType": "bytes32",
          "name": "role",
          "type": "bytes32"
        },
        {
          "internalType": "uint256",
          "name": "index",
          "type": "uint256"
        }
      ],
      "name": "getRoleMember",
      "outputs": [
        {
          "internalType": "address",
          "name": "",
          "type": "address"
        }
      ],
      "stateMutability": "view",
      "type": "function"
    },
    {
      "inputs": [
        {
          "internalType": "bytes32",
          "name": "role",
          "type": "bytes32"
        }
      ],
      "name": "getRoleMemberCount",
      "outputs": [
        {
          "internalType": "uint256",
          "name": "",
          "type": "uint256"
        }
      ],
      "stateMutability": "view",
      "type": "function"
    },
    {
      "inputs": [
        {
          "internalType": "address",
          "name": "guardian",
          "type": "address"
        }
      ],
      "name": "grantGuardian",
      "outputs": [],
      "stateMutability": "nonpayable",
      "type": "function"
    },
    {
      "inputs": [
        {
          "internalType": "bytes32",
          "name": "role",
          "type": "bytes32"
        },
        {
          "internalType": "address",
          "name": "account",
          "type": "address"
        }
      ],
      "name": "grantRole",
      "outputs": [],
      "stateMutability": "nonpayable",
      "type": "function"
    },
    {
      "inputs": [
        {
          "internalType": "bytes32",
          "name": "role",
          "type": "bytes32"
        },
        {
          "internalType": "address",
          "name": "account",
          "type": "address"
        }
      ],
      "name": "hasRole",
      "outputs": [
        {
          "internalType": "bool",
          "name": "",
          "type": "bool"
        }
      ],
      "stateMutability": "view",
      "type": "function"
    },
    {
      "inputs": [
        {
          "internalType": "address",
          "name": "_entryPoint",
          "type": "address"
        },
        {
          "internalType": "address",
          "name": "_owner",
          "type": "address"
        },
        {
          "internalType": "address[]",
          "name": "_guardians",
          "type": "address[]"
        }
      ],
      "name": "initialize",
      "outputs": [],
      "stateMutability": "nonpayable",
      "type": "function"
    },
    {
      "inputs": [
        {
          "internalType": "bytes32",
          "name": "hash",
          "type": "bytes32"
        },
        {
          "internalType": "bytes",
          "name": "signature",
          "type": "bytes"
        }
      ],
      "name": "isValidSignature",
      "outputs": [
        {
          "internalType": "bytes4",
          "name": "",
          "type": "bytes4"
        }
      ],
      "stateMutability": "view",
      "type": "function"
    },
    {
      "inputs": [],
      "name": "nonce",
      "outputs": [
        {
          "internalType": "uint256",
          "name": "",
          "type": "uint256"
        }
      ],
      "stateMutability": "view",
      "type": "function"
    },
    {
      "inputs": [
        {
          "internalType": "enum PostOpMode",
          "name": "mode",
          "type": "uint8"
        },
        {
          "internalType": "bytes",
          "name": "context",
          "type": "bytes"
        },
        {
          "internalType": "uint256",
          "name": "actualGasCost",
          "type": "uint256"
        }
      ],
      "name": "postOp",
      "outputs": [],
      "stateMutability": "nonpayable",
      "type": "function"
    },
    {
      "inputs": [],
      "name": "proxiableUUID",
      "outputs": [
        {
          "internalType": "bytes32",
          "name": "",
          "type": "bytes32"
        }
      ],
      "stateMutability": "view",
      "type": "function"
    },
    {
      "inputs": [
        {
          "internalType": "bytes32",
          "name": "role",
          "type": "bytes32"
        },
        {
          "internalType": "address",
          "name": "account",
          "type": "address"
        }
      ],
      "name": "renounceRole",
      "outputs": [],
      "stateMutability": "nonpayable",
      "type": "function"
    },
    {
      "inputs": [
        {
          "internalType": "address",
          "name": "guardian",
          "type": "address"
        }
      ],
      "name": "revokeGuardian",
      "outputs": [],
      "stateMutability": "nonpayable",
      "type": "function"
    },
    {
      "inputs": [
        {
          "internalType": "bytes32",
          "name": "role",
          "type": "bytes32"
        },
        {
          "internalType": "address",
          "name": "account",
          "type": "address"
        }
      ],
      "name": "revokeRole",
      "outputs": [],
      "stateMutability": "nonpayable",
      "type": "function"
    },
    {
      "inputs": [
        {
          "internalType": "bytes4",
          "name": "interfaceId",
          "type": "bytes4"
        }
      ],
      "name": "supportsInterface",
      "outputs": [
        {
          "internalType": "bool",
          "name": "",
          "type": "bool"
        }
      ],
      "stateMutability": "view",
      "type": "function"
    },
    {
      "inputs": [
        {
          "internalType": "address",
          "name": "newOwner",
          "type": "address"
        }
      ],
      "name": "transferOwner",
      "outputs": [],
      "stateMutability": "nonpayable",
      "type": "function"
    },
    {
      "inputs": [
        {
          "internalType": "address",
          "name": "newImplementation",
          "type": "address"
        }
      ],
      "name": "upgradeTo",
      "outputs": [],
      "stateMutability": "nonpayable",
      "type": "function"
    },
    {
      "inputs": [
        {
          "internalType": "address",
          "name": "newImplementation",
          "type": "address"
        },
        {
          "internalType": "bytes",
          "name": "data",
          "type": "bytes"
        }
      ],
      "name": "upgradeToAndCall",
      "outputs": [],
      "stateMutability": "payable",
      "type": "function"
    },
    {
      "inputs": [
        {
          "components": [
            {
              "internalType": "address",
              "name": "sender",
              "type": "address"
            },
            {
              "internalType": "uint256",
              "name": "nonce",
              "type": "uint256"
            },
            {
              "internalType": "bytes",
              "name": "initCode",
              "type": "bytes"
            },
            {
              "internalType": "bytes",
              "name": "callData",
              "type": "bytes"
            },
            {
              "internalType": "uint256",
              "name": "callGas",
              "type": "uint256"
            },
            {
              "internalType": "uint256",
              "name": "verificationGas",
              "type": "uint256"
            },
            {
              "internalType": "uint256",
              "name": "preVerificationGas",
              "type": "uint256"
            },
            {
              "internalType": "uint256",
              "name": "maxFeePerGas",
              "type": "uint256"
            },
            {
              "internalType": "uint256",
              "name": "maxPriorityFeePerGas",
              "type": "uint256"
            },
            {
              "internalType": "address",
              "name": "paymaster",
              "type": "address"
            },
            {
              "internalType": "bytes",
              "name": "paymasterData",
              "type": "bytes"
            },
            {
              "internalType": "bytes",
              "name": "signature",
              "type": "bytes"
            }
          ],
          "internalType": "struct UserOperation",
          "name": "userOp",
          "type": "tuple"
        },
        {
          "internalType": "uint256",
          "name": "maxcost",
          "type": "uint256"
        }
      ],
      "name": "validatePaymasterUserOp",
      "outputs": [
        {
          "internalType": "bytes",
          "name": "context",
          "type": "bytes"
        }
      ],
      "stateMutability": "view",
      "type": "function"
    },
    {
      "inputs": [
        {
          "components": [
            {
              "internalType": "address",
              "name": "sender",
              "type": "address"
            },
            {
              "internalType": "uint256",
              "name": "nonce",
              "type": "uint256"
            },
            {
              "internalType": "bytes",
              "name": "initCode",
              "type": "bytes"
            },
            {
              "internalType": "bytes",
              "name": "callData",
              "type": "bytes"
            },
            {
              "internalType": "uint256",
              "name": "callGas",
              "type": "uint256"
            },
            {
              "internalType": "uint256",
              "name": "verificationGas",
              "type": "uint256"
            },
            {
              "internalType": "uint256",
              "name": "preVerificationGas",
              "type": "uint256"
            },
            {
              "internalType": "uint256",
              "name": "maxFeePerGas",
              "type": "uint256"
            },
            {
              "internalType": "uint256",
              "name": "maxPriorityFeePerGas",
              "type": "uint256"
            },
            {
              "internalType": "address",
              "name": "paymaster",
              "type": "address"
            },
            {
              "internalType": "bytes",
              "name": "paymasterData",
              "type": "bytes"
            },
            {
              "internalType": "bytes",
              "name": "signature",
              "type": "bytes"
            }
          ],
          "internalType": "struct UserOperation",
          "name": "userOp",
          "type": "tuple"
        },
        {
          "internalType": "bytes32",
          "name": "requestId",
          "type": "bytes32"
        },
        {
          "internalType": "uint256",
          "name": "requiredPrefund",
          "type": "uint256"
        }
      ],
      "name": "validateUserOp",
      "outputs": [],
      "stateMutability": "nonpayable",
      "type": "function"
    },
    {
      "stateMutability": "payable",
      "type": "receive"
    }
  ],
  "bytecode": "0x60a0604052306080523480156200001557600080fd5b50600054610100900460ff16620000335760005460ff16156200003d565b6200003d620000e2565b620000a55760405162461bcd60e51b815260206004820152602e60248201527f496e697469616c697a61626c653a20636f6e747261637420697320616c72656160448201526d191e481a5b9a5d1a585b1a5e995960921b606482015260840160405180910390fd5b600054610100900460ff16158015620000c8576000805461ffff19166101011790555b8015620000db576000805461ff00191690555b506200010f565b6000620000fa306200010060201b62001c691760201c565b15905090565b6001600160a01b03163b151590565b608051614d7662000147600039600081816108560152818161090601528181610a7901528181610b290152610d170152614d766000f3fe6080604052600436106101d15760003560e01c806377a24f36116100f7578063affed0e011610095578063d547741f11610064578063d547741f146105ab578063e58378bb146105cb578063ef18374a146105e2578063fcbac1f4146105f757600080fd5b8063affed0e014610526578063b0d691fe1461053d578063c41a360a1461056b578063ca15c8731461058b57600080fd5b806394b1d2c0116100d157806394b1d2c0146104b1578063a217fddf146104d1578063a9a23409146104e6578063af648c3d1461050657600080fd5b806377a24f361461041e5780639010d07c1461043e57806391d148541461045e57600080fd5b80633659cfe61161016f5780634fb2e45d1161013e5780634fb2e45d1461039c57806352d1902d146103bc5780635765f462146103d157806367674a6f146103fe57600080fd5b80633659cfe61461033457806336aea01e146103545780634cc499d7146103695780634f1ef2861461038957600080fd5b806324ea54f4116101ab57806324ea54f4146102a157806329cca569146102b85780632f2ff15d146102f257806336568abe1461031457600080fd5b806301ffc9a7146101dd5780631626ba7e14610212578063248a9ca31461026357600080fd5b366101d857005b600080fd5b3480156101e957600080fd5b506101fd6101f8366004613e67565b610617565b60405190151581526020015b60405180910390f35b34801561021e57600080fd5b5061023261022d366004613fc7565b610673565b6040517fffffffff000000000000000000000000000000000000000000000000000000009091168152602001610209565b34801561026f57600080fd5b5061029361027e36600461400e565b600090815260c9602052604090206001015490565b604051908152602001610209565b3480156102ad57600080fd5b506102936101305481565b3480156102c457600080fd5b506102cd61071b565b60405173ffffffffffffffffffffffffffffffffffffffff9091168152602001610209565b3480156102fe57600080fd5b5061031261030d366004614049565b610760565b005b34801561032057600080fd5b5061031261032f366004614049565b61078b565b34801561034057600080fd5b5061031261034f366004614079565b61083e565b34801561036057600080fd5b50610293610a44565b34801561037557600080fd5b506102cd61038436600461400e565b610a52565b610312610397366004614096565b610a61565b3480156103a857600080fd5b506103126103b7366004614079565b610c54565b3480156103c857600080fd5b50610293610cfd565b3480156103dd57600080fd5b506103f16103ec3660046140e9565b610de9565b60405161020991906141a4565b34801561040a57600080fd5b506103126104193660046141f9565b610f11565b34801561042a57600080fd5b50610312610439366004614279565b61106e565b34801561044a57600080fd5b506102cd61045936600461433a565b611287565b34801561046a57600080fd5b506101fd610479366004614049565b600091825260c96020908152604080842073ffffffffffffffffffffffffffffffffffffffff93909316845291905290205460ff1690565b3480156104bd57600080fd5b506103126104cc366004614079565b61129f565b3480156104dd57600080fd5b50610293600081565b3480156104f257600080fd5b5061031261050136600461435c565b6113cc565b34801561051257600080fd5b50610312610521366004614079565b611606565b34801561053257600080fd5b5061029361012d5481565b34801561054957600080fd5b5061012e546102cd9073ffffffffffffffffffffffffffffffffffffffff1681565b34801561057757600080fd5b506102cd61058636600461400e565b611695565b34801561059757600080fd5b506102936105a636600461400e565b6116a4565b3480156105b757600080fd5b506103126105c6366004614049565b6116bb565b3480156105d757600080fd5b5061029361012f5481565b3480156105ee57600080fd5b506102936116e1565b34801561060357600080fd5b506103126106123660046143bc565b6116ef565b60007fffffffff0000000000000000000000000000000000000000000000000000000082167f5a05180f00000000000000000000000000000000000000000000000000000000148061066d575061066d82611c85565b92915050565b61012f54600090610688906104798585611d1c565b6106f3576040517f08c379a000000000000000000000000000000000000000000000000000000000815260206004820152601960248201527f57616c6c65743a20496e76616c6964207369676e61747572650000000000000060448201526064015b60405180910390fd5b507f1626ba7e0000000000000000000000000000000000000000000000000000000092915050565b600061075b7f360894a13ba1a3210667c828492db98dca3e2076cc3735a920a3ca505d382bbc5473ffffffffffffffffffffffffffffffffffffffff1690565b905090565b600082815260c9602052604090206001015461077c8133611d40565b6107868383611e12565b505050565b73ffffffffffffffffffffffffffffffffffffffff81163314610830576040517f08c379a000000000000000000000000000000000000000000000000000000000815260206004820152602f60248201527f416363657373436f6e74726f6c3a2063616e206f6e6c792072656e6f756e636560448201527f20726f6c657320666f722073656c66000000000000000000000000000000000060648201526084016106ea565b61083a8282611e34565b5050565b3073ffffffffffffffffffffffffffffffffffffffff7f0000000000000000000000000000000000000000000000000000000000000000161415610904576040517f08c379a000000000000000000000000000000000000000000000000000000000815260206004820152602c60248201527f46756e6374696f6e206d7573742062652063616c6c6564207468726f7567682060448201527f64656c656761746563616c6c000000000000000000000000000000000000000060648201526084016106ea565b7f000000000000000000000000000000000000000000000000000000000000000073ffffffffffffffffffffffffffffffffffffffff166109797f360894a13ba1a3210667c828492db98dca3e2076cc3735a920a3ca505d382bbc5473ffffffffffffffffffffffffffffffffffffffff1690565b73ffffffffffffffffffffffffffffffffffffffff1614610a1c576040517f08c379a000000000000000000000000000000000000000000000000000000000815260206004820152602c60248201527f46756e6374696f6e206d7573742062652063616c6c6564207468726f7567682060448201527f6163746976652070726f7879000000000000000000000000000000000000000060648201526084016106ea565b610a2581611e56565b60408051600080825260208201909252610a4191839190611ed8565b50565b600061075b610130546116a4565b600061066d6101305483611287565b3073ffffffffffffffffffffffffffffffffffffffff7f0000000000000000000000000000000000000000000000000000000000000000161415610b27576040517f08c379a000000000000000000000000000000000000000000000000000000000815260206004820152602c60248201527f46756e6374696f6e206d7573742062652063616c6c6564207468726f7567682060448201527f64656c656761746563616c6c000000000000000000000000000000000000000060648201526084016106ea565b7f000000000000000000000000000000000000000000000000000000000000000073ffffffffffffffffffffffffffffffffffffffff16610b9c7f360894a13ba1a3210667c828492db98dca3e2076cc3735a920a3ca505d382bbc5473ffffffffffffffffffffffffffffffffffffffff1690565b73ffffffffffffffffffffffffffffffffffffffff1614610c3f576040517f08c379a000000000000000000000000000000000000000000000000000000000815260206004820152602c60248201527f46756e6374696f6e206d7573742062652063616c6c6564207468726f7567682060448201527f6163746976652070726f7879000000000000000000000000000000000000000060648201526084016106ea565b610c4882611e56565b61083a82826001611ed8565b61012e5473ffffffffffffffffffffffffffffffffffffffff163314610cd6576040517f08c379a000000000000000000000000000000000000000000000000000000000815260206004820152601b60248201527f57616c6c65743a204e6f742066726f6d20456e747279506f696e74000000000060448201526064016106ea565b610cf061012f54610ceb61012f546000611287565b611e34565b610a4161012f5482611e12565b60003073ffffffffffffffffffffffffffffffffffffffff7f00000000000000000000000000000000000000000000000000000000000000001614610dc4576040517f08c379a000000000000000000000000000000000000000000000000000000000815260206004820152603860248201527f555550535570677261646561626c653a206d757374206e6f742062652063616c60448201527f6c6564207468726f7567682064656c656761746563616c6c000000000000000060648201526084016106ea565b507f360894a13ba1a3210667c828492db98dca3e2076cc3735a920a3ca505d382bbc90565b6060610dfb61012f54610479856120e6565b610e61576040517f08c379a000000000000000000000000000000000000000000000000000000000815260206004820152601c60248201527f5061796d61737465723a20496e76616c6964207369676e61747572650000000060448201526064016106ea565b610e6b8383612301565b8015610e7c5750610e7c83836123f4565b80610e8c5750610e8c8383612410565b80610e9b5750610e9b8361242c565b610f01576040517f08c379a000000000000000000000000000000000000000000000000000000000815260206004820152601760248201527f5061796d61737465723a204e6f7420617070726f76656400000000000000000060448201526064016106ea565b610f0a83612441565b9392505050565b61012e5473ffffffffffffffffffffffffffffffffffffffff163314610f93576040517f08c379a000000000000000000000000000000000000000000000000000000000815260206004820152601b60248201527f57616c6c65743a204e6f742066726f6d20456e747279506f696e74000000000060448201526064016106ea565b6000808573ffffffffffffffffffffffffffffffffffffffff16858585604051610fbe92919061440a565b60006040518083038185875af1925050503d8060008114610ffb576040519150601f19603f3d011682016040523d82523d6000602084013e611000565b606091505b5091509150816110665760448151101561101957600080fd5b60048101905080806020019051810190611033919061441a565b6040517f08c379a00000000000000000000000000000000000000000000000000000000081526004016106ea91906141a4565b505050505050565b600054610100900460ff166110895760005460ff161561108d565b303b155b611119576040517f08c379a000000000000000000000000000000000000000000000000000000000815260206004820152602e60248201527f496e697469616c697a61626c653a20636f6e747261637420697320616c72656160448201527f647920696e697469616c697a656400000000000000000000000000000000000060648201526084016106ea565b600054610100900460ff1615801561115857600080547fffffffffffffffffffffffffffffffffffffffffffffffffffffffffffff0000166101011790555b6111606124bd565b6111686124bd565b61012e80547fffffffffffffffffffffffff00000000000000000000000000000000000000001673ffffffffffffffffffffffffffffffffffffffff86161790557fb19546dff01e856fb3f010c267a7b1c60363cf8a4664e21cc89c26224620214e61012f8190557f55435dd261a4b9b3364963f7738a7a662ad9c84396d64be3365284bb7f0a504161013081905561120091612556565b61120d61012f5484611e12565b60005b82518110156112515761123f6101305484838151811061123257611232614488565b6020026020010151611e12565b80611249816144e6565b915050611210565b50801561128157600080547fffffffffffffffffffffffffffffffffffffffffffffffffffffffffffff00ff1690555b50505050565b600082815260fb60205260408120610f0a90836125a1565b61012e5473ffffffffffffffffffffffffffffffffffffffff163314611321576040517f08c379a000000000000000000000000000000000000000000000000000000000815260206004820152601b60248201527f57616c6c65743a204e6f742066726f6d20456e747279506f696e74000000000060448201526064016106ea565b61012f54600090815260c96020908152604080832073ffffffffffffffffffffffffffffffffffffffff8516845290915290205460ff16156113bf576040517f08c379a000000000000000000000000000000000000000000000000000000000815260206004820181905260248201527f57616c6c65743a204f776e65722063616e6e6f7420626520677561726469616e60448201526064016106ea565b610a416101305482611e12565b61012e5473ffffffffffffffffffffffffffffffffffffffff16331461144e576040517f08c379a000000000000000000000000000000000000000000000000000000000815260206004820152601b60248201527f57616c6c65743a204e6f742066726f6d20456e747279506f696e74000000000060448201526064016106ea565b600080808061145f8688018861451f565b935093509350935060008373ffffffffffffffffffffffffffffffffffffffff1663313ce5676040518163ffffffff1660e01b815260040160206040518083038186803b1580156114af57600080fd5b505afa1580156114c3573d6000803e3d6000fd5b505050506040513d601f19601f820116820180604052508101906114e79190614565565b6114f290600a6146a8565b905073ffffffffffffffffffffffffffffffffffffffff84166323b872dd86308561152586670de0b6b3a76400006146b7565b866115308a8e6146b7565b61153a91906146b7565b6115449190614723565b61154e9190614737565b6040517fffffffff0000000000000000000000000000000000000000000000000000000060e086901b16815273ffffffffffffffffffffffffffffffffffffffff93841660048201529290911660248301526044820152606401602060405180830381600087803b1580156115c257600080fd5b505af11580156115d6573d6000803e3d6000fd5b505050506040513d601f19601f820116820180604052508101906115fa919061474f565b50505050505050505050565b61012e5473ffffffffffffffffffffffffffffffffffffffff163314611688576040517f08c379a000000000000000000000000000000000000000000000000000000000815260206004820152601b60248201527f57616c6c65743a204e6f742066726f6d20456e747279506f696e74000000000060448201526064016106ea565b610a416101305482611e34565b600061066d61012f5483611287565b600081815260fb6020526040812061066d906125ad565b600082815260c960205260409020600101546116d78133611d40565b6107868383611e34565b600061075b61012f546116a4565b61012e5473ffffffffffffffffffffffffffffffffffffffff163314611771576040517f08c379a000000000000000000000000000000000000000000000000000000000815260206004820152601b60248201527f57616c6c65743a204e6f742066726f6d20456e747279506f696e74000000000060448201526064016106ea565b600061177c846125b7565b905060008151600181111561179357611793614771565b141561188e5761182361012f5461047983602001516000815181106117ba576117ba614488565b60200260200101516020015161181d876040517f19457468657265756d205369676e6564204d6573736167653a0a3332000000006020820152603c8101829052600090605c01604051602081830303815290604052805190602001209050919050565b90611d1c565b611889576040517f08c379a000000000000000000000000000000000000000000000000000000000815260206004820152601960248201527f57616c6c65743a20496e76616c6964206f776e6572207369670000000000000060448201526064016106ea565b611b72565b6118988483612641565b6118fe576040517f08c379a000000000000000000000000000000000000000000000000000000000815260206004820152601f60248201527f57616c6c65743a20496e76616c696420677561726469616e20616374696f6e0060448201526064016106ea565b61191461190d610130546116a4565b600261272d565b8160200151511015611982576040517f08c379a000000000000000000000000000000000000000000000000000000000815260206004820152601e60248201527f57616c6c65743a20496e73756666696369656e7420677561726469616e73000060448201526064016106ea565b60005b816020015151811015611b7057611a35826020015182815181106119ab576119ab614488565b602002602001015160000151611a0e866040517f19457468657265756d205369676e6564204d6573736167653a0a3332000000006020820152603c8101829052600090605c01604051602081830303815290604052805190602001209050919050565b84602001518481518110611a2457611a24614488565b60200260200101516020015161275f565b611a9b576040517f08c379a000000000000000000000000000000000000000000000000000000000815260206004820152601c60248201527f57616c6c65743a20496e76616c696420677561726469616e207369670000000060448201526064016106ea565b611af86101305483602001518381518110611ab857611ab8614488565b60209081029190910181015151600092835260c98252604080842073ffffffffffffffffffffffffffffffffffffffff9092168452915290205460ff1690565b611b5e576040517f08c379a000000000000000000000000000000000000000000000000000000000815260206004820152601660248201527f57616c6c65743a204e6f74206120677561726469616e0000000000000000000060448201526064016106ea565b80611b68816144e6565b915050611985565b505b836020013561012d5414611be2576040517f08c379a000000000000000000000000000000000000000000000000000000000815260206004820152601560248201527f57616c6c65743a20496e76616c6964206e6f6e6365000000000000000000000060448201526064016106ea565b8115611c4d5761012e5460405160009173ffffffffffffffffffffffffffffffffffffffff169084908381818185875af1925050503d8060008114611c43576040519150601f19603f3d011682016040523d82523d6000602084013e611c48565b606091505b505050505b61012d8054906000611c5e836144e6565b919050555050505050565b73ffffffffffffffffffffffffffffffffffffffff163b151590565b60007fffffffff0000000000000000000000000000000000000000000000000000000082167f7965db0b00000000000000000000000000000000000000000000000000000000148061066d57507f01ffc9a7000000000000000000000000000000000000000000000000000000007fffffffff0000000000000000000000000000000000000000000000000000000083161461066d565b6000806000611d2b858561294e565b91509150611d38816129be565b509392505050565b600082815260c96020908152604080832073ffffffffffffffffffffffffffffffffffffffff8516845290915290205460ff1661083a57611d988173ffffffffffffffffffffffffffffffffffffffff166014612c17565b611da3836020612c17565b604051602001611db49291906147a0565b604080517fffffffffffffffffffffffffffffffffffffffffffffffffffffffffffffffe0818403018152908290527f08c379a00000000000000000000000000000000000000000000000000000000082526106ea916004016141a4565b611e1c8282612e5a565b600082815260fb602052604090206107869082612f4e565b611e3e8282612f70565b600082815260fb60205260409020610786908261302b565b61012e5473ffffffffffffffffffffffffffffffffffffffff163314610a41576040517f08c379a000000000000000000000000000000000000000000000000000000000815260206004820152601b60248201527f57616c6c65743a204e6f742066726f6d20456e747279506f696e74000000000060448201526064016106ea565b7f4910fdfa16fed3260ed0e7147f7cc6da11a60208b5b9406d12a635614ffd91435460ff1615611f0b576107868361304d565b8273ffffffffffffffffffffffffffffffffffffffff166352d1902d6040518163ffffffff1660e01b815260040160206040518083038186803b158015611f5157600080fd5b505afa925050508015611f9f575060408051601f3d9081017fffffffffffffffffffffffffffffffffffffffffffffffffffffffffffffffe0168201909252611f9c91810190614821565b60015b61202b576040517f08c379a000000000000000000000000000000000000000000000000000000000815260206004820152602e60248201527f45524331393637557067726164653a206e657720696d706c656d656e7461746960448201527f6f6e206973206e6f74205555505300000000000000000000000000000000000060648201526084016106ea565b7f360894a13ba1a3210667c828492db98dca3e2076cc3735a920a3ca505d382bbc81146120da576040517f08c379a000000000000000000000000000000000000000000000000000000000815260206004820152602960248201527f45524331393637557067726164653a20756e737570706f727465642070726f7860448201527f6961626c6555554944000000000000000000000000000000000000000000000060648201526084016106ea565b50610786838383613157565b6000806120f28361317c565b6060810151909150610f0a9061181d61210e6020870187614079565b6020870135612120604089018961483a565b60405161212e92919061440a565b60405190819003902061214460608a018a61483a565b60405161215292919061440a565b604051809103902089608001358a60a001358b60c001358c60e001358d61010001358e6101200160208101906121889190614079565b8d600001518e602001518f604001516040516020016121e393929190928352606091821b7fffffffffffffffffffffffffffffffffffffffff0000000000000000000000009081166020850152911b16603482015260480190565b604080517fffffffffffffffffffffffffffffffffffffffffffffffffffffffffffffffe08184030181529082905280516020918201207fffffffffffffffffffffffffffffffffffffffff00000000000000000000000060609d8e1b811692840192909252603483019b909b5260548201999099526074810197909752609487019590955260b486019390935260d485019190915260f484015261011483015290931b1661013483015261014882015261016801604051602081830303815290604052805190602001206040517f19457468657265756d205369676e6564204d6573736167653a0a3332000000006020820152603c8101829052600090605c01604051602081830303815290604052805190602001209050919050565b60008061230d8461317c565b9050612319848461324e565b60208083015173ffffffffffffffffffffffffffffffffffffffff169063dd62ed3e9061234890880188614079565b6040517fffffffff0000000000000000000000000000000000000000000000000000000060e084901b16815273ffffffffffffffffffffffffffffffffffffffff909116600482015230602482015260440160206040518083038186803b1580156123b257600080fd5b505afa1580156123c6573d6000803e3d6000fd5b505050506040513d601f19601f820116820180604052508101906123ea9190614821565b1015949350505050565b60006123ff83613342565b1580610f0a5750610f0a838361344c565b600061241b83613342565b8015610f0a5750610f0a838361344c565b6000806124388361317c565b51159392505050565b6060600061244e8361317c565b905061245d6020840184614079565b816020015161246b85613507565b83516040805173ffffffffffffffffffffffffffffffffffffffff958616602082015294909316928401929092526060830152608082015260a001604051602081830303815290604052915050919050565b600054610100900460ff16612554576040517f08c379a000000000000000000000000000000000000000000000000000000000815260206004820152602b60248201527f496e697469616c697a61626c653a20636f6e7472616374206973206e6f74206960448201527f6e697469616c697a696e6700000000000000000000000000000000000000000060648201526084016106ea565b565b600082815260c96020526040808220600101805490849055905190918391839186917fbd79b86ffe0ab8e8776151514217cd7cacd52c909f66475c3af44e129f0b00ff9190a4505050565b6000610f0a83836136c2565b600061066d825490565b6040805180820190915260008152606060208201526000806125dd61016085018561483a565b8101906125ea919061489f565b9150915061260960408051808201909152600081526060602082015290565b8083600181111561261c5761261c614771565b9081600181111561262f5761262f614771565b90525060208101919091529392505050565b6000612650606084018461483a565b151590506126605750600061066d565b61266e61014084018461483a565b158015915061268257506126828383612410565b80610f0a575060408051808201909152601681527f7472616e736665724f776e6572286164647265737329000000000000000000006020909101527f4fb2e45d000000000000000000000000000000000000000000000000000000006126eb606085018561483a565b6126fa916004916000916149cd565b612703916149f7565b7fffffffff0000000000000000000000000000000000000000000000000000000016149392505050565b60006127398284614a3f565b15612745576001612748565b60005b60ff166127558385614723565b610f0a9190614737565b600080600061276e858561294e565b9092509050600081600481111561278757612787614771565b1480156127bf57508573ffffffffffffffffffffffffffffffffffffffff168273ffffffffffffffffffffffffffffffffffffffff16145b156127cf57600192505050610f0a565b6000808773ffffffffffffffffffffffffffffffffffffffff16631626ba7e60e01b8888604051602401612804929190614a53565b604080517fffffffffffffffffffffffffffffffffffffffffffffffffffffffffffffffe08184030181529181526020820180517bffffffffffffffffffffffffffffffffffffffffffffffffffffffff167fffffffff0000000000000000000000000000000000000000000000000000000090941693909317909252905161288d9190614a6c565b600060405180830381855afa9150503d80600081146128c8576040519150601f19603f3d011682016040523d82523d6000602084013e6128cd565b606091505b50915091508180156128e0575080516020145b8015612942575080517f1626ba7e000000000000000000000000000000000000000000000000000000009061291e9083016020908101908401614a88565b7fffffffff0000000000000000000000000000000000000000000000000000000016145b98975050505050505050565b6000808251604114156129855760208301516040840151606085015160001a612979878285856136ec565b945094505050506129b7565b8251604014156129af57602083015160408401516129a4868383613804565b9350935050506129b7565b506000905060025b9250929050565b60008160048111156129d2576129d2614771565b14156129db5750565b60018160048111156129ef576129ef614771565b1415612a57576040517f08c379a000000000000000000000000000000000000000000000000000000000815260206004820152601860248201527f45434453413a20696e76616c6964207369676e6174757265000000000000000060448201526064016106ea565b6002816004811115612a6b57612a6b614771565b1415612ad3576040517f08c379a000000000000000000000000000000000000000000000000000000000815260206004820152601f60248201527f45434453413a20696e76616c6964207369676e6174757265206c656e6774680060448201526064016106ea565b6003816004811115612ae757612ae7614771565b1415612b75576040517f08c379a000000000000000000000000000000000000000000000000000000000815260206004820152602260248201527f45434453413a20696e76616c6964207369676e6174757265202773272076616c60448201527f756500000000000000000000000000000000000000000000000000000000000060648201526084016106ea565b6004816004811115612b8957612b89614771565b1415610a41576040517f08c379a000000000000000000000000000000000000000000000000000000000815260206004820152602260248201527f45434453413a20696e76616c6964207369676e6174757265202776272076616c60448201527f756500000000000000000000000000000000000000000000000000000000000060648201526084016106ea565b60606000612c268360026146b7565b612c31906002614737565b67ffffffffffffffff811115612c4957612c49613e84565b6040519080825280601f01601f191660200182016040528015612c73576020820181803683370190505b5090507f300000000000000000000000000000000000000000000000000000000000000081600081518110612caa57612caa614488565b60200101907effffffffffffffffffffffffffffffffffffffffffffffffffffffffffffff1916908160001a9053507f780000000000000000000000000000000000000000000000000000000000000081600181518110612d0d57612d0d614488565b60200101907effffffffffffffffffffffffffffffffffffffffffffffffffffffffffffff1916908160001a9053506000612d498460026146b7565b612d54906001614737565b90505b6001811115612df1577f303132333435363738396162636465660000000000000000000000000000000085600f1660108110612d9557612d95614488565b1a60f81b828281518110612dab57612dab614488565b60200101907effffffffffffffffffffffffffffffffffffffffffffffffffffffffffffff1916908160001a90535060049490941c93612dea81614aa5565b9050612d57565b508315610f0a576040517f08c379a000000000000000000000000000000000000000000000000000000000815260206004820181905260248201527f537472696e67733a20686578206c656e67746820696e73756666696369656e7460448201526064016106ea565b600082815260c96020908152604080832073ffffffffffffffffffffffffffffffffffffffff8516845290915290205460ff1661083a57600082815260c96020908152604080832073ffffffffffffffffffffffffffffffffffffffff85168452909152902080547fffffffffffffffffffffffffffffffffffffffffffffffffffffffffffffff00166001179055612ef03390565b73ffffffffffffffffffffffffffffffffffffffff168173ffffffffffffffffffffffffffffffffffffffff16837f2f8788117e7eff1d82e926ec794901d17c78024a50270940304540a733656f0d60405160405180910390a45050565b6000610f0a8373ffffffffffffffffffffffffffffffffffffffff8416613856565b600082815260c96020908152604080832073ffffffffffffffffffffffffffffffffffffffff8516845290915290205460ff161561083a57600082815260c96020908152604080832073ffffffffffffffffffffffffffffffffffffffff8516808552925280832080547fffffffffffffffffffffffffffffffffffffffffffffffffffffffffffffff0016905551339285917ff6391f5c32d9c69d2a47ea670b442974b53935d1edc7fd64eb21e047a839171b9190a45050565b6000610f0a8373ffffffffffffffffffffffffffffffffffffffff84166138a5565b73ffffffffffffffffffffffffffffffffffffffff81163b6130f1576040517f08c379a000000000000000000000000000000000000000000000000000000000815260206004820152602d60248201527f455243313936373a206e657720696d706c656d656e746174696f6e206973206e60448201527f6f74206120636f6e74726163740000000000000000000000000000000000000060648201526084016106ea565b7f360894a13ba1a3210667c828492db98dca3e2076cc3735a920a3ca505d382bbc80547fffffffffffffffffffffffff00000000000000000000000000000000000000001673ffffffffffffffffffffffffffffffffffffffff92909216919091179055565b61316083613998565b60008251118061316d5750805b156107865761128183836139e5565b60408051608081018252600080825260208201819052918101829052606080820152908080806131b061014087018761483a565b8101906131bd9190614ada565b935093509350935061321c604051806080016040528060008152602001600073ffffffffffffffffffffffffffffffffffffffff168152602001600073ffffffffffffffffffffffffffffffffffffffff168152602001606081525090565b93845273ffffffffffffffffffffffffffffffffffffffff928316602085015291166040830152606082015292915050565b60008061325a8461317c565b90506000816020015173ffffffffffffffffffffffffffffffffffffffff1663313ce5676040518163ffffffff1660e01b815260040160206040518083038186803b1580156132a857600080fd5b505afa1580156132bc573d6000803e3d6000fd5b505050506040513d601f19601f820116820180604052508101906132e09190614565565b6132eb90600a6146a8565b9050600061330182670de0b6b3a76400006146b7565b8261330b88613507565b61331590886146b7565b61331f91906146b7565b6133299190614723565b83519091506133389082614737565b9695505050505050565b600061334d82613b24565b61335957506000919050565b600061336483613bb7565b905060006133718461317c565b9050806020015173ffffffffffffffffffffffffffffffffffffffff16826000015173ffffffffffffffffffffffffffffffffffffffff161480156134445750604080518082018252601881527f617070726f766528616464726573732c75696e743235362900000000000000006020909101528201517f095ea7b300000000000000000000000000000000000000000000000000000000906134179060006004613c6c565b61342090614b46565b7fffffffff0000000000000000000000000000000000000000000000000000000016145b949350505050565b600061345783613b24565b6134635750600061066d565b600061346e84613bb7565b9050600080613493836040015160048086604001515161348e9190614b96565b613c6c565b8060200190518101906134a69190614bad565b90925090506134bd61014087016101208801614079565b73ffffffffffffffffffffffffffffffffffffffff168273ffffffffffffffffffffffffffffffffffffffff1614801561333857506134fc868661324e565b111595945050505050565b6000806135138361317c565b90506000816040015173ffffffffffffffffffffffffffffffffffffffff1663feaf968c6040518163ffffffff1660e01b815260040160a06040518083038186803b15801561356157600080fd5b505afa158015613575573d6000803e3d6000fd5b505050506040513d601f19601f820116820180604052508101906135999190614bfa565b505050915050816020015173ffffffffffffffffffffffffffffffffffffffff1663313ce5676040518163ffffffff1660e01b815260040160206040518083038186803b1580156135e957600080fd5b505afa1580156135fd573d6000803e3d6000fd5b505050506040513d601f19601f820116820180604052508101906136219190614565565b826040015173ffffffffffffffffffffffffffffffffffffffff1663313ce5676040518163ffffffff1660e01b815260040160206040518083038186803b15801561366b57600080fd5b505afa15801561367f573d6000803e3d6000fd5b505050506040513d601f19601f820116820180604052508101906136a39190614565565b6136ad9190614c4a565b6136b890600a6146a8565b6134449082614723565b60008260000182815481106136d9576136d9614488565b9060005260206000200154905092915050565b6000807f7fffffffffffffffffffffffffffffff5d576e7357a4501ddfe92f46681b20a083111561372357506000905060036137fb565b8460ff16601b1415801561373b57508460ff16601c14155b1561374c57506000905060046137fb565b6040805160008082526020820180845289905260ff881692820192909252606081018690526080810185905260019060a0016020604051602081039080840390855afa1580156137a0573d6000803e3d6000fd5b50506040517fffffffffffffffffffffffffffffffffffffffffffffffffffffffffffffffe0015191505073ffffffffffffffffffffffffffffffffffffffff81166137f4576000600192509250506137fb565b9150600090505b94509492505050565b6000807f7fffffffffffffffffffffffffffffffffffffffffffffffffffffffffffffff83168161383a60ff86901c601b614737565b9050613848878288856136ec565b935093505050935093915050565b600081815260018301602052604081205461389d5750815460018181018455600084815260208082209093018490558454848252828601909352604090209190915561066d565b50600061066d565b6000818152600183016020526040812054801561398e5760006138c9600183614b96565b85549091506000906138dd90600190614b96565b90508181146139425760008660000182815481106138fd576138fd614488565b906000526020600020015490508087600001848154811061392057613920614488565b6000918252602080832090910192909255918252600188019052604090208390555b855486908061395357613953614c6d565b60019003818190600052602060002001600090559055856001016000868152602001908152602001600020600090556001935050505061066d565b600091505061066d565b6139a18161304d565b60405173ffffffffffffffffffffffffffffffffffffffff8216907fbc7cd75a20ee27fd9adebab32041f755214dbc6bffa90cc0225b39da2e5c2d3b90600090a250565b606073ffffffffffffffffffffffffffffffffffffffff83163b613a8b576040517f08c379a000000000000000000000000000000000000000000000000000000000815260206004820152602660248201527f416464726573733a2064656c65676174652063616c6c20746f206e6f6e2d636f60448201527f6e7472616374000000000000000000000000000000000000000000000000000060648201526084016106ea565b6000808473ffffffffffffffffffffffffffffffffffffffff1684604051613ab39190614a6c565b600060405180830381855af49150503d8060008114613aee576040519150601f19603f3d011682016040523d82523d6000602084013e613af3565b606091505b5091509150613b1b8282604051806060016040528060278152602001614d1a60279139613de6565b95945050505050565b6000604051806060016040528060248152602001614cf66024913980516020909101207fffffffff0000000000000000000000000000000000000000000000000000000016613b76606084018461483a565b613b85916004916000916149cd565b613b8e916149f7565b7fffffffff00000000000000000000000000000000000000000000000000000000161492915050565b6040805160608082018352600080835260208301529181019190915260008080613be4606086018661483a565b613bf29160049082906149cd565b810190613bff9190614c9c565b925092509250613c3f6040518060600160405280600073ffffffffffffffffffffffffffffffffffffffff16815260200160008152602001606081525090565b73ffffffffffffffffffffffffffffffffffffffff90931683526020830191909152604082015292915050565b606081613c7a81601f614737565b1015613ce2576040517f08c379a000000000000000000000000000000000000000000000000000000000815260206004820152600e60248201527f736c6963655f6f766572666c6f7700000000000000000000000000000000000060448201526064016106ea565b613cec8284614737565b84511015613d56576040517f08c379a000000000000000000000000000000000000000000000000000000000815260206004820152601160248201527f736c6963655f6f75744f66426f756e647300000000000000000000000000000060448201526064016106ea565b606082158015613d755760405191506000825260208201604052613ddd565b6040519150601f8416801560200281840101858101878315602002848b0101015b81831015613dae578051835260209283019201613d96565b5050858452601f017fffffffffffffffffffffffffffffffffffffffffffffffffffffffffffffffe016604052505b50949350505050565b60608315613df5575081610f0a565b825115613e055782518084602001fd5b816040517f08c379a00000000000000000000000000000000000000000000000000000000081526004016106ea91906141a4565b7fffffffff0000000000000000000000000000000000000000000000000000000081168114610a4157600080fd5b600060208284031215613e7957600080fd5b8135610f0a81613e39565b7f4e487b7100000000000000000000000000000000000000000000000000000000600052604160045260246000fd5b6040805190810167ffffffffffffffff81118282101715613ed657613ed6613e84565b60405290565b604051601f82017fffffffffffffffffffffffffffffffffffffffffffffffffffffffffffffffe016810167ffffffffffffffff81118282101715613f2357613f23613e84565b604052919050565b600067ffffffffffffffff821115613f4557613f45613e84565b50601f017fffffffffffffffffffffffffffffffffffffffffffffffffffffffffffffffe01660200190565b600082601f830112613f8257600080fd5b8135613f95613f9082613f2b565b613edc565b818152846020838601011115613faa57600080fd5b816020850160208301376000918101602001919091529392505050565b60008060408385031215613fda57600080fd5b82359150602083013567ffffffffffffffff811115613ff857600080fd5b61400485828601613f71565b9150509250929050565b60006020828403121561402057600080fd5b5035919050565b73ffffffffffffffffffffffffffffffffffffffff81168114610a4157600080fd5b6000806040838503121561405c57600080fd5b82359150602083013561406e81614027565b809150509250929050565b60006020828403121561408b57600080fd5b8135610f0a81614027565b600080604083850312156140a957600080fd5b82356140b481614027565b9150602083013567ffffffffffffffff811115613ff857600080fd5b600061018082840312156140e357600080fd5b50919050565b600080604083850312156140fc57600080fd5b823567ffffffffffffffff81111561411357600080fd5b61411f858286016140d0565b95602094909401359450505050565b60005b83811015614149578181015183820152602001614131565b838111156112815750506000910152565b6000815180845261417281602086016020860161412e565b601f017fffffffffffffffffffffffffffffffffffffffffffffffffffffffffffffffe0169290920160200192915050565b602081526000610f0a602083018461415a565b60008083601f8401126141c957600080fd5b50813567ffffffffffffffff8111156141e157600080fd5b6020830191508360208285010111156129b757600080fd5b6000806000806060858703121561420f57600080fd5b843561421a81614027565b935060208501359250604085013567ffffffffffffffff81111561423d57600080fd5b614249878288016141b7565b95989497509550505050565b600067ffffffffffffffff82111561426f5761426f613e84565b5060051b60200190565b60008060006060848603121561428e57600080fd5b833561429981614027565b92506020848101356142aa81614027565b9250604085013567ffffffffffffffff8111156142c657600080fd5b8501601f810187136142d757600080fd5b80356142e5613f9082614255565b81815260059190911b8201830190838101908983111561430457600080fd5b928401925b8284101561432b57833561431c81614027565b82529284019290840190614309565b80955050505050509250925092565b6000806040838503121561434d57600080fd5b50508035926020909101359150565b6000806000806060858703121561437257600080fd5b84356003811061438157600080fd5b9350602085013567ffffffffffffffff81111561439d57600080fd5b6143a9878288016141b7565b9598909750949560400135949350505050565b6000806000606084860312156143d157600080fd5b833567ffffffffffffffff8111156143e857600080fd5b6143f4868287016140d0565b9660208601359650604090950135949350505050565b8183823760009101908152919050565b60006020828403121561442c57600080fd5b815167ffffffffffffffff81111561444357600080fd5b8201601f8101841361445457600080fd5b8051614462613f9082613f2b565b81815285602083850101111561447757600080fd5b613b1b82602083016020860161412e565b7f4e487b7100000000000000000000000000000000000000000000000000000000600052603260045260246000fd5b7f4e487b7100000000000000000000000000000000000000000000000000000000600052601160045260246000fd5b60007fffffffffffffffffffffffffffffffffffffffffffffffffffffffffffffffff821415614518576145186144b7565b5060010190565b6000806000806080858703121561453557600080fd5b843561454081614027565b9350602085013561455081614027565b93969395505050506040820135916060013590565b60006020828403121561457757600080fd5b815160ff81168114610f0a57600080fd5b600181815b808511156145e157817fffffffffffffffffffffffffffffffffffffffffffffffffffffffffffffffff048211156145c7576145c76144b7565b808516156145d457918102915b93841c939080029061458d565b509250929050565b6000826145f85750600161066d565b816146055750600061066d565b816001811461461b576002811461462557614641565b600191505061066d565b60ff841115614636576146366144b7565b50506001821b61066d565b5060208310610133831016604e8410600b8410161715614664575081810a61066d565b61466e8383614588565b807fffffffffffffffffffffffffffffffffffffffffffffffffffffffffffffffff048211156146a0576146a06144b7565b029392505050565b6000610f0a60ff8416836145e9565b6000817fffffffffffffffffffffffffffffffffffffffffffffffffffffffffffffffff04831182151516156146ef576146ef6144b7565b500290565b7f4e487b7100000000000000000000000000000000000000000000000000000000600052601260045260246000fd5b600082614732576147326146f4565b500490565b6000821982111561474a5761474a6144b7565b500190565b60006020828403121561476157600080fd5b81518015158114610f0a57600080fd5b7f4e487b7100000000000000000000000000000000000000000000000000000000600052602160045260246000fd5b7f416363657373436f6e74726f6c3a206163636f756e74200000000000000000008152600083516147d881601785016020880161412e565b7f206973206d697373696e6720726f6c6520000000000000000000000000000000601791840191820152835161481581602884016020880161412e565b01602801949350505050565b60006020828403121561483357600080fd5b5051919050565b60008083357fffffffffffffffffffffffffffffffffffffffffffffffffffffffffffffffe184360301811261486f57600080fd5b83018035915067ffffffffffffffff82111561488a57600080fd5b6020019150368190038213156129b757600080fd5b60008060408084860312156148b357600080fd5b8335600281106148c257600080fd5b925060208481013567ffffffffffffffff808211156148e057600080fd5b818701915087601f8301126148f457600080fd5b8135614902613f9082614255565b81815260059190911b8301840190848101908a83111561492157600080fd5b8585015b838110156149bb5780358581111561493d5760008081fd5b8601808d037fffffffffffffffffffffffffffffffffffffffffffffffffffffffffffffffe0018913156149715760008081fd5b614979613eb3565b8882013561498681614027565b8152818a01358781111561499a5760008081fd5b6149a88f8b83860101613f71565b828b015250845250918601918601614925565b50809750505050505050509250929050565b600080858511156149dd57600080fd5b838611156149ea57600080fd5b5050820193919092039150565b7fffffffff000000000000000000000000000000000000000000000000000000008135818116916004851015614a375780818660040360031b1b83161692505b505092915050565b600082614a4e57614a4e6146f4565b500690565b828152604060208201526000613444604083018461415a565b60008251614a7e81846020870161412e565b9190910192915050565b600060208284031215614a9a57600080fd5b8151610f0a81613e39565b600081614ab457614ab46144b7565b507fffffffffffffffffffffffffffffffffffffffffffffffffffffffffffffffff0190565b60008060008060808587031215614af057600080fd5b843593506020850135614b0281614027565b92506040850135614b1281614027565b9150606085013567ffffffffffffffff811115614b2e57600080fd5b614b3a87828801613f71565b91505092959194509250565b6000815160208301517fffffffff0000000000000000000000000000000000000000000000000000000080821693506004831015614b8e5780818460040360031b1b83161693505b505050919050565b600082821015614ba857614ba86144b7565b500390565b60008060408385031215614bc057600080fd5b8251614bcb81614027565b6020939093015192949293505050565b805169ffffffffffffffffffff81168114614bf557600080fd5b919050565b600080600080600060a08688031215614c1257600080fd5b614c1b86614bdb565b9450602086015193506040860151925060608601519150614c3e60808701614bdb565b90509295509295909350565b600060ff821660ff841680821015614c6457614c646144b7565b90039392505050565b7f4e487b7100000000000000000000000000000000000000000000000000000000600052603160045260246000fd5b600080600060608486031215614cb157600080fd5b8335614cbc81614027565b925060208401359150604084013567ffffffffffffffff811115614cdf57600080fd5b614ceb86828701613f71565b915050925092509256fe65786563757465557365724f7028616464726573732c75696e743235362c627974657329416464726573733a206c6f772d6c6576656c2064656c65676174652063616c6c206661696c6564a2646970667358221220b56c8cd515b29d2dcf4a72a9d8203af92b9e3e25a45b107983bd4fd76af162ec64736f6c63430008090033",
  "linkReferences": {},
  "deployedLinkReferences": {}
}