{
    "_format": "hh-sol-artifact-1",
    "contractName": "Wallet",
    "sourceName": "contracts/wallet/Wallet.sol",
    "abi": [
        {
            "inputs": [
                {
                    "internalType": "address",
                    "name": "entryPoint",
                    "type": "address"
                }
            ],
            "stateMutability": "nonpayable",
            "type": "constructor"
        },
        {
            "anonymous": false,
            "inputs": [
                {
                    "indexed": false,
                    "internalType": "address",
                    "name": "previousAdmin",
                    "type": "address"
                },
                {
                    "indexed": false,
                    "internalType": "address",
                    "name": "newAdmin",
                    "type": "address"
                }
            ],
            "name": "AdminChanged",
            "type": "event"
        },
        {
            "anonymous": false,
            "inputs": [
                {
                    "indexed": true,
                    "internalType": "address",
                    "name": "beacon",
                    "type": "address"
                }
            ],
            "name": "BeaconUpgraded",
            "type": "event"
        },
        {
            "anonymous": false,
            "inputs": [
                {
                    "indexed": false,
                    "internalType": "uint8",
                    "name": "version",
                    "type": "uint8"
                }
            ],
            "name": "Initialized",
            "type": "event"
        },
        {
            "anonymous": false,
            "inputs": [
                {
                    "indexed": true,
                    "internalType": "bytes32",
                    "name": "role",
                    "type": "bytes32"
                },
                {
                    "indexed": true,
                    "internalType": "bytes32",
                    "name": "previousAdminRole",
                    "type": "bytes32"
                },
                {
                    "indexed": true,
                    "internalType": "bytes32",
                    "name": "newAdminRole",
                    "type": "bytes32"
                }
            ],
            "name": "RoleAdminChanged",
            "type": "event"
        },
        {
            "anonymous": false,
            "inputs": [
                {
                    "indexed": true,
                    "internalType": "bytes32",
                    "name": "role",
                    "type": "bytes32"
                },
                {
                    "indexed": true,
                    "internalType": "address",
                    "name": "account",
                    "type": "address"
                },
                {
                    "indexed": true,
                    "internalType": "address",
                    "name": "sender",
                    "type": "address"
                }
            ],
            "name": "RoleGranted",
            "type": "event"
        },
        {
            "anonymous": false,
            "inputs": [
                {
                    "indexed": true,
                    "internalType": "bytes32",
                    "name": "role",
                    "type": "bytes32"
                },
                {
                    "indexed": true,
                    "internalType": "address",
                    "name": "account",
                    "type": "address"
                },
                {
                    "indexed": true,
                    "internalType": "address",
                    "name": "sender",
                    "type": "address"
                }
            ],
            "name": "RoleRevoked",
            "type": "event"
        },
        {
            "anonymous": false,
            "inputs": [
                {
                    "indexed": true,
                    "internalType": "address",
                    "name": "implementation",
                    "type": "address"
                }
            ],
            "name": "Upgraded",
            "type": "event"
        },
        {
            "inputs": [],
            "name": "DEFAULT_ADMIN_ROLE",
            "outputs": [
                {
                    "internalType": "bytes32",
                    "name": "",
                    "type": "bytes32"
                }
            ],
            "stateMutability": "view",
            "type": "function"
        },
        {
            "inputs": [],
            "name": "GUARDIAN_ROLE",
            "outputs": [
                {
                    "internalType": "bytes32",
                    "name": "",
                    "type": "bytes32"
                }
            ],
            "stateMutability": "view",
            "type": "function"
        },
        {
            "inputs": [],
            "name": "OWNER_ROLE",
            "outputs": [
                {
                    "internalType": "bytes32",
                    "name": "",
                    "type": "bytes32"
                }
            ],
            "stateMutability": "view",
            "type": "function"
        },
        {
            "inputs": [],
            "name": "entryPoint",
            "outputs": [
                {
                    "internalType": "address",
                    "name": "",
                    "type": "address"
                }
            ],
            "stateMutability": "view",
            "type": "function"
        },
        {
            "inputs": [
                {
                    "internalType": "address",
                    "name": "to",
                    "type": "address"
                },
                {
                    "internalType": "uint256",
                    "name": "value",
                    "type": "uint256"
                },
                {
                    "internalType": "bytes",
                    "name": "data",
                    "type": "bytes"
                }
            ],
            "name": "executeUserOp",
            "outputs": [],
            "stateMutability": "nonpayable",
            "type": "function"
        },
        {
            "inputs": [],
            "name": "getCurrentImplementation",
            "outputs": [
                {
                    "internalType": "address",
                    "name": "",
                    "type": "address"
                }
            ],
            "stateMutability": "view",
            "type": "function"
        },
        {
            "inputs": [
                {
                    "internalType": "uint256",
                    "name": "index",
                    "type": "uint256"
                }
            ],
            "name": "getGuardian",
            "outputs": [
                {
                    "internalType": "address",
                    "name": "",
                    "type": "address"
                }
            ],
            "stateMutability": "view",
            "type": "function"
        },
        {
            "inputs": [],
            "name": "getGuardiansCount",
            "outputs": [
                {
                    "internalType": "uint256",
                    "name": "",
                    "type": "uint256"
                }
            ],
            "stateMutability": "view",
            "type": "function"
        },
        {
            "inputs": [],
            "name": "getMinGuardiansSignatures",
            "outputs": [
                {
                    "internalType": "uint256",
                    "name": "",
                    "type": "uint256"
                }
            ],
            "stateMutability": "view",
            "type": "function"
        },
        {
            "inputs": [
                {
                    "internalType": "uint256",
                    "name": "index",
                    "type": "uint256"
                }
            ],
            "name": "getOwner",
            "outputs": [
                {
                    "internalType": "address",
                    "name": "",
                    "type": "address"
                }
            ],
            "stateMutability": "view",
            "type": "function"
        },
        {
            "inputs": [],
            "name": "getOwnersCount",
            "outputs": [
                {
                    "internalType": "uint256",
                    "name": "",
                    "type": "uint256"
                }
            ],
            "stateMutability": "view",
            "type": "function"
        },
        {
            "inputs": [
                {
                    "internalType": "bytes32",
                    "name": "role",
                    "type": "bytes32"
                }
            ],
            "name": "getRoleAdmin",
            "outputs": [
                {
                    "internalType": "bytes32",
                    "name": "",
                    "type": "bytes32"
                }
            ],
            "stateMutability": "view",
            "type": "function"
        },
        {
            "inputs": [
                {
                    "internalType": "bytes32",
                    "name": "role",
                    "type": "bytes32"
                },
                {
                    "internalType": "uint256",
                    "name": "index",
                    "type": "uint256"
                }
            ],
            "name": "getRoleMember",
            "outputs": [
                {
                    "internalType": "address",
                    "name": "",
                    "type": "address"
                }
            ],
            "stateMutability": "view",
            "type": "function"
        },
        {
            "inputs": [
                {
                    "internalType": "bytes32",
                    "name": "role",
                    "type": "bytes32"
                }
            ],
            "name": "getRoleMemberCount",
            "outputs": [
                {
                    "internalType": "uint256",
                    "name": "",
                    "type": "uint256"
                }
            ],
            "stateMutability": "view",
            "type": "function"
        },
        {
            "inputs": [
                {
                    "internalType": "address",
                    "name": "account",
                    "type": "address"
                }
            ],
            "name": "grantGuardian",
            "outputs": [],
            "stateMutability": "nonpayable",
            "type": "function"
        },
        {
            "inputs": [
                {
                    "internalType": "bytes32",
                    "name": "role",
                    "type": "bytes32"
                },
                {
                    "internalType": "address",
                    "name": "account",
                    "type": "address"
                }
            ],
            "name": "grantRole",
            "outputs": [],
            "stateMutability": "nonpayable",
            "type": "function"
        },
        {
            "inputs": [
                {
                    "internalType": "bytes32",
                    "name": "role",
                    "type": "bytes32"
                },
                {
                    "internalType": "address",
                    "name": "account",
                    "type": "address"
                }
            ],
            "name": "hasRole",
            "outputs": [
                {
                    "internalType": "bool",
                    "name": "",
                    "type": "bool"
                }
            ],
            "stateMutability": "view",
            "type": "function"
        },
        {
            "inputs": [
                {
                    "internalType": "address",
                    "name": "_owner",
                    "type": "address"
                },
                {
                    "internalType": "address[]",
                    "name": "_guardians",
                    "type": "address[]"
                }
            ],
            "name": "initialize",
            "outputs": [],
            "stateMutability": "nonpayable",
            "type": "function"
        },
        {
            "inputs": [
                {
                    "internalType": "address",
                    "name": "account",
                    "type": "address"
                }
            ],
            "name": "isGuardian",
            "outputs": [
                {
                    "internalType": "bool",
                    "name": "",
                    "type": "bool"
                }
            ],
            "stateMutability": "view",
            "type": "function"
        },
        {
            "inputs": [
                {
                    "internalType": "address",
                    "name": "account",
                    "type": "address"
                }
            ],
            "name": "isOwner",
            "outputs": [
                {
                    "internalType": "bool",
                    "name": "",
                    "type": "bool"
                }
            ],
            "stateMutability": "view",
            "type": "function"
        },
        {
            "inputs": [
                {
                    "internalType": "address",
                    "name": "account",
                    "type": "address"
                }
            ],
            "name": "isSenderAllowed",
            "outputs": [
                {
                    "internalType": "bool",
                    "name": "",
                    "type": "bool"
                }
            ],
            "stateMutability": "view",
            "type": "function"
        },
        {
            "inputs": [
                {
                    "internalType": "bytes32",
                    "name": "hash",
                    "type": "bytes32"
                },
                {
                    "internalType": "bytes",
                    "name": "signature",
                    "type": "bytes"
                }
            ],
            "name": "isValidSignature",
            "outputs": [
                {
                    "internalType": "bytes4",
                    "name": "",
                    "type": "bytes4"
                }
            ],
            "stateMutability": "view",
            "type": "function"
        },
        {
            "inputs": [],
            "name": "nonce",
            "outputs": [
                {
                    "internalType": "uint256",
                    "name": "",
                    "type": "uint256"
                }
            ],
            "stateMutability": "view",
            "type": "function"
        },
        {
            "inputs": [
                {
                    "internalType": "enum PostOpMode",
                    "name": "mode",
                    "type": "uint8"
                },
                {
                    "internalType": "bytes",
                    "name": "context",
                    "type": "bytes"
                },
                {
                    "internalType": "uint256",
                    "name": "cost",
                    "type": "uint256"
                }
            ],
            "name": "postOp",
            "outputs": [],
            "stateMutability": "nonpayable",
            "type": "function"
        },
        {
            "inputs": [],
            "name": "proxiableUUID",
            "outputs": [
                {
                    "internalType": "bytes32",
                    "name": "",
                    "type": "bytes32"
                }
            ],
            "stateMutability": "view",
            "type": "function"
        },
        {
            "inputs": [
                {
                    "internalType": "bytes32",
                    "name": "role",
                    "type": "bytes32"
                },
                {
                    "internalType": "address",
                    "name": "account",
                    "type": "address"
                }
            ],
            "name": "renounceRole",
            "outputs": [],
            "stateMutability": "nonpayable",
            "type": "function"
        },
        {
            "inputs": [
                {
                    "internalType": "address",
                    "name": "account",
                    "type": "address"
                }
            ],
            "name": "revokeGuardian",
            "outputs": [],
            "stateMutability": "nonpayable",
            "type": "function"
        },
        {
            "inputs": [
                {
                    "internalType": "bytes32",
                    "name": "role",
                    "type": "bytes32"
                },
                {
                    "internalType": "address",
                    "name": "account",
                    "type": "address"
                }
            ],
            "name": "revokeRole",
            "outputs": [],
            "stateMutability": "nonpayable",
            "type": "function"
        },
        {
            "inputs": [
                {
                    "internalType": "bytes4",
                    "name": "interfaceId",
                    "type": "bytes4"
                }
            ],
            "name": "supportsInterface",
            "outputs": [
                {
                    "internalType": "bool",
                    "name": "",
                    "type": "bool"
                }
            ],
            "stateMutability": "view",
            "type": "function"
        },
        {
            "inputs": [
                {
                    "internalType": "address",
                    "name": "account",
                    "type": "address"
                }
            ],
            "name": "transferOwner",
            "outputs": [],
            "stateMutability": "nonpayable",
            "type": "function"
        },
        {
            "inputs": [
                {
                    "internalType": "address",
                    "name": "newImplementation",
                    "type": "address"
                }
            ],
            "name": "upgradeTo",
            "outputs": [],
            "stateMutability": "nonpayable",
            "type": "function"
        },
        {
            "inputs": [
                {
                    "internalType": "address",
                    "name": "newImplementation",
                    "type": "address"
                },
                {
                    "internalType": "bytes",
                    "name": "data",
                    "type": "bytes"
                }
            ],
            "name": "upgradeToAndCall",
            "outputs": [],
            "stateMutability": "payable",
            "type": "function"
        },
        {
            "inputs": [
                {
                    "components": [
                        {
                            "internalType": "address",
                            "name": "sender",
                            "type": "address"
                        },
                        {
                            "internalType": "uint256",
                            "name": "nonce",
                            "type": "uint256"
                        },
                        {
                            "internalType": "bytes",
                            "name": "initCode",
                            "type": "bytes"
                        },
                        {
                            "internalType": "bytes",
                            "name": "callData",
                            "type": "bytes"
                        },
                        {
                            "internalType": "uint256",
                            "name": "callGas",
                            "type": "uint256"
                        },
                        {
                            "internalType": "uint256",
                            "name": "verificationGas",
                            "type": "uint256"
                        },
                        {
                            "internalType": "uint256",
                            "name": "preVerificationGas",
                            "type": "uint256"
                        },
                        {
                            "internalType": "uint256",
                            "name": "maxFeePerGas",
                            "type": "uint256"
                        },
                        {
                            "internalType": "uint256",
                            "name": "maxPriorityFeePerGas",
                            "type": "uint256"
                        },
                        {
                            "internalType": "address",
                            "name": "paymaster",
                            "type": "address"
                        },
                        {
                            "internalType": "bytes",
                            "name": "paymasterData",
                            "type": "bytes"
                        },
                        {
                            "internalType": "bytes",
                            "name": "signature",
                            "type": "bytes"
                        }
                    ],
                    "internalType": "struct UserOperation",
                    "name": "op",
                    "type": "tuple"
                },
                {
                    "internalType": "bytes32",
                    "name": "",
                    "type": "bytes32"
                },
                {
                    "internalType": "uint256",
                    "name": "cost",
                    "type": "uint256"
                }
            ],
            "name": "validatePaymasterUserOp",
            "outputs": [
                {
                    "internalType": "bytes",
                    "name": "context",
                    "type": "bytes"
                }
            ],
            "stateMutability": "view",
            "type": "function"
        },
        {
            "inputs": [
                {
                    "components": [
                        {
                            "internalType": "address",
                            "name": "sender",
                            "type": "address"
                        },
                        {
                            "internalType": "uint256",
                            "name": "nonce",
                            "type": "uint256"
                        },
                        {
                            "internalType": "bytes",
                            "name": "initCode",
                            "type": "bytes"
                        },
                        {
                            "internalType": "bytes",
                            "name": "callData",
                            "type": "bytes"
                        },
                        {
                            "internalType": "uint256",
                            "name": "callGas",
                            "type": "uint256"
                        },
                        {
                            "internalType": "uint256",
                            "name": "verificationGas",
                            "type": "uint256"
                        },
                        {
                            "internalType": "uint256",
                            "name": "preVerificationGas",
                            "type": "uint256"
                        },
                        {
                            "internalType": "uint256",
                            "name": "maxFeePerGas",
                            "type": "uint256"
                        },
                        {
                            "internalType": "uint256",
                            "name": "maxPriorityFeePerGas",
                            "type": "uint256"
                        },
                        {
                            "internalType": "address",
                            "name": "paymaster",
                            "type": "address"
                        },
                        {
                            "internalType": "bytes",
                            "name": "paymasterData",
                            "type": "bytes"
                        },
                        {
                            "internalType": "bytes",
                            "name": "signature",
                            "type": "bytes"
                        }
                    ],
                    "internalType": "struct UserOperation",
                    "name": "op",
                    "type": "tuple"
                },
                {
                    "internalType": "bytes32",
                    "name": "requestId",
                    "type": "bytes32"
                },
                {
                    "internalType": "uint256",
                    "name": "requiredPrefund",
                    "type": "uint256"
                }
            ],
            "name": "validateUserOp",
            "outputs": [],
            "stateMutability": "nonpayable",
            "type": "function"
        },
        {
            "stateMutability": "payable",
            "type": "receive"
        }
    ],
    "bytecode": "0x60c0604052306080523480156200001557600080fd5b5060405162005b0938038062005b098339810160408190526200003891620001dc565b806000620000476001620000bb565b9050801562000060576000805461ff0019166101001790555b8015620000a7576000805461ff0019169055604051600181527f7f26b83ff96e1f2b6a682f133852f6798a09c465da95921460cefb38474024989060200160405180910390a15b506001600160a01b031660a052506200020e565b60008054610100900460ff161562000154578160ff166001148015620000f45750620000f230620001cd60201b62001b711760201c565b155b6200014c5760405162461bcd60e51b815260206004820152602e602482015260008051602062005ae983398151915260448201526d191e481a5b9a5d1a585b1a5e995960921b60648201526084015b60405180910390fd5b506000919050565b60005460ff808416911610620001b35760405162461bcd60e51b815260206004820152602e602482015260008051602062005ae983398151915260448201526d191e481a5b9a5d1a585b1a5e995960921b606482015260840162000143565b506000805460ff191660ff92909216919091179055600190565b6001600160a01b03163b151590565b600060208284031215620001ef57600080fd5b81516001600160a01b03811681146200020757600080fd5b9392505050565b60805160a05161585a6200028f6000396000818161060d015281816106f501528181610e5e015281816110e4015281816115e001528181611719015281816118500152818161199501528181611b490152611c98015260008181610a2401528181610ad401528181610c8101528181610d310152611010015261585a6000f3fe60806040526004361061021d5760003560e01c80637bfd08451161011d578063affed0e0116100b0578063ca15c8731161007f578063e58378bb11610064578063e58378bb146106a4578063efc78401146106d8578063fcbac1f41461073257600080fd5b8063ca15c87314610664578063d547741f1461068457600080fd5b8063affed0e0146105e4578063b0d691fe146105fb578063b18c24201461062f578063c41a360a1461064457600080fd5b806394b1d2c0116100ec57806394b1d2c01461056f578063a217fddf1461058f578063a9a23409146105a4578063af648c3d146105c457600080fd5b80637bfd0845146104af5780639010d07c146104dc57806391d14854146104fc578063946d92041461054f57600080fd5b806336568abe116101b05780634f1ef2861161017f57806352d1902d1161016457806352d1902d1461046557806367674a6f1461047a57806373ff81cc1461049a57600080fd5b80634f1ef286146104325780634fb2e45d1461044557600080fd5b806336568abe146103bd5780633659cfe6146103dd578063370c3089146103fd5780634cc499d71461041257600080fd5b806324ea54f4116101ec57806324ea54f41461030d57806329cca569146103415780632f2ff15d1461037b5780632f54bf6e1461039d57600080fd5b806301ffc9a7146102295780630c68ba211461025e5780631626ba7e1461027e578063248a9ca3146102cf57600080fd5b3661022457005b600080fd5b34801561023557600080fd5b506102496102443660046149d4565b610752565b60405190151581526020015b60405180910390f35b34801561026a57600080fd5b50610249610279366004614a13565b6107ae565b34801561028a57600080fd5b5061029e610299366004614b73565b6107fb565b6040517fffffffff000000000000000000000000000000000000000000000000000000009091168152602001610255565b3480156102db57600080fd5b506102ff6102ea366004614bba565b600090815260c9602052604090206001015490565b604051908152602001610255565b34801561031957600080fd5b506102ff7f55435dd261a4b9b3364963f7738a7a662ad9c84396d64be3365284bb7f0a504181565b34801561034d57600080fd5b5061035661089d565b60405173ffffffffffffffffffffffffffffffffffffffff9091168152602001610255565b34801561038757600080fd5b5061039b610396366004614bd3565b6108e2565b005b3480156103a957600080fd5b506102496103b8366004614a13565b61090c565b3480156103c957600080fd5b5061039b6103d8366004614bd3565b610959565b3480156103e957600080fd5b5061039b6103f8366004614a13565b610a0c565b34801561040957600080fd5b506102ff610c12565b34801561041e57600080fd5b5061035661042d366004614bba565b610c3d565b61039b610440366004614c03565b610c69565b34801561045157600080fd5b5061039b610460366004614a13565b610e5c565b34801561047157600080fd5b506102ff610ff6565b34801561048657600080fd5b5061039b610495366004614c7f565b6110e2565b3480156104a657600080fd5b506102ff611214565b3480156104bb57600080fd5b506104cf6104ca366004614cdb565b61123f565b6040516102559190614da5565b3480156104e857600080fd5b506103566104f7366004614db8565b611514565b34801561050857600080fd5b50610249610517366004614bd3565b600091825260c96020908152604080842073ffffffffffffffffffffffffffffffffffffffff93909316845291905290205460ff1690565b34801561055b57600080fd5b5061039b61056a366004614dfe565b61152c565b34801561057b57600080fd5b5061039b61058a366004614a13565b6115de565b34801561059b57600080fd5b506102ff600081565b3480156105b057600080fd5b5061039b6105bf366004614ead565b611717565b3480156105d057600080fd5b5061039b6105df366004614a13565b61184e565b3480156105f057600080fd5b506102ff6101915481565b34801561060757600080fd5b506103567f000000000000000000000000000000000000000000000000000000000000000081565b34801561063b57600080fd5b506102ff611917565b34801561065057600080fd5b5061035661065f366004614bba565b61192b565b34801561067057600080fd5b506102ff61067f366004614bba565b611957565b34801561069057600080fd5b5061039b61069f366004614bd3565b61196e565b3480156106b057600080fd5b506102ff7fb19546dff01e856fb3f010c267a7b1c60363cf8a4664e21cc89c26224620214e81565b3480156106e457600080fd5b506102496106f3366004614a13565b7f000000000000000000000000000000000000000000000000000000000000000073ffffffffffffffffffffffffffffffffffffffff90811691161490565b34801561073e57600080fd5b5061039b61074d366004614cdb565b611993565b60007fffffffff0000000000000000000000000000000000000000000000000000000082167f5a05180f0000000000000000000000000000000000000000000000000000000014806107a857506107a882611b8d565b92915050565b73ffffffffffffffffffffffffffffffffffffffff811660009081527f42433f30842f027234f95eef6ba52ea4eb9f1310dcea3f4c81958054d311825b602052604081205460ff166107a8565b600061080a6103b88484611c24565b610875576040517f08c379a000000000000000000000000000000000000000000000000000000000815260206004820152601660248201527f41434c3a20496e76616c6964207369676e61747572650000000000000000000060448201526064015b60405180910390fd5b507f1626ba7e0000000000000000000000000000000000000000000000000000000092915050565b60006108dd7f360894a13ba1a3210667c828492db98dca3e2076cc3735a920a3ca505d382bbc5473ffffffffffffffffffffffffffffffffffffffff1690565b905090565b600082815260c960205260409020600101546108fd81611c48565b6109078383611c52565b505050565b73ffffffffffffffffffffffffffffffffffffffff811660009081527f8b9c60e99117f5032802dca1150f0b5e8c20c85aaaf9b6948c204e6687095705602052604081205460ff166107a8565b73ffffffffffffffffffffffffffffffffffffffff811633146109fe576040517f08c379a000000000000000000000000000000000000000000000000000000000815260206004820152602f60248201527f416363657373436f6e74726f6c3a2063616e206f6e6c792072656e6f756e636560448201527f20726f6c657320666f722073656c660000000000000000000000000000000000606482015260840161086c565b610a088282611c74565b5050565b3073ffffffffffffffffffffffffffffffffffffffff7f0000000000000000000000000000000000000000000000000000000000000000161415610ad2576040517f08c379a000000000000000000000000000000000000000000000000000000000815260206004820152602c60248201527f46756e6374696f6e206d7573742062652063616c6c6564207468726f7567682060448201527f64656c656761746563616c6c0000000000000000000000000000000000000000606482015260840161086c565b7f000000000000000000000000000000000000000000000000000000000000000073ffffffffffffffffffffffffffffffffffffffff16610b477f360894a13ba1a3210667c828492db98dca3e2076cc3735a920a3ca505d382bbc5473ffffffffffffffffffffffffffffffffffffffff1690565b73ffffffffffffffffffffffffffffffffffffffff1614610bea576040517f08c379a000000000000000000000000000000000000000000000000000000000815260206004820152602c60248201527f46756e6374696f6e206d7573742062652063616c6c6564207468726f7567682060448201527f6163746976652070726f78790000000000000000000000000000000000000000606482015260840161086c565b610bf381611c96565b60408051600080825260208201909252610c0f91839190611d35565b50565b60006108dd7f55435dd261a4b9b3364963f7738a7a662ad9c84396d64be3365284bb7f0a5041611957565b60006107a87f55435dd261a4b9b3364963f7738a7a662ad9c84396d64be3365284bb7f0a504183611514565b3073ffffffffffffffffffffffffffffffffffffffff7f0000000000000000000000000000000000000000000000000000000000000000161415610d2f576040517f08c379a000000000000000000000000000000000000000000000000000000000815260206004820152602c60248201527f46756e6374696f6e206d7573742062652063616c6c6564207468726f7567682060448201527f64656c656761746563616c6c0000000000000000000000000000000000000000606482015260840161086c565b7f000000000000000000000000000000000000000000000000000000000000000073ffffffffffffffffffffffffffffffffffffffff16610da47f360894a13ba1a3210667c828492db98dca3e2076cc3735a920a3ca505d382bbc5473ffffffffffffffffffffffffffffffffffffffff1690565b73ffffffffffffffffffffffffffffffffffffffff1614610e47576040517f08c379a000000000000000000000000000000000000000000000000000000000815260206004820152602c60248201527f46756e6374696f6e206d7573742062652063616c6c6564207468726f7567682060448201527f6163746976652070726f78790000000000000000000000000000000000000000606482015260840161086c565b610e5082611c96565b610a0882826001611d35565b7f000000000000000000000000000000000000000000000000000000000000000073ffffffffffffffffffffffffffffffffffffffff163314610efb576040517f08c379a000000000000000000000000000000000000000000000000000000000815260206004820152601760248201527f41434c3a2073656e646572206e6f7420616c6c6f776564000000000000000000604482015260640161086c565b73ffffffffffffffffffffffffffffffffffffffff8116610f78576040517f08c379a000000000000000000000000000000000000000000000000000000000815260206004820152601960248201527f41434c3a204f776e65722063616e6e6f74206265207a65726f00000000000000604482015260640161086c565b610fcc7fb19546dff01e856fb3f010c267a7b1c60363cf8a4664e21cc89c26224620214e610fc77fb19546dff01e856fb3f010c267a7b1c60363cf8a4664e21cc89c26224620214e6000611514565b611c74565b610c0f7fb19546dff01e856fb3f010c267a7b1c60363cf8a4664e21cc89c26224620214e82611c52565b60003073ffffffffffffffffffffffffffffffffffffffff7f000000000000000000000000000000000000000000000000000000000000000016146110bd576040517f08c379a000000000000000000000000000000000000000000000000000000000815260206004820152603860248201527f555550535570677261646561626c653a206d757374206e6f742062652063616c60448201527f6c6564207468726f7567682064656c656761746563616c6c0000000000000000606482015260840161086c565b507f360894a13ba1a3210667c828492db98dca3e2076cc3735a920a3ca505d382bbc90565b7f000000000000000000000000000000000000000000000000000000000000000073ffffffffffffffffffffffffffffffffffffffff163314611181576040517f08c379a000000000000000000000000000000000000000000000000000000000815260206004820152601760248201527f41434c3a2073656e646572206e6f7420616c6c6f776564000000000000000000604482015260640161086c565b61120e82828080601f0160208091040260200160405190810160405280939291908181526020018383808284376000920191909152505060408051808201909152601881527f57616c6c65743a20457865637574696f6e206661696c65640000000000000000602082015273ffffffffffffffffffffffffffffffffffffffff8916939250879150611f43565b50505050565b60006108dd7fb19546dff01e856fb3f010c267a7b1c60363cf8a4664e21cc89c26224620214e611957565b6060600061124c85611f6c565b905060008151600181111561126357611263614f0d565b146112ca576040517f08c379a000000000000000000000000000000000000000000000000000000000815260206004820152601f60248201527f5061796d61737465723a2043616e6e6f74207369676e20677561726469616e00604482015260640161086c565b600081602001516000815181106112e3576112e3614f3c565b6020026020010151905061130881600001516112fe88611f9b565b83602001516121a7565b600061131387612287565b90506000816040015173ffffffffffffffffffffffffffffffffffffffff1663313ce5676040518163ffffffff1660e01b815260040160206040518083038186803b15801561136157600080fd5b505afa158015611375573d6000803e3d6000fd5b505050506040513d601f19601f820116820180604052508101906113999190614f6b565b905060006113ab83606001518361233c565b905060006113c38460200151838a87600001516124ad565b6040850151909150819073ffffffffffffffffffffffffffffffffffffffff166370a082316113f560208e018e614a13565b6040517fffffffff0000000000000000000000000000000000000000000000000000000060e084901b16815273ffffffffffffffffffffffffffffffffffffffff909116600482015260240160206040518083038186803b15801561145957600080fd5b505afa15801561146d573d6000803e3d6000fd5b505050506040513d601f19601f820116820180604052508101906114919190614f8e565b10156114f9576040517f08c379a000000000000000000000000000000000000000000000000000000000815260206004820152601d60248201527f5061796d61737465723a204e6f7420656e6f7567682062616c616e6365000000604482015260640161086c565b6115048a8584612563565b96505050505050505b9392505050565b600082815260fb6020526040812061150d90836125ae565b600061153860016125ba565b9050801561156d57600080547fffffffffffffffffffffffffffffffffffffffffffffffffffffffffffff00ff166101001790555b6115778383612745565b801561090757600080547fffffffffffffffffffffffffffffffffffffffffffffffffffffffffffff00ff169055604051600181527f7f26b83ff96e1f2b6a682f133852f6798a09c465da95921460cefb38474024989060200160405180910390a1505050565b7f000000000000000000000000000000000000000000000000000000000000000073ffffffffffffffffffffffffffffffffffffffff16331461167d576040517f08c379a000000000000000000000000000000000000000000000000000000000815260206004820152601760248201527f41434c3a2073656e646572206e6f7420616c6c6f776564000000000000000000604482015260640161086c565b6116868161090c565b156116ed576040517f08c379a000000000000000000000000000000000000000000000000000000000815260206004820152601d60248201527f41434c3a204f776e65722063616e6e6f7420626520677561726469616e000000604482015260640161086c565b610c0f7f55435dd261a4b9b3364963f7738a7a662ad9c84396d64be3365284bb7f0a504182611c52565b7f000000000000000000000000000000000000000000000000000000000000000073ffffffffffffffffffffffffffffffffffffffff1633146117b6576040517f08c379a000000000000000000000000000000000000000000000000000000000815260206004820152601760248201527f41434c3a2073656e646572206e6f7420616c6c6f776564000000000000000000604482015260640161086c565b60006117f784848080601f016020809104026020016040519081016040528093929190818152602001838380828437600092019190915250612a1792505050565b90506000611813826020015183606001518585608001516124ad565b9050801561184657815160408301516118469173ffffffffffffffffffffffffffffffffffffffff909116903084612ad8565b505050505050565b7f000000000000000000000000000000000000000000000000000000000000000073ffffffffffffffffffffffffffffffffffffffff1633146118ed576040517f08c379a000000000000000000000000000000000000000000000000000000000815260206004820152601760248201527f41434c3a2073656e646572206e6f7420616c6c6f776564000000000000000000604482015260640161086c565b610c0f7f55435dd261a4b9b3364963f7738a7a662ad9c84396d64be3365284bb7f0a504182611c74565b60006108dd611924610c12565b6002612b6d565b60006107a87fb19546dff01e856fb3f010c267a7b1c60363cf8a4664e21cc89c26224620214e83611514565b600081815260fb602052604081206107a890612b9f565b600082815260c9602052604090206001015461198981611c48565b6109078383611c74565b7f000000000000000000000000000000000000000000000000000000000000000073ffffffffffffffffffffffffffffffffffffffff163314611a32576040517f08c379a000000000000000000000000000000000000000000000000000000000815260206004820152601760248201527f41434c3a2073656e646572206e6f7420616c6c6f776564000000000000000000604482015260640161086c565b61019180546020850135916000611a4883614fd6565b9190505514611ab3576040517f08c379a000000000000000000000000000000000000000000000000000000000815260206004820152601560248201527f57616c6c65743a20496e76616c6964206e6f6e63650000000000000000000000604482015260640161086c565b6000611abe84612ba9565b9050600081516001811115611ad557611ad5614f0d565b14611aea57611ae5818585612c09565b611af4565b611af48184612e0d565b811561120e5760408051808201909152601981527f57616c6c65743a204661696c656420746f2070726566756e6400000000000000602082015261120e9073ffffffffffffffffffffffffffffffffffffffff7f000000000000000000000000000000000000000000000000000000000000000016908490612e8f565b73ffffffffffffffffffffffffffffffffffffffff163b151590565b60007fffffffff0000000000000000000000000000000000000000000000000000000082167f7965db0b0000000000000000000000000000000000000000000000000000000014806107a857507f01ffc9a7000000000000000000000000000000000000000000000000000000007fffffffff000000000000000000000000000000000000000000000000000000008316146107a8565b6000806000611c338585612f69565b91509150611c4081612fd9565b509392505050565b610c0f8133613232565b611c5c8282613304565b600082815260fb6020526040902061090790826133f8565b611c7e828261341a565b600082815260fb6020526040902061090790826134d5565b7f000000000000000000000000000000000000000000000000000000000000000073ffffffffffffffffffffffffffffffffffffffff163314610c0f576040517f08c379a000000000000000000000000000000000000000000000000000000000815260206004820152601760248201527f41434c3a2073656e646572206e6f7420616c6c6f776564000000000000000000604482015260640161086c565b7f4910fdfa16fed3260ed0e7147f7cc6da11a60208b5b9406d12a635614ffd91435460ff1615611d6857610907836134f7565b8273ffffffffffffffffffffffffffffffffffffffff166352d1902d6040518163ffffffff1660e01b815260040160206040518083038186803b158015611dae57600080fd5b505afa925050508015611dfc575060408051601f3d9081017fffffffffffffffffffffffffffffffffffffffffffffffffffffffffffffffe0168201909252611df991810190614f8e565b60015b611e88576040517f08c379a000000000000000000000000000000000000000000000000000000000815260206004820152602e60248201527f45524331393637557067726164653a206e657720696d706c656d656e7461746960448201527f6f6e206973206e6f742055555053000000000000000000000000000000000000606482015260840161086c565b7f360894a13ba1a3210667c828492db98dca3e2076cc3735a920a3ca505d382bbc8114611f37576040517f08c379a000000000000000000000000000000000000000000000000000000000815260206004820152602960248201527f45524331393637557067726164653a20756e737570706f727465642070726f7860448201527f6961626c65555549440000000000000000000000000000000000000000000000606482015260840161086c565b50610907838383613601565b8251611f5957611f54848383612e8f565b61120e565b611f6584848484613626565b5050505050565b6040805180820190915260008152606060208201526000611f8c83612287565b905061150d81608001516137bc565b600080611fa783612287565b905061150d611fb96020850185614a13565b6020850135611fcb604087018761500f565b604051611fd9929190615074565b604051908190039020611fef606088018861500f565b604051611ffd929190615074565b604051908190039020608088013560a089013560c08a013560e08b01356101008c01356120326101408e016101208f01614a13565b8b516040808e015160608f01519151612089939290602001928352606091821b7fffffffffffffffffffffffffffffffffffffffff0000000000000000000000009081166020850152911b16603482015260480190565b604080517fffffffffffffffffffffffffffffffffffffffffffffffffffffffffffffffe08184030181529082905280516020918201207fffffffffffffffffffffffffffffffffffffffff00000000000000000000000060609d8e1b811692840192909252603483019b909b5260548201999099526074810197909752609487019590955260b486019390935260d485019190915260f484015261011483015290931b1661013483015261014882015261016801604051602081830303815290604052805190602001206040517f19457468657265756d205369676e6564204d6573736167653a0a3332000000006020820152603c8101829052600090605c01604051602081830303815290604052805190602001209050919050565b6121b2838383613819565b612218576040517f08c379a000000000000000000000000000000000000000000000000000000000815260206004820152601660248201527f41434c3a20496e76616c6964206f776e65722073696700000000000000000000604482015260640161086c565b6122218361090c565b610907576040517f08c379a000000000000000000000000000000000000000000000000000000000815260206004820152601860248201527f41434c3a205369676e6572206e6f7420616e206f776e65720000000000000000604482015260640161086c565b6122b86040805160a08101909152600080825260208201908152600060208201819052604082015260609081015290565b6000808080806122cc61014088018861500f565b8101906122d99190615091565b945094509450945094506040518060a0016040528086815260200185600381111561230657612306614f0d565b815273ffffffffffffffffffffffffffffffffffffffff9485166020820152929093166040830152606090910152949350505050565b6000808373ffffffffffffffffffffffffffffffffffffffff1663feaf968c6040518163ffffffff1660e01b815260040160a06040518083038186803b15801561238557600080fd5b505afa158015612399573d6000803e3d6000fd5b505050506040513d601f19601f820116820180604052508101906123bd919061512a565b50505091505060006123ce82613a08565b905060008573ffffffffffffffffffffffffffffffffffffffff1663313ce5676040518163ffffffff1660e01b815260040160206040518083038186803b15801561241857600080fd5b505afa15801561242c573d6000803e3d6000fd5b505050506040513d601f19601f820116820180604052508101906124509190614f6b565b90508060ff168560ff1610156124845761246a858261517a565b61247590600a6152bd565b61247f90836152fb565b6124a3565b61248e818661517a565b61249990600a6152bd565b6124a3908361530f565b9695505050505050565b600060038560038111156124c3576124c3614f0d565b14156124d15750600061255b565b60018560038111156124e5576124e5614f0d565b14156124f257508061255b565b600285600381111561250657612506614f0d565b141561253057670de0b6b3a764000061251f858561530f565b61252991906152fb565b905061255b565b81670de0b6b3a7640000612544868661530f565b61254e91906152fb565b612558919061534c565b90505b949350505050565b60606125726020850185614a13565b83602001518460400151848660000151604051602001612596959493929190615364565b60405160208183030381529060405290509392505050565b600061150d8383613a78565b60008054610100900460ff1615612671578160ff1660011480156125dd5750303b155b612669576040517f08c379a000000000000000000000000000000000000000000000000000000000815260206004820152602e60248201527f496e697469616c697a61626c653a20636f6e747261637420697320616c72656160448201527f647920696e697469616c697a6564000000000000000000000000000000000000606482015260840161086c565b506000919050565b60005460ff808416911610612708576040517f08c379a000000000000000000000000000000000000000000000000000000000815260206004820152602e60248201527f496e697469616c697a61626c653a20636f6e747261637420697320616c72656160448201527f647920696e697469616c697a6564000000000000000000000000000000000000606482015260840161086c565b50600080547fffffffffffffffffffffffffffffffffffffffffffffffffffffffffffffff001660ff92909216919091179055600190565b919050565b600054610100900460ff166127dc576040517f08c379a000000000000000000000000000000000000000000000000000000000815260206004820152602b60248201527f496e697469616c697a61626c653a20636f6e7472616374206973206e6f74206960448201527f6e697469616c697a696e67000000000000000000000000000000000000000000606482015260840161086c565b6127e4613aa2565b6127ec613aa2565b73ffffffffffffffffffffffffffffffffffffffff8216612869576040517f08c379a000000000000000000000000000000000000000000000000000000000815260206004820152601960248201527f41434c3a204f776e65722063616e6e6f74206265207a65726f00000000000000604482015260640161086c565b6128937fb19546dff01e856fb3f010c267a7b1c60363cf8a4664e21cc89c26224620214e80613b3b565b6128bd7fb19546dff01e856fb3f010c267a7b1c60363cf8a4664e21cc89c26224620214e83611c52565b6129077f55435dd261a4b9b3364963f7738a7a662ad9c84396d64be3365284bb7f0a50417fb19546dff01e856fb3f010c267a7b1c60363cf8a4664e21cc89c26224620214e613b3b565b60005b81518110156109075781818151811061292557612925614f3c565b602002602001015173ffffffffffffffffffffffffffffffffffffffff168373ffffffffffffffffffffffffffffffffffffffff1614156129c2576040517f08c379a000000000000000000000000000000000000000000000000000000000815260206004820152601d60248201527f41434c3a204f776e65722063616e6e6f7420626520677561726469616e000000604482015260640161086c565b612a057f55435dd261a4b9b3364963f7738a7a662ad9c84396d64be3365284bb7f0a50418383815181106129f8576129f8614f3c565b6020026020010151611c52565b80612a0f81614fd6565b91505061290a565b6040805160a081018252600080825260208201819052918101829052606081018290526080810191909152600080600080600086806020019051810190612a5e91906153df565b945094509450945094506040518060a001604052808673ffffffffffffffffffffffffffffffffffffffff168152602001856003811115612aa157612aa1614f0d565b81526020018473ffffffffffffffffffffffffffffffffffffffff1681526020018381526020018281525095505050505050919050565b6040805173ffffffffffffffffffffffffffffffffffffffff85811660248301528416604482015260648082018490528251808303909101815260849091019091526020810180517bffffffffffffffffffffffffffffffffffffffffffffffffffffffff167f23b872dd0000000000000000000000000000000000000000000000000000000017905261120e908590613b86565b6000612b79828461543d565b15612b85576001612b88565b60005b60ff16612b9583856152fb565b61150d919061534c565b60006107a8825490565b6040805180820190915260008152606060208201526107a8612bcf61016084018461500f565b8080601f0160208091040260200160405190810160405280939291908181526020018383808284376000920191909152506137bc92505050565b6000612c13610c12565b11612c7a576040517f08c379a000000000000000000000000000000000000000000000000000000000815260206004820152601c60248201527f57616c6c65743a204e6f20677561726469616e7320616c6c6f77656400000000604482015260640161086c565b612c8382613c92565b612ce9576040517f08c379a000000000000000000000000000000000000000000000000000000000815260206004820152601f60248201527f57616c6c65743a20496e76616c696420677561726469616e20616374696f6e00604482015260640161086c565b612cf1611917565b8360200151511015612d5f576040517f08c379a000000000000000000000000000000000000000000000000000000000815260206004820152601e60248201527f57616c6c65743a20496e73756666696369656e7420677561726469616e730000604482015260640161086c565b60005b83602001515181101561120e57600084602001518281518110612d8757612d87614f3c565b60200260200101519050612dfa8160000151612df0856040517f19457468657265756d205369676e6564204d6573736167653a0a3332000000006020820152603c8101829052600090605c01604051602081830303815290604052805190602001209050919050565b8360200151613d0a565b5080612e0581614fd6565b915050612d62565b60008260200151600081518110612e2657612e26614f3c565b6020026020010151905061090781600001516112fe846040517f19457468657265756d205369676e6564204d6573736167653a0a3332000000006020820152603c8101829052600090605c01604051602081830303815290604052805190602001209050919050565b81471015612ef9576040517f08c379a000000000000000000000000000000000000000000000000000000000815260206004820152601d60248201527f416464726573733a20696e73756666696369656e742062616c616e6365000000604482015260640161086c565b6000808473ffffffffffffffffffffffffffffffffffffffff168460405160006040518083038185875af1925050503d8060008114612f54576040519150601f19603f3d011682016040523d82523d6000602084013e612f59565b606091505b5091509150611846828285613dea565b600080825160411415612fa05760208301516040840151606085015160001a612f9487828585613e3d565b94509450505050612fd2565b825160401415612fca5760208301516040840151612fbf868383613f55565b935093505050612fd2565b506000905060025b9250929050565b6000816004811115612fed57612fed614f0d565b1415612ff65750565b600181600481111561300a5761300a614f0d565b1415613072576040517f08c379a000000000000000000000000000000000000000000000000000000000815260206004820152601860248201527f45434453413a20696e76616c6964207369676e61747572650000000000000000604482015260640161086c565b600281600481111561308657613086614f0d565b14156130ee576040517f08c379a000000000000000000000000000000000000000000000000000000000815260206004820152601f60248201527f45434453413a20696e76616c6964207369676e6174757265206c656e67746800604482015260640161086c565b600381600481111561310257613102614f0d565b1415613190576040517f08c379a000000000000000000000000000000000000000000000000000000000815260206004820152602260248201527f45434453413a20696e76616c6964207369676e6174757265202773272076616c60448201527f7565000000000000000000000000000000000000000000000000000000000000606482015260840161086c565b60048160048111156131a4576131a4614f0d565b1415610c0f576040517f08c379a000000000000000000000000000000000000000000000000000000000815260206004820152602260248201527f45434453413a20696e76616c6964207369676e6174757265202776272076616c60448201527f7565000000000000000000000000000000000000000000000000000000000000606482015260840161086c565b600082815260c96020908152604080832073ffffffffffffffffffffffffffffffffffffffff8516845290915290205460ff16610a085761328a8173ffffffffffffffffffffffffffffffffffffffff166014613fa7565b613295836020613fa7565b6040516020016132a6929190615451565b604080517fffffffffffffffffffffffffffffffffffffffffffffffffffffffffffffffe0818403018152908290527f08c379a000000000000000000000000000000000000000000000000000000000825261086c91600401614da5565b600082815260c96020908152604080832073ffffffffffffffffffffffffffffffffffffffff8516845290915290205460ff16610a0857600082815260c96020908152604080832073ffffffffffffffffffffffffffffffffffffffff85168452909152902080547fffffffffffffffffffffffffffffffffffffffffffffffffffffffffffffff0016600117905561339a3390565b73ffffffffffffffffffffffffffffffffffffffff168173ffffffffffffffffffffffffffffffffffffffff16837f2f8788117e7eff1d82e926ec794901d17c78024a50270940304540a733656f0d60405160405180910390a45050565b600061150d8373ffffffffffffffffffffffffffffffffffffffff84166141ea565b600082815260c96020908152604080832073ffffffffffffffffffffffffffffffffffffffff8516845290915290205460ff1615610a0857600082815260c96020908152604080832073ffffffffffffffffffffffffffffffffffffffff8516808552925280832080547fffffffffffffffffffffffffffffffffffffffffffffffffffffffffffffff0016905551339285917ff6391f5c32d9c69d2a47ea670b442974b53935d1edc7fd64eb21e047a839171b9190a45050565b600061150d8373ffffffffffffffffffffffffffffffffffffffff8416614239565b73ffffffffffffffffffffffffffffffffffffffff81163b61359b576040517f08c379a000000000000000000000000000000000000000000000000000000000815260206004820152602d60248201527f455243313936373a206e657720696d706c656d656e746174696f6e206973206e60448201527f6f74206120636f6e747261637400000000000000000000000000000000000000606482015260840161086c565b7f360894a13ba1a3210667c828492db98dca3e2076cc3735a920a3ca505d382bbc80547fffffffffffffffffffffffff00000000000000000000000000000000000000001673ffffffffffffffffffffffffffffffffffffffff92909216919091179055565b61360a8361432c565b6000825111806136175750805b156109075761120e8383614379565b6060824710156136b8576040517f08c379a000000000000000000000000000000000000000000000000000000000815260206004820152602660248201527f416464726573733a20696e73756666696369656e742062616c616e636520666f60448201527f722063616c6c0000000000000000000000000000000000000000000000000000606482015260840161086c565b73ffffffffffffffffffffffffffffffffffffffff85163b613736576040517f08c379a000000000000000000000000000000000000000000000000000000000815260206004820152601d60248201527f416464726573733a2063616c6c20746f206e6f6e2d636f6e7472616374000000604482015260640161086c565b6000808673ffffffffffffffffffffffffffffffffffffffff16858760405161375f91906154d2565b60006040518083038185875af1925050503d806000811461379c576040519150601f19603f3d011682016040523d82523d6000602084013e6137a1565b606091505b50915091506137b1828286613dea565b979650505050505050565b604080518082019091526000815260606020820152600080838060200190518101906137e89190615533565b91509150604051806040016040528083600181111561380957613809614f0d565b8152602001919091529392505050565b60008060006138288585612f69565b9092509050600081600481111561384157613841614f0d565b14801561387957508573ffffffffffffffffffffffffffffffffffffffff168273ffffffffffffffffffffffffffffffffffffffff16145b156138895760019250505061150d565b6000808773ffffffffffffffffffffffffffffffffffffffff16631626ba7e60e01b88886040516024016138be929190615663565b604080517fffffffffffffffffffffffffffffffffffffffffffffffffffffffffffffffe08184030181529181526020820180517bffffffffffffffffffffffffffffffffffffffffffffffffffffffff167fffffffff0000000000000000000000000000000000000000000000000000000090941693909317909252905161394791906154d2565b600060405180830381855afa9150503d8060008114613982576040519150601f19603f3d011682016040523d82523d6000602084013e613987565b606091505b509150915081801561399a575080516020145b80156139fc575080517f1626ba7e00000000000000000000000000000000000000000000000000000000906139d8908301602090810190840161567c565b7fffffffff0000000000000000000000000000000000000000000000000000000016145b98975050505050505050565b600080821215613a74576040517f08c379a000000000000000000000000000000000000000000000000000000000815260206004820181905260248201527f53616665436173743a2076616c7565206d75737420626520706f736974697665604482015260640161086c565b5090565b6000826000018281548110613a8f57613a8f614f3c565b9060005260206000200154905092915050565b600054610100900460ff16613b39576040517f08c379a000000000000000000000000000000000000000000000000000000000815260206004820152602b60248201527f496e697469616c697a61626c653a20636f6e7472616374206973206e6f74206960448201527f6e697469616c697a696e67000000000000000000000000000000000000000000606482015260840161086c565b565b600082815260c96020526040808220600101805490849055905190918391839186917fbd79b86ffe0ab8e8776151514217cd7cacd52c909f66475c3af44e129f0b00ff9190a4505050565b6000613be8826040518060400160405280602081526020017f5361666545524332303a206c6f772d6c6576656c2063616c6c206661696c65648152508573ffffffffffffffffffffffffffffffffffffffff166144b89092919063ffffffff16565b8051909150156109075780806020019051810190613c069190615699565b610907576040517f08c379a000000000000000000000000000000000000000000000000000000000815260206004820152602a60248201527f5361666545524332303a204552433230206f7065726174696f6e20646964206e60448201527f6f74207375636365656400000000000000000000000000000000000000000000606482015260840161086c565b6000613ca1606083018361500f565b15159050613cb157506000919050565b613cba826144c7565b806107a857506107a8613cd0606084018461500f565b8080601f01602080910402602001604051908101604052809392919081815260200183838082843760009201919091525061461292505050565b613d15838383613819565b613d7b576040517f08c379a000000000000000000000000000000000000000000000000000000000815260206004820152601960248201527f41434c3a20496e76616c696420677561726469616e2073696700000000000000604482015260640161086c565b613d84836107ae565b610907576040517f08c379a000000000000000000000000000000000000000000000000000000000815260206004820152601a60248201527f41434c3a205369676e6572206e6f74206120677561726469616e000000000000604482015260640161086c565b60608315613df957508161150d565b825115613e095782518084602001fd5b816040517f08c379a000000000000000000000000000000000000000000000000000000000815260040161086c9190614da5565b6000807f7fffffffffffffffffffffffffffffff5d576e7357a4501ddfe92f46681b20a0831115613e745750600090506003613f4c565b8460ff16601b14158015613e8c57508460ff16601c14155b15613e9d5750600090506004613f4c565b6040805160008082526020820180845289905260ff881692820192909252606081018690526080810185905260019060a0016020604051602081039080840390855afa158015613ef1573d6000803e3d6000fd5b50506040517fffffffffffffffffffffffffffffffffffffffffffffffffffffffffffffffe0015191505073ffffffffffffffffffffffffffffffffffffffff8116613f4557600060019250925050613f4c565b9150600090505b94509492505050565b6000807f7fffffffffffffffffffffffffffffffffffffffffffffffffffffffffffffff831681613f8b60ff86901c601b61534c565b9050613f9987828885613e3d565b935093505050935093915050565b60606000613fb683600261530f565b613fc190600261534c565b67ffffffffffffffff811115613fd957613fd9614a30565b6040519080825280601f01601f191660200182016040528015614003576020820181803683370190505b5090507f30000000000000000000000000000000000000000000000000000000000000008160008151811061403a5761403a614f3c565b60200101907effffffffffffffffffffffffffffffffffffffffffffffffffffffffffffff1916908160001a9053507f78000000000000000000000000000000000000000000000000000000000000008160018151811061409d5761409d614f3c565b60200101907effffffffffffffffffffffffffffffffffffffffffffffffffffffffffffff1916908160001a90535060006140d984600261530f565b6140e490600161534c565b90505b6001811115614181577f303132333435363738396162636465660000000000000000000000000000000085600f166010811061412557614125614f3c565b1a60f81b82828151811061413b5761413b614f3c565b60200101907effffffffffffffffffffffffffffffffffffffffffffffffffffffffffffff1916908160001a90535060049490941c9361417a816156bb565b90506140e7565b50831561150d576040517f08c379a000000000000000000000000000000000000000000000000000000000815260206004820181905260248201527f537472696e67733a20686578206c656e67746820696e73756666696369656e74604482015260640161086c565b6000818152600183016020526040812054614231575081546001818101845560008481526020808220909301849055845484825282860190935260409020919091556107a8565b5060006107a8565b6000818152600183016020526040812054801561432257600061425d6001836156f0565b8554909150600090614271906001906156f0565b90508181146142d657600086600001828154811061429157614291614f3c565b90600052602060002001549050808760000184815481106142b4576142b4614f3c565b6000918252602080832090910192909255918252600188019052604090208390555b85548690806142e7576142e7615707565b6001900381819060005260206000200160009055905585600101600086815260200190815260200160002060009055600193505050506107a8565b60009150506107a8565b614335816134f7565b60405173ffffffffffffffffffffffffffffffffffffffff8216907fbc7cd75a20ee27fd9adebab32041f755214dbc6bffa90cc0225b39da2e5c2d3b90600090a250565b606073ffffffffffffffffffffffffffffffffffffffff83163b61441f576040517f08c379a000000000000000000000000000000000000000000000000000000000815260206004820152602660248201527f416464726573733a2064656c65676174652063616c6c20746f206e6f6e2d636f60448201527f6e74726163740000000000000000000000000000000000000000000000000000606482015260840161086c565b6000808473ffffffffffffffffffffffffffffffffffffffff168460405161444791906154d2565b600060405180830381855af49150503d8060008114614482576040519150601f19603f3d011682016040523d82523d6000602084013e614487565b606091505b50915091506144af82826040518060600160405280602781526020016157fe60279139613dea565b95945050505050565b606061255b8484600085613626565b60006144d761014083018361500f565b1590508061452c575061452a6144f0606084018461500f565b8080601f01602080910402602001604051908101604052809392919081815260200183838082843760009201919091525061466792505050565b155b1561453957506000919050565b600061454483614693565b90506145538160400151614749565b6145605750600092915050565b61456983612287565b6040015173ffffffffffffffffffffffffffffffffffffffff16816000015173ffffffffffffffffffffffffffffffffffffffff16146145ac5750600092915050565b6145b98160400151614775565b8060200190518101906145cc9190615736565b73ffffffffffffffffffffffffffffffffffffffff166145f461014085016101208601614a13565b73ffffffffffffffffffffffffffffffffffffffff16149392505050565b60007f4fb2e45d0000000000000000000000000000000000000000000000000000000061463e836147ce565b7fffffffff00000000000000000000000000000000000000000000000000000000161492915050565b60007f67674a6f0000000000000000000000000000000000000000000000000000000061463e836147ce565b60408051606080820183526000808352602083015291810191909152600080806146fd6146c3606087018761500f565b8080601f01602080910402602001604051908101604052809392919081815260200183838082843760009201919091525061477592505050565b8060200190518101906147109190615753565b6040805160608101825273ffffffffffffffffffffffffffffffffffffffff909416845260208401929092529082015295945050505050565b60007f095ea7b30000000000000000000000000000000000000000000000000000000061463e836147ce565b60606107a88260046147c960046040518060400160405280601d81526020017f43616c6c646174613a204e6f20706172616d7320746f206465636f646500000081525087516147e69092919063ffffffff16565b61482c565b60006147dd826000600461482c565b6107a8906157ad565b60008184841115614824576040517f08c379a000000000000000000000000000000000000000000000000000000000815260040161086c9190614da5565b505050900390565b60608161483a81601f61534c565b10156148a2576040517f08c379a000000000000000000000000000000000000000000000000000000000815260206004820152600e60248201527f736c6963655f6f766572666c6f77000000000000000000000000000000000000604482015260640161086c565b6148ac828461534c565b84511015614916576040517f08c379a000000000000000000000000000000000000000000000000000000000815260206004820152601160248201527f736c6963655f6f75744f66426f756e6473000000000000000000000000000000604482015260640161086c565b606082158015614935576040519150600082526020820160405261499d565b6040519150601f8416801560200281840101858101878315602002848b0101015b8183101561496e578051835260209283019201614956565b5050858452601f017fffffffffffffffffffffffffffffffffffffffffffffffffffffffffffffffe016604052505b50949350505050565b7fffffffff0000000000000000000000000000000000000000000000000000000081168114610c0f57600080fd5b6000602082840312156149e657600080fd5b813561150d816149a6565b73ffffffffffffffffffffffffffffffffffffffff81168114610c0f57600080fd5b600060208284031215614a2557600080fd5b813561150d816149f1565b7f4e487b7100000000000000000000000000000000000000000000000000000000600052604160045260246000fd5b6040805190810167ffffffffffffffff81118282101715614a8257614a82614a30565b60405290565b604051601f82017fffffffffffffffffffffffffffffffffffffffffffffffffffffffffffffffe016810167ffffffffffffffff81118282101715614acf57614acf614a30565b604052919050565b600067ffffffffffffffff821115614af157614af1614a30565b50601f017fffffffffffffffffffffffffffffffffffffffffffffffffffffffffffffffe01660200190565b600082601f830112614b2e57600080fd5b8135614b41614b3c82614ad7565b614a88565b818152846020838601011115614b5657600080fd5b816020850160208301376000918101602001919091529392505050565b60008060408385031215614b8657600080fd5b82359150602083013567ffffffffffffffff811115614ba457600080fd5b614bb085828601614b1d565b9150509250929050565b600060208284031215614bcc57600080fd5b5035919050565b60008060408385031215614be657600080fd5b823591506020830135614bf8816149f1565b809150509250929050565b60008060408385031215614c1657600080fd5b8235614c21816149f1565b9150602083013567ffffffffffffffff811115614ba457600080fd5b60008083601f840112614c4f57600080fd5b50813567ffffffffffffffff811115614c6757600080fd5b602083019150836020828501011115612fd257600080fd5b60008060008060608587031215614c9557600080fd5b8435614ca0816149f1565b935060208501359250604085013567ffffffffffffffff811115614cc357600080fd5b614ccf87828801614c3d565b95989497509550505050565b600080600060608486031215614cf057600080fd5b833567ffffffffffffffff811115614d0757600080fd5b84016101808187031215614d1a57600080fd5b95602085013595506040909401359392505050565b60005b83811015614d4a578181015183820152602001614d32565b8381111561120e5750506000910152565b60008151808452614d73816020860160208601614d2f565b601f017fffffffffffffffffffffffffffffffffffffffffffffffffffffffffffffffe0169290920160200192915050565b60208152600061150d6020830184614d5b565b60008060408385031215614dcb57600080fd5b50508035926020909101359150565b600067ffffffffffffffff821115614df457614df4614a30565b5060051b60200190565b60008060408385031215614e1157600080fd5b8235614e1c816149f1565b915060208381013567ffffffffffffffff811115614e3957600080fd5b8401601f81018613614e4a57600080fd5b8035614e58614b3c82614dda565b81815260059190911b82018301908381019088831115614e7757600080fd5b928401925b82841015614e9e578335614e8f816149f1565b82529284019290840190614e7c565b80955050505050509250929050565b60008060008060608587031215614ec357600080fd5b843560038110614ed257600080fd5b9350602085013567ffffffffffffffff811115614eee57600080fd5b614efa87828801614c3d565b9598909750949560400135949350505050565b7f4e487b7100000000000000000000000000000000000000000000000000000000600052602160045260246000fd5b7f4e487b7100000000000000000000000000000000000000000000000000000000600052603260045260246000fd5b600060208284031215614f7d57600080fd5b815160ff8116811461150d57600080fd5b600060208284031215614fa057600080fd5b5051919050565b7f4e487b7100000000000000000000000000000000000000000000000000000000600052601160045260246000fd5b60007fffffffffffffffffffffffffffffffffffffffffffffffffffffffffffffffff82141561500857615008614fa7565b5060010190565b60008083357fffffffffffffffffffffffffffffffffffffffffffffffffffffffffffffffe184360301811261504457600080fd5b83018035915067ffffffffffffffff82111561505f57600080fd5b602001915036819003821315612fd257600080fd5b8183823760009101908152919050565b60048110610c0f57600080fd5b600080600080600060a086880312156150a957600080fd5b8535945060208601356150bb81615084565b935060408601356150cb816149f1565b925060608601356150db816149f1565b9150608086013567ffffffffffffffff8111156150f757600080fd5b61510388828901614b1d565b9150509295509295909350565b805169ffffffffffffffffffff8116811461274057600080fd5b600080600080600060a0868803121561514257600080fd5b61514b86615110565b945060208601519350604086015192506060860151915061516e60808701615110565b90509295509295909350565b600060ff821660ff84168082101561519457615194614fa7565b90039392505050565b600181815b808511156151f657817fffffffffffffffffffffffffffffffffffffffffffffffffffffffffffffffff048211156151dc576151dc614fa7565b808516156151e957918102915b93841c93908002906151a2565b509250929050565b60008261520d575060016107a8565b8161521a575060006107a8565b8160018114615230576002811461523a57615256565b60019150506107a8565b60ff84111561524b5761524b614fa7565b50506001821b6107a8565b5060208310610133831016604e8410600b8410161715615279575081810a6107a8565b615283838361519d565b807fffffffffffffffffffffffffffffffffffffffffffffffffffffffffffffffff048211156152b5576152b5614fa7565b029392505050565b600061150d60ff8416836151fe565b7f4e487b7100000000000000000000000000000000000000000000000000000000600052601260045260246000fd5b60008261530a5761530a6152cc565b500490565b6000817fffffffffffffffffffffffffffffffffffffffffffffffffffffffffffffffff048311821515161561534757615347614fa7565b500290565b6000821982111561535f5761535f614fa7565b500190565b73ffffffffffffffffffffffffffffffffffffffff868116825260a0820190600487106153ba577f4e487b7100000000000000000000000000000000000000000000000000000000600052602160045260246000fd5b8660208401528086166040840152508360608301528260808301529695505050505050565b600080600080600060a086880312156153f757600080fd5b8551615402816149f1565b602087015190955061541381615084565b6040870151909450615424816149f1565b6060870151608090970151959894975095949392505050565b60008261544c5761544c6152cc565b500690565b7f416363657373436f6e74726f6c3a206163636f756e7420000000000000000000815260008351615489816017850160208801614d2f565b7f206973206d697373696e6720726f6c652000000000000000000000000000000060179184019182015283516154c6816028840160208801614d2f565b01602801949350505050565b600082516154e4818460208701614d2f565b9190910192915050565b600082601f8301126154ff57600080fd5b815161550d614b3c82614ad7565b81815284602083860101111561552257600080fd5b61255b826020830160208701614d2f565b600080604080848603121561554757600080fd5b83516002811061555657600080fd5b8093505060208085015167ffffffffffffffff8082111561557657600080fd5b818701915087601f83011261558a57600080fd5b8151615598614b3c82614dda565b81815260059190911b8301840190848101908a8311156155b757600080fd5b8585015b83811015615651578051858111156155d35760008081fd5b8601808d037fffffffffffffffffffffffffffffffffffffffffffffffffffffffffffffffe0018913156156075760008081fd5b61560f614a5f565b8882015161561c816149f1565b8152818a0151878111156156305760008081fd5b61563e8f8b838601016154ee565b828b0152508452509186019186016155bb565b50809750505050505050509250929050565b82815260406020820152600061255b6040830184614d5b565b60006020828403121561568e57600080fd5b815161150d816149a6565b6000602082840312156156ab57600080fd5b8151801515811461150d57600080fd5b6000816156ca576156ca614fa7565b507fffffffffffffffffffffffffffffffffffffffffffffffffffffffffffffffff0190565b60008282101561570257615702614fa7565b500390565b7f4e487b7100000000000000000000000000000000000000000000000000000000600052603160045260246000fd5b60006020828403121561574857600080fd5b815161150d816149f1565b60008060006060848603121561576857600080fd5b8351615773816149f1565b60208501516040860151919450925067ffffffffffffffff81111561579757600080fd5b6157a3868287016154ee565b9150509250925092565b6000815160208301517fffffffff00000000000000000000000000000000000000000000000000000000808216935060048310156157f55780818460040360031b1b83161693505b50505091905056fe416464726573733a206c6f772d6c6576656c2064656c65676174652063616c6c206661696c6564a26469706673582212207af3126045c2fc57a697d33cbdc41533afeddffb5af761a927f3325be732899364736f6c63430008090033496e697469616c697a61626c653a20636f6e747261637420697320616c726561",
    "linkReferences": {},
    "deployedLinkReferences": {}
}