{
  "_format": "hh-sol-artifact-1",
  "contractName": "EntryPoint",
  "sourceName": "contracts/ERC4337/EntryPoint.sol",
  "abi": [
    {
      "inputs": [
        {
          "internalType": "address",
          "name": "_create2Factory",
          "type": "address"
        }
      ],
      "stateMutability": "nonpayable",
      "type": "constructor"
    },
    {
      "inputs": [],
      "name": "addStake",
      "outputs": [],
      "stateMutability": "payable",
      "type": "function"
    },
    {
      "inputs": [],
      "name": "create2Factory",
      "outputs": [
        {
          "internalType": "address",
          "name": "",
          "type": "address"
        }
      ],
      "stateMutability": "view",
      "type": "function"
    },
    {
      "inputs": [
        {
          "internalType": "address",
          "name": "paymaster",
          "type": "address"
        }
      ],
      "name": "getStake",
      "outputs": [
        {
          "internalType": "uint256",
          "name": "value",
          "type": "uint256"
        },
        {
          "internalType": "uint256",
          "name": "lockExpiryTime",
          "type": "uint256"
        },
        {
          "internalType": "bool",
          "name": "isLocked",
          "type": "bool"
        }
      ],
      "stateMutability": "view",
      "type": "function"
    },
    {
      "inputs": [
        {
          "components": [
            {
              "internalType": "address",
              "name": "sender",
              "type": "address"
            },
            {
              "internalType": "uint256",
              "name": "nonce",
              "type": "uint256"
            },
            {
              "internalType": "bytes",
              "name": "initCode",
              "type": "bytes"
            },
            {
              "internalType": "bytes",
              "name": "callData",
              "type": "bytes"
            },
            {
              "internalType": "uint256",
              "name": "callGas",
              "type": "uint256"
            },
            {
              "internalType": "uint256",
              "name": "verificationGas",
              "type": "uint256"
            },
            {
              "internalType": "uint256",
              "name": "preVerificationGas",
              "type": "uint256"
            },
            {
              "internalType": "uint256",
              "name": "maxFeePerGas",
              "type": "uint256"
            },
            {
              "internalType": "uint256",
              "name": "maxPriorityFeePerGas",
              "type": "uint256"
            },
            {
              "internalType": "address",
              "name": "paymaster",
              "type": "address"
            },
            {
              "internalType": "bytes",
              "name": "paymasterData",
              "type": "bytes"
            },
            {
              "internalType": "bytes",
              "name": "signature",
              "type": "bytes"
            }
          ],
          "internalType": "struct UserOperation[]",
          "name": "ops",
          "type": "tuple[]"
        },
        {
          "internalType": "address payable",
          "name": "redeemer",
          "type": "address"
        }
      ],
      "name": "handleOps",
      "outputs": [],
      "stateMutability": "nonpayable",
      "type": "function"
    },
    {
      "inputs": [],
      "name": "lockStake",
      "outputs": [],
      "stateMutability": "nonpayable",
      "type": "function"
    },
    {
      "inputs": [],
      "name": "unlockStake",
      "outputs": [],
      "stateMutability": "nonpayable",
      "type": "function"
    },
    {
      "inputs": [
        {
          "internalType": "address payable",
          "name": "withdrawAddress",
          "type": "address"
        }
      ],
      "name": "withdrawStake",
      "outputs": [],
      "stateMutability": "nonpayable",
      "type": "function"
    },
    {
      "stateMutability": "payable",
      "type": "receive"
    }
  ],
  "bytecode": "0x60a060405234801561001057600080fd5b50604051611a49380380611a4983398101604081905261002f91610040565b6001600160a01b0316608052610070565b60006020828403121561005257600080fd5b81516001600160a01b038116811461006957600080fd5b9392505050565b6080516119b76100926000396000818161013401526102be01526119b76000f3fe6080604052600436106100745760003560e01c8063a0df3fc71161004e578063a0df3fc714610122578063bb9fe6bf1461017b578063c23a5cea14610190578063e1c98d8c146101b057600080fd5b80632815c17b146100805780635a627dbc146100a25780637a766460146100aa57600080fd5b3661007b57005b600080fd5b34801561008c57600080fd5b506100a061009b3660046112b9565b6101c5565b005b6100a061089d565b3480156100b657600080fd5b506101006100c536600461134f565b73ffffffffffffffffffffffffffffffffffffffff16600090815260208190526040902080546001820154600290920154909260ff90911690565b6040805193845260208401929092521515908201526060015b60405180910390f35b34801561012e57600080fd5b506101567f000000000000000000000000000000000000000000000000000000000000000081565b60405173ffffffffffffffffffffffffffffffffffffffff9091168152602001610119565b34801561018757600080fd5b506100a06108c3565b34801561019c57600080fd5b506100a06101ab36600461134f565b610981565b3480156101bc57600080fd5b506100a0610a86565b6000808367ffffffffffffffff8111156101e1576101e161136c565b60405190808252806020026020018201604052801561020a578160200160208202803683370190505b50905060008467ffffffffffffffff8111156102285761022861136c565b60405190808252806020026020018201604052801561025b57816020015b60608152602001906001900390816102465790505b50905060005b85811015610518575a83828151811061027c5761027c61139b565b6020026020010181815250506102b487878381811061029d5761029d61139b565b90506020028101906102af91906113ca565b610ad9565b15610307576103077f00000000000000000000000000000000000000000000000000000000000000008888848181106102ef576102ef61139b565b905060200281019061030191906113ca565b90610ba1565b61033387878381811061031c5761031c61139b565b905060200281019061032e91906113ca565b610c61565b15610498576103ed6000808989858181106103505761035061139b565b905060200281019061036291906113ca565b610375906101408101906101200161134f565b73ffffffffffffffffffffffffffffffffffffffff16815260208082019290925260409081016000208151606081018352815481526001820154938101939093526002015460ff161515908201528888848181106103d5576103d561139b565b90506020028101906103e791906113ca565b90610c94565b6000808989858181106104025761040261139b565b905060200281019061041491906113ca565b610427906101408101906101200161134f565b73ffffffffffffffffffffffffffffffffffffffff16815260208101919091526040016000205561047a8787838181106104635761046361139b565b905060200281019061047591906113ca565b610d90565b82828151811061048c5761048c61139b565b60200260200101819052505b6104c48787838181106104ad576104ad61139b565b90506020028101906104bf91906113ca565b610e58565b5a8382815181106104d7576104d761139b565b60200260200101516104e99190611437565b8382815181106104fb576104fb61139b565b6020908102919091010152806105108161144e565b915050610261565b5060005b858110156107c45760005a905061055588888481811061053e5761053e61139b565b905060200281019061055091906113ca565b610f7a565b60005a6105629083611437565b8584815181106105745761057461139b565b60200260200101516105869190611487565b90506105b6818a8a8681811061059e5761059e61139b565b90506020028101906105b091906113ca565b90611069565b6105c09087611487565b95506105d789898581811061031c5761031c61139b565b1561076c5761063a8484815181106105f1576105f161139b565b602002602001015161060f838c8c8881811061059e5761059e61139b565b8b8b878181106106215761062161139b565b905060200281019061063391906113ca565b919061107e565b6107066000808b8b878181106106525761065261139b565b905060200281019061066491906113ca565b610677906101408101906101200161134f565b73ffffffffffffffffffffffffffffffffffffffff16815260208082019290925260409081016000208151606081018352815481526001820154938101939093526002015460ff161515908201526106db838c8c8881811061059e5761059e61139b565b8b8b878181106106ed576106ed61139b565b90506020028101906106ff91906113ca565b91906110fb565b6000808b8b8781811061071b5761071b61139b565b905060200281019061072d91906113ca565b610740906101408101906101200161134f565b73ffffffffffffffffffffffffffffffffffffffff1681526020810191909152604001600020556107af565b6107af610785828b8b8781811061059e5761059e61139b565b8a8a868181106107975761079761139b565b90506020028101906107a991906113ca565b90611125565b505080806107bc9061144e565b91505061051c565b5060008473ffffffffffffffffffffffffffffffffffffffff168460405160006040518083038185875af1925050503d806000811461081f576040519150601f19603f3d011682016040523d82523d6000602084013e610824565b606091505b5050905080610894576040517f08c379a000000000000000000000000000000000000000000000000000000000815260206004820152601c60248201527f456e747279506f696e743a204661696c656420746f2072656465656d0000000060448201526064015b60405180910390fd5b50505050505050565b33600090815260208190526040812080543492906108bc908490611487565b9091555050565b3360009081526020819052604090206001015442101561093f576040517f08c379a000000000000000000000000000000000000000000000000000000000815260206004820152601c60248201527f456e747279506f696e743a204c6f636b206e6f74206578706972656400000000604482015260640161088b565b336000908152602081905260408120600181019190915560020180547fffffffffffffffffffffffffffffffffffffffffffffffffffffffffffffff00169055565b3360009081526020819052604090206002015460ff16156109fe576040517f08c379a000000000000000000000000000000000000000000000000000000000815260206004820152601b60248201527f456e747279506f696e743a205374616b65206973206c6f636b65640000000000604482015260640161088b565b3360009081526020819052604080822054905173ffffffffffffffffffffffffffffffffffffffff841691908381818185875af1925050503d8060008114610a62576040519150601f19603f3d011682016040523d82523d6000602084013e610a67565b606091505b505090508015610a8257336000908152602081905260408120555b5050565b610a93426202a300611487565b33600090815260208190526040902060018082019290925560020180547fffffffffffffffffffffffffffffffffffffffffffffffffffffffffffffff00169091179055565b6000610af1610aeb602084018461134f565b3b151590565b158015610b0a5750610b06604083018361149f565b1590505b15610b71576040517f08c379a000000000000000000000000000000000000000000000000000000000815260206004820181905260248201527f456e747279506f696e743a204e6f2077616c6c6574202620696e6974436f6465604482015260640161088b565b610b81610aeb602084018461134f565b158015610b9b5750610b96604083018361149f565b151590505b92915050565b73ffffffffffffffffffffffffffffffffffffffff8116634af63f02610bca604085018561149f565b6040517fffffffff0000000000000000000000000000000000000000000000000000000060e085901b168152610c0a929190602088013590600401611554565b602060405180830381600087803b158015610c2457600080fd5b505af1158015610c38573d6000803e3d6000fd5b505050506040513d601f19601f82011682018060405250810190610c5c9190611578565b505050565b600080610c766101408401610120850161134f565b73ffffffffffffffffffffffffffffffffffffffff16141592915050565b60008160400151610d01576040517f08c379a000000000000000000000000000000000000000000000000000000000815260206004820152601c60248201527f456e747279506f696e743a205374616b65206e6f74206c6f636b656400000000604482015260640161088b565b610d0a8361120a565b82511015610d74576040517f08c379a000000000000000000000000000000000000000000000000000000000815260206004820152601e60248201527f456e747279506f696e743a20496e73756666696369656e74207374616b650000604482015260640161088b565b610d7d8361120a565b8251610d899190611437565b9392505050565b6060610da46101408301610120840161134f565b73ffffffffffffffffffffffffffffffffffffffff16635765f46283610dc98561120a565b6040518363ffffffff1660e01b8152600401610de69291906115f9565b60006040518083038186803b158015610dfe57600080fd5b505afa158015610e12573d6000803e3d6000fd5b505050506040513d6000823e601f3d9081017fffffffffffffffffffffffffffffffffffffffffffffffffffffffffffffffe0168201604052610b9b919081019061182e565b6000610e6382610c61565b610e7557610e708261120a565b610e78565b60005b905047610e88602084018461134f565b73ffffffffffffffffffffffffffffffffffffffff16631058ea3c8460a0013585856040518463ffffffff1660e01b8152600401610ec79291906115f9565b600060405180830381600088803b158015610ee157600080fd5b5087f1158015610ef5573d6000803e3d6000fd5b505050505060008147610f089190611437565b905082811015610f74576040517f08c379a000000000000000000000000000000000000000000000000000000000815260206004820152601d60248201527f456e747279506f696e743a20696e636f72726563742070726566756e64000000604482015260640161088b565b50505050565b600080610f8a602084018461134f565b73ffffffffffffffffffffffffffffffffffffffff166080840135610fb2606086018661149f565b604051610fc0929190611877565b60006040518083038160008787f1925050503d8060008114610ffe576040519150601f19603f3d011682016040523d82523d6000602084013e611003565b606091505b509150915081610c5c5760448151101561101c57600080fd5b60048101905080806020019051810190611036919061182e565b6040517f08c379a000000000000000000000000000000000000000000000000000000000815260040161088b91906118d1565b600061107483611243565b610d8990836118e4565b6110906101408401610120850161134f565b73ffffffffffffffffffffffffffffffffffffffff1663a9a23409600084846040518463ffffffff1660e01b81526004016110cd93929190611921565b600060405180830381600087803b1580156110e757600080fd5b505af1158015610894573d6000803e3d6000fd5b6000816111078561120a565b84516111139190611487565b61111d9190611437565b949350505050565b6000611134602084018461134f565b73ffffffffffffffffffffffffffffffffffffffff16826111548561120a565b61115e9190611437565b604051600081818185875af1925050503d806000811461119a576040519150601f19603f3d011682016040523d82523d6000602084013e61119f565b606091505b5050905080610c5c576040517f08c379a000000000000000000000000000000000000000000000000000000000815260206004820152601c60248201527f456e747279506f696e743a204661696c656420746f20726566756e6400000000604482015260640161088b565b60008060c083013561122460a08501356080860135611487565b61122e9190611487565b905061123983611243565b610d8990826118e4565b60008161010001358260e00135146112765761127160e083013561126c48610100860135611487565b61127e565b610b9b565b5060e0013590565b600081831061128d5781610d89565b5090919050565b73ffffffffffffffffffffffffffffffffffffffff811681146112b657600080fd5b50565b6000806000604084860312156112ce57600080fd5b833567ffffffffffffffff808211156112e657600080fd5b818601915086601f8301126112fa57600080fd5b81358181111561130957600080fd5b8760208260051b850101111561131e57600080fd5b6020928301955093505084013561133481611294565b809150509250925092565b803561134a81611294565b919050565b60006020828403121561136157600080fd5b8135610d8981611294565b7f4e487b7100000000000000000000000000000000000000000000000000000000600052604160045260246000fd5b7f4e487b7100000000000000000000000000000000000000000000000000000000600052603260045260246000fd5b600082357ffffffffffffffffffffffffffffffffffffffffffffffffffffffffffffffe818336030181126113fe57600080fd5b9190910192915050565b7f4e487b7100000000000000000000000000000000000000000000000000000000600052601160045260246000fd5b60008282101561144957611449611408565b500390565b60007fffffffffffffffffffffffffffffffffffffffffffffffffffffffffffffffff82141561148057611480611408565b5060010190565b6000821982111561149a5761149a611408565b500190565b60008083357fffffffffffffffffffffffffffffffffffffffffffffffffffffffffffffffe18436030181126114d457600080fd5b83018035915067ffffffffffffffff8211156114ef57600080fd5b60200191503681900382131561150457600080fd5b9250929050565b8183528181602085013750600060208284010152600060207fffffffffffffffffffffffffffffffffffffffffffffffffffffffffffffffe0601f840116840101905092915050565b60408152600061156860408301858761150b565b9050826020830152949350505050565b60006020828403121561158a57600080fd5b8151610d8981611294565b60008083357fffffffffffffffffffffffffffffffffffffffffffffffffffffffffffffffe18436030181126115ca57600080fd5b830160208101925035905067ffffffffffffffff8111156115ea57600080fd5b80360383131561150457600080fd5b604081526116276040820161160d8561133f565b73ffffffffffffffffffffffffffffffffffffffff169052565b6020830135606082015260006116406040850185611595565b6101808060808601526116586101c08601838561150b565b92506116676060880188611595565b92507fffffffffffffffffffffffffffffffffffffffffffffffffffffffffffffffc0808786030160a088015261169f85858461150b565b9450608089013560c088015260a089013560e0880152610100935060c089013584880152610120915060e089013582880152610140848a0135818901526116e7838b0161133f565b9450610160925061170f8389018673ffffffffffffffffffffffffffffffffffffffff169052565b61171b818b018b611595565b9550905081888703018489015261173386868361150b565b955050611742828a018a611595565b9450925080878603016101a0880152505061175e83838361150b565b93505050508260208301529392505050565b60005b8381101561178b578181015183820152602001611773565b83811115610f745750506000910152565b600067ffffffffffffffff808411156117b7576117b761136c565b604051601f85017fffffffffffffffffffffffffffffffffffffffffffffffffffffffffffffffe0908116603f011681019082821181831017156117fd576117fd61136c565b8160405280935085815286868601111561181657600080fd5b611824866020830187611770565b5050509392505050565b60006020828403121561184057600080fd5b815167ffffffffffffffff81111561185757600080fd5b8201601f8101841361186857600080fd5b61111d8482516020840161179c565b8183823760009101908152919050565b6000815180845261189f816020860160208601611770565b601f017fffffffffffffffffffffffffffffffffffffffffffffffffffffffffffffffe0169290920160200192915050565b602081526000610d896020830184611887565b6000817fffffffffffffffffffffffffffffffffffffffffffffffffffffffffffffffff048311821515161561191c5761191c611408565b500290565b60006003851061195a577f4e487b7100000000000000000000000000000000000000000000000000000000600052602160045260246000fd5b848252606060208301526119716060830185611887565b905082604083015294935050505056fea264697066735822122092b2822bcb3524bb42aff3863ed88a83eb7fd5c85b1e0a73c57fcbb0ff07563364736f6c63430008090033",
  "linkReferences": {},
  "deployedLinkReferences": {}
}