{
  "_format": "hh-sol-artifact-1",
  "contractName": "EntryPoint",
  "sourceName": "contracts/ERC4337/EntryPoint.sol",
  "abi": [
    {
      "inputs": [
        {
          "internalType": "address",
          "name": "_create2Factory",
          "type": "address"
        }
      ],
      "stateMutability": "nonpayable",
      "type": "constructor"
    },
    {
      "inputs": [],
      "name": "addStake",
      "outputs": [],
      "stateMutability": "payable",
      "type": "function"
    },
    {
      "inputs": [],
      "name": "create2Factory",
      "outputs": [
        {
          "internalType": "address",
          "name": "",
          "type": "address"
        }
      ],
      "stateMutability": "view",
      "type": "function"
    },
    {
      "inputs": [
        {
          "internalType": "address",
          "name": "paymaster",
          "type": "address"
        }
      ],
      "name": "getStake",
      "outputs": [
        {
          "internalType": "uint256",
          "name": "value",
          "type": "uint256"
        },
        {
          "internalType": "uint256",
          "name": "lockExpiryTime",
          "type": "uint256"
        },
        {
          "internalType": "bool",
          "name": "isLocked",
          "type": "bool"
        }
      ],
      "stateMutability": "view",
      "type": "function"
    },
    {
      "inputs": [
        {
          "components": [
            {
              "internalType": "address",
              "name": "sender",
              "type": "address"
            },
            {
              "internalType": "uint256",
              "name": "nonce",
              "type": "uint256"
            },
            {
              "internalType": "bytes",
              "name": "initCode",
              "type": "bytes"
            },
            {
              "internalType": "bytes",
              "name": "callData",
              "type": "bytes"
            },
            {
              "internalType": "uint256",
              "name": "callGas",
              "type": "uint256"
            },
            {
              "internalType": "uint256",
              "name": "verificationGas",
              "type": "uint256"
            },
            {
              "internalType": "uint256",
              "name": "preVerificationGas",
              "type": "uint256"
            },
            {
              "internalType": "uint256",
              "name": "maxFeePerGas",
              "type": "uint256"
            },
            {
              "internalType": "uint256",
              "name": "maxPriorityFeePerGas",
              "type": "uint256"
            },
            {
              "internalType": "address",
              "name": "paymaster",
              "type": "address"
            },
            {
              "internalType": "bytes",
              "name": "paymasterData",
              "type": "bytes"
            },
            {
              "internalType": "bytes",
              "name": "signature",
              "type": "bytes"
            }
          ],
          "internalType": "struct UserOperation[]",
          "name": "ops",
          "type": "tuple[]"
        },
        {
          "internalType": "address payable",
          "name": "redeemer",
          "type": "address"
        }
      ],
      "name": "handleOps",
      "outputs": [],
      "stateMutability": "nonpayable",
      "type": "function"
    },
    {
      "inputs": [],
      "name": "lockStake",
      "outputs": [],
      "stateMutability": "nonpayable",
      "type": "function"
    },
    {
      "inputs": [],
      "name": "unlockStake",
      "outputs": [],
      "stateMutability": "nonpayable",
      "type": "function"
    },
    {
      "inputs": [
        {
          "internalType": "address payable",
          "name": "withdrawAddress",
          "type": "address"
        }
      ],
      "name": "withdrawStake",
      "outputs": [],
      "stateMutability": "nonpayable",
      "type": "function"
    },
    {
      "stateMutability": "payable",
      "type": "receive"
    }
  ],
  "bytecode": "0x60a060405234801561001057600080fd5b506040516119a73803806119a783398101604081905261002f91610040565b6001600160a01b0316608052610070565b60006020828403121561005257600080fd5b81516001600160a01b038116811461006957600080fd5b9392505050565b6080516119156100926000396000818161014301526102cd01526119156000f3fe6080604052600436106100745760003560e01c8063a0df3fc71161004e578063a0df3fc714610131578063bb9fe6bf1461018a578063c23a5cea1461019f578063e1c98d8c146101bf57600080fd5b80632815c17b146100805780635a627dbc146100a25780637a766460146100b957600080fd5b3661007b57005b600080fd5b34801561008c57600080fd5b506100a061009b366004611217565b6101d4565b005b6100a0336000908152602081905260409020349055565b3480156100c557600080fd5b5061010f6100d43660046112ad565b73ffffffffffffffffffffffffffffffffffffffff16600090815260208190526040902080546001820154600290920154909260ff90911690565b6040805193845260208401929092521515908201526060015b60405180910390f35b34801561013d57600080fd5b506101657f000000000000000000000000000000000000000000000000000000000000000081565b60405173ffffffffffffffffffffffffffffffffffffffff9091168152602001610128565b34801561019657600080fd5b506100a061083f565b3480156101ab57600080fd5b506100a06101ba3660046112ad565b6108fd565b3480156101cb57600080fd5b506100a0610a02565b6000808367ffffffffffffffff8111156101f0576101f06112ca565b604051908082528060200260200182016040528015610219578160200160208202803683370190505b50905060008467ffffffffffffffff811115610237576102376112ca565b60405190808252806020026020018201604052801561026a57816020015b60608152602001906001900390816102555790505b50905060005b85811015610527575a83828151811061028b5761028b6112f9565b6020026020010181815250506102c38787838181106102ac576102ac6112f9565b90506020028101906102be9190611328565b610a55565b15610316576103167f00000000000000000000000000000000000000000000000000000000000000008888848181106102fe576102fe6112f9565b90506020028101906103109190611328565b90610b1d565b61034287878381811061032b5761032b6112f9565b905060200281019061033d9190611328565b610bdd565b156104a7576103fc60008089898581811061035f5761035f6112f9565b90506020028101906103719190611328565b61038490610140810190610120016112ad565b73ffffffffffffffffffffffffffffffffffffffff16815260208082019290925260409081016000208151606081018352815481526001820154938101939093526002015460ff161515908201528888848181106103e4576103e46112f9565b90506020028101906103f69190611328565b90610c10565b600080898985818110610411576104116112f9565b90506020028101906104239190611328565b61043690610140810190610120016112ad565b73ffffffffffffffffffffffffffffffffffffffff168152602081019190915260400160002055610489878783818110610472576104726112f9565b90506020028101906104849190611328565b610d0c565b82828151811061049b5761049b6112f9565b60200260200101819052505b6104d38787838181106104bc576104bc6112f9565b90506020028101906104ce9190611328565b610dd4565b5a8382815181106104e6576104e66112f9565b60200260200101516104f89190611395565b83828151811061050a5761050a6112f9565b60209081029190910101528061051f816113ac565b915050610270565b5060005b858110156107665760005a905061056488888481811061054d5761054d6112f9565b905060200281019061055f9190611328565b610ef6565b60005a6105719083611395565b858481518110610583576105836112f9565b602002602001015161059591906113e5565b90506105a181876113e5565b95506105b889898581811061032b5761032b6112f9565b15610723576106068484815181106105d2576105d26112f9565b6020026020010151828b8b878181106105ed576105ed6112f9565b90506020028101906105ff9190611328565b9190610fe5565b6106bd6000808b8b8781811061061e5761061e6112f9565b90506020028101906106309190611328565b61064390610140810190610120016112ad565b73ffffffffffffffffffffffffffffffffffffffff16815260208082019290925260409081016000208151606081018352815481526001820154938101939093526002015460ff16151590820152828b8b878181106106a4576106a46112f9565b90506020028101906106b69190611328565b9190611062565b6000808b8b878181106106d2576106d26112f9565b90506020028101906106e49190611328565b6106f790610140810190610120016112ad565b73ffffffffffffffffffffffffffffffffffffffff168152602081019190915260400160002055610751565b610751818a8a86818110610739576107396112f9565b905060200281019061074b9190611328565b9061108c565b5050808061075e906113ac565b91505061052b565b5060008473ffffffffffffffffffffffffffffffffffffffff168460405160006040518083038185875af1925050503d80600081146107c1576040519150601f19603f3d011682016040523d82523d6000602084013e6107c6565b606091505b5050905080610836576040517f08c379a000000000000000000000000000000000000000000000000000000000815260206004820152601c60248201527f456e747279506f696e743a204661696c656420746f2072656465656d0000000060448201526064015b60405180910390fd5b50505050505050565b336000908152602081905260409020600101544210156108bb576040517f08c379a000000000000000000000000000000000000000000000000000000000815260206004820152601c60248201527f456e747279506f696e743a204c6f636b206e6f74206578706972656400000000604482015260640161082d565b336000908152602081905260408120600181019190915560020180547fffffffffffffffffffffffffffffffffffffffffffffffffffffffffffffff00169055565b3360009081526020819052604090206002015460ff161561097a576040517f08c379a000000000000000000000000000000000000000000000000000000000815260206004820152601b60248201527f456e747279506f696e743a205374616b65206973206c6f636b65640000000000604482015260640161082d565b3360009081526020819052604080822054905173ffffffffffffffffffffffffffffffffffffffff841691908381818185875af1925050503d80600081146109de576040519150601f19603f3d011682016040523d82523d6000602084013e6109e3565b606091505b5050905080156109fe57336000908152602081905260408120555b5050565b610a0f426202a3006113e5565b33600090815260208190526040902060018082019290925560020180547fffffffffffffffffffffffffffffffffffffffffffffffffffffffffffffff00169091179055565b6000610a6d610a6760208401846112ad565b3b151590565b158015610a865750610a8260408301836113fd565b1590505b15610aed576040517f08c379a000000000000000000000000000000000000000000000000000000000815260206004820181905260248201527f456e747279506f696e743a204e6f2077616c6c6574202620696e6974436f6465604482015260640161082d565b610afd610a6760208401846112ad565b158015610b175750610b1260408301836113fd565b151590505b92915050565b73ffffffffffffffffffffffffffffffffffffffff8116634af63f02610b4660408501856113fd565b6040517fffffffff0000000000000000000000000000000000000000000000000000000060e085901b168152610b869291906020880135906004016114b2565b602060405180830381600087803b158015610ba057600080fd5b505af1158015610bb4573d6000803e3d6000fd5b505050506040513d601f19601f82011682018060405250810190610bd891906114d6565b505050565b600080610bf2610140840161012085016112ad565b73ffffffffffffffffffffffffffffffffffffffff16141592915050565b60008160400151610c7d576040517f08c379a000000000000000000000000000000000000000000000000000000000815260206004820152601c60248201527f456e747279506f696e743a205374616b65206e6f74206c6f636b656400000000604482015260640161082d565b610c8683611171565b82511015610cf0576040517f08c379a000000000000000000000000000000000000000000000000000000000815260206004820152601e60248201527f456e747279506f696e743a20496e73756666696369656e74207374616b650000604482015260640161082d565b610cf983611171565b8251610d059190611395565b9392505050565b6060610d20610140830161012084016112ad565b73ffffffffffffffffffffffffffffffffffffffff16635765f46283610d4585611171565b6040518363ffffffff1660e01b8152600401610d62929190611557565b60006040518083038186803b158015610d7a57600080fd5b505afa158015610d8e573d6000803e3d6000fd5b505050506040513d6000823e601f3d9081017fffffffffffffffffffffffffffffffffffffffffffffffffffffffffffffffe0168201604052610b17919081019061178c565b6000610ddf82610bdd565b610df157610dec82611171565b610df4565b60005b905047610e0460208401846112ad565b73ffffffffffffffffffffffffffffffffffffffff16631058ea3c8460a0013585856040518463ffffffff1660e01b8152600401610e43929190611557565b600060405180830381600088803b158015610e5d57600080fd5b5087f1158015610e71573d6000803e3d6000fd5b505050505060008147610e849190611395565b905082811015610ef0576040517f08c379a000000000000000000000000000000000000000000000000000000000815260206004820152601d60248201527f456e747279506f696e743a20696e636f72726563742070726566756e64000000604482015260640161082d565b50505050565b600080610f0660208401846112ad565b73ffffffffffffffffffffffffffffffffffffffff166080840135610f2e60608601866113fd565b604051610f3c9291906117d5565b60006040518083038160008787f1925050503d8060008114610f7a576040519150601f19603f3d011682016040523d82523d6000602084013e610f7f565b606091505b509150915081610bd857604481511015610f9857600080fd5b60048101905080806020019051810190610fb2919061178c565b6040517f08c379a000000000000000000000000000000000000000000000000000000000815260040161082d919061182f565b610ff7610140840161012085016112ad565b73ffffffffffffffffffffffffffffffffffffffff1663a9a23409600084846040518463ffffffff1660e01b815260040161103493929190611842565b600060405180830381600087803b15801561104e57600080fd5b505af1158015610836573d6000803e3d6000fd5b60008161106e85611171565b845161107a91906113e5565b6110849190611395565b949350505050565b600061109b60208401846112ad565b73ffffffffffffffffffffffffffffffffffffffff16826110bb85611171565b6110c59190611395565b604051600081818185875af1925050503d8060008114611101576040519150601f19603f3d011682016040523d82523d6000602084013e611106565b606091505b5050905080610bd8576040517f08c379a000000000000000000000000000000000000000000000000000000000815260206004820152601c60248201527f456e747279506f696e743a204661696c656420746f20726566756e6400000000604482015260640161082d565b60008060c083013561118b60a085013560808601356113e5565b61119591906113e5565b905060008361010001358460e00135146111ca576111c560e08501356111c0486101008801356113e5565b6111dc565b6111d0565b8360e001355b905061108481836118a2565b60008183106111eb5781610d05565b5090919050565b73ffffffffffffffffffffffffffffffffffffffff8116811461121457600080fd5b50565b60008060006040848603121561122c57600080fd5b833567ffffffffffffffff8082111561124457600080fd5b818601915086601f83011261125857600080fd5b81358181111561126757600080fd5b8760208260051b850101111561127c57600080fd5b60209283019550935050840135611292816111f2565b809150509250925092565b80356112a8816111f2565b919050565b6000602082840312156112bf57600080fd5b8135610d05816111f2565b7f4e487b7100000000000000000000000000000000000000000000000000000000600052604160045260246000fd5b7f4e487b7100000000000000000000000000000000000000000000000000000000600052603260045260246000fd5b600082357ffffffffffffffffffffffffffffffffffffffffffffffffffffffffffffffe8183360301811261135c57600080fd5b9190910192915050565b7f4e487b7100000000000000000000000000000000000000000000000000000000600052601160045260246000fd5b6000828210156113a7576113a7611366565b500390565b60007fffffffffffffffffffffffffffffffffffffffffffffffffffffffffffffffff8214156113de576113de611366565b5060010190565b600082198211156113f8576113f8611366565b500190565b60008083357fffffffffffffffffffffffffffffffffffffffffffffffffffffffffffffffe184360301811261143257600080fd5b83018035915067ffffffffffffffff82111561144d57600080fd5b60200191503681900382131561146257600080fd5b9250929050565b8183528181602085013750600060208284010152600060207fffffffffffffffffffffffffffffffffffffffffffffffffffffffffffffffe0601f840116840101905092915050565b6040815260006114c6604083018587611469565b9050826020830152949350505050565b6000602082840312156114e857600080fd5b8151610d05816111f2565b60008083357fffffffffffffffffffffffffffffffffffffffffffffffffffffffffffffffe184360301811261152857600080fd5b830160208101925035905067ffffffffffffffff81111561154857600080fd5b80360383131561146257600080fd5b604081526115856040820161156b8561129d565b73ffffffffffffffffffffffffffffffffffffffff169052565b60208301356060820152600061159e60408501856114f3565b6101808060808601526115b66101c086018385611469565b92506115c560608801886114f3565b92507fffffffffffffffffffffffffffffffffffffffffffffffffffffffffffffffc0808786030160a08801526115fd858584611469565b9450608089013560c088015260a089013560e0880152610100935060c089013584880152610120915060e089013582880152610140848a013581890152611645838b0161129d565b9450610160925061166d8389018673ffffffffffffffffffffffffffffffffffffffff169052565b611679818b018b6114f3565b95509050818887030184890152611691868683611469565b9550506116a0828a018a6114f3565b9450925080878603016101a088015250506116bc838383611469565b93505050508260208301529392505050565b60005b838110156116e95781810151838201526020016116d1565b83811115610ef05750506000910152565b600067ffffffffffffffff80841115611715576117156112ca565b604051601f85017fffffffffffffffffffffffffffffffffffffffffffffffffffffffffffffffe0908116603f0116810190828211818310171561175b5761175b6112ca565b8160405280935085815286868601111561177457600080fd5b6117828660208301876116ce565b5050509392505050565b60006020828403121561179e57600080fd5b815167ffffffffffffffff8111156117b557600080fd5b8201601f810184136117c657600080fd5b611084848251602084016116fa565b8183823760009101908152919050565b600081518084526117fd8160208601602086016116ce565b601f017fffffffffffffffffffffffffffffffffffffffffffffffffffffffffffffffe0169290920160200192915050565b602081526000610d0560208301846117e5565b60006003851061187b577f4e487b7100000000000000000000000000000000000000000000000000000000600052602160045260246000fd5b8482526060602083015261189260608301856117e5565b9050826040830152949350505050565b6000817fffffffffffffffffffffffffffffffffffffffffffffffffffffffffffffffff04831182151516156118da576118da611366565b50029056fea2646970667358221220cc30175263c01e60d422372b8d29f60ed4bae38042727c58f7c52a62c4aa4e7364736f6c63430008090033",
  "linkReferences": {},
  "deployedLinkReferences": {}
}