{
  "_format": "hh-sol-artifact-1",
  "contractName": "Wallet",
  "sourceName": "contracts/ERC4337/Wallet.sol",
  "abi": [
    {
      "inputs": [],
      "stateMutability": "nonpayable",
      "type": "constructor"
    },
    {
      "anonymous": false,
      "inputs": [
        {
          "indexed": false,
          "internalType": "address",
          "name": "previousAdmin",
          "type": "address"
        },
        {
          "indexed": false,
          "internalType": "address",
          "name": "newAdmin",
          "type": "address"
        }
      ],
      "name": "AdminChanged",
      "type": "event"
    },
    {
      "anonymous": false,
      "inputs": [
        {
          "indexed": true,
          "internalType": "address",
          "name": "beacon",
          "type": "address"
        }
      ],
      "name": "BeaconUpgraded",
      "type": "event"
    },
    {
      "anonymous": false,
      "inputs": [
        {
          "indexed": true,
          "internalType": "bytes32",
          "name": "role",
          "type": "bytes32"
        },
        {
          "indexed": true,
          "internalType": "bytes32",
          "name": "previousAdminRole",
          "type": "bytes32"
        },
        {
          "indexed": true,
          "internalType": "bytes32",
          "name": "newAdminRole",
          "type": "bytes32"
        }
      ],
      "name": "RoleAdminChanged",
      "type": "event"
    },
    {
      "anonymous": false,
      "inputs": [
        {
          "indexed": true,
          "internalType": "bytes32",
          "name": "role",
          "type": "bytes32"
        },
        {
          "indexed": true,
          "internalType": "address",
          "name": "account",
          "type": "address"
        },
        {
          "indexed": true,
          "internalType": "address",
          "name": "sender",
          "type": "address"
        }
      ],
      "name": "RoleGranted",
      "type": "event"
    },
    {
      "anonymous": false,
      "inputs": [
        {
          "indexed": true,
          "internalType": "bytes32",
          "name": "role",
          "type": "bytes32"
        },
        {
          "indexed": true,
          "internalType": "address",
          "name": "account",
          "type": "address"
        },
        {
          "indexed": true,
          "internalType": "address",
          "name": "sender",
          "type": "address"
        }
      ],
      "name": "RoleRevoked",
      "type": "event"
    },
    {
      "anonymous": false,
      "inputs": [
        {
          "indexed": true,
          "internalType": "address",
          "name": "implementation",
          "type": "address"
        }
      ],
      "name": "Upgraded",
      "type": "event"
    },
    {
      "inputs": [],
      "name": "DEFAULT_ADMIN_ROLE",
      "outputs": [
        {
          "internalType": "bytes32",
          "name": "",
          "type": "bytes32"
        }
      ],
      "stateMutability": "view",
      "type": "function"
    },
    {
      "inputs": [],
      "name": "GUARDIAN_ROLE",
      "outputs": [
        {
          "internalType": "bytes32",
          "name": "",
          "type": "bytes32"
        }
      ],
      "stateMutability": "view",
      "type": "function"
    },
    {
      "inputs": [],
      "name": "OWNER_ROLE",
      "outputs": [
        {
          "internalType": "bytes32",
          "name": "",
          "type": "bytes32"
        }
      ],
      "stateMutability": "view",
      "type": "function"
    },
    {
      "inputs": [],
      "name": "entryPoint",
      "outputs": [
        {
          "internalType": "address",
          "name": "",
          "type": "address"
        }
      ],
      "stateMutability": "view",
      "type": "function"
    },
    {
      "inputs": [
        {
          "internalType": "address",
          "name": "to",
          "type": "address"
        },
        {
          "internalType": "uint256",
          "name": "value",
          "type": "uint256"
        },
        {
          "internalType": "bytes",
          "name": "data",
          "type": "bytes"
        }
      ],
      "name": "executeUserOp",
      "outputs": [],
      "stateMutability": "nonpayable",
      "type": "function"
    },
    {
      "inputs": [],
      "name": "getCurrentImplementation",
      "outputs": [
        {
          "internalType": "address",
          "name": "",
          "type": "address"
        }
      ],
      "stateMutability": "view",
      "type": "function"
    },
    {
      "inputs": [
        {
          "internalType": "uint256",
          "name": "index",
          "type": "uint256"
        }
      ],
      "name": "getGuardian",
      "outputs": [
        {
          "internalType": "address",
          "name": "",
          "type": "address"
        }
      ],
      "stateMutability": "view",
      "type": "function"
    },
    {
      "inputs": [],
      "name": "getGuardianCount",
      "outputs": [
        {
          "internalType": "uint256",
          "name": "",
          "type": "uint256"
        }
      ],
      "stateMutability": "view",
      "type": "function"
    },
    {
      "inputs": [
        {
          "internalType": "uint256",
          "name": "index",
          "type": "uint256"
        }
      ],
      "name": "getOwner",
      "outputs": [
        {
          "internalType": "address",
          "name": "",
          "type": "address"
        }
      ],
      "stateMutability": "view",
      "type": "function"
    },
    {
      "inputs": [],
      "name": "getOwnerCount",
      "outputs": [
        {
          "internalType": "uint256",
          "name": "",
          "type": "uint256"
        }
      ],
      "stateMutability": "view",
      "type": "function"
    },
    {
      "inputs": [
        {
          "internalType": "bytes32",
          "name": "role",
          "type": "bytes32"
        }
      ],
      "name": "getRoleAdmin",
      "outputs": [
        {
          "internalType": "bytes32",
          "name": "",
          "type": "bytes32"
        }
      ],
      "stateMutability": "view",
      "type": "function"
    },
    {
      "inputs": [
        {
          "internalType": "bytes32",
          "name": "role",
          "type": "bytes32"
        },
        {
          "internalType": "uint256",
          "name": "index",
          "type": "uint256"
        }
      ],
      "name": "getRoleMember",
      "outputs": [
        {
          "internalType": "address",
          "name": "",
          "type": "address"
        }
      ],
      "stateMutability": "view",
      "type": "function"
    },
    {
      "inputs": [
        {
          "internalType": "bytes32",
          "name": "role",
          "type": "bytes32"
        }
      ],
      "name": "getRoleMemberCount",
      "outputs": [
        {
          "internalType": "uint256",
          "name": "",
          "type": "uint256"
        }
      ],
      "stateMutability": "view",
      "type": "function"
    },
    {
      "inputs": [
        {
          "internalType": "address",
          "name": "guardian",
          "type": "address"
        }
      ],
      "name": "grantGuardian",
      "outputs": [],
      "stateMutability": "nonpayable",
      "type": "function"
    },
    {
      "inputs": [
        {
          "internalType": "bytes32",
          "name": "role",
          "type": "bytes32"
        },
        {
          "internalType": "address",
          "name": "account",
          "type": "address"
        }
      ],
      "name": "grantRole",
      "outputs": [],
      "stateMutability": "nonpayable",
      "type": "function"
    },
    {
      "inputs": [
        {
          "internalType": "bytes32",
          "name": "role",
          "type": "bytes32"
        },
        {
          "internalType": "address",
          "name": "account",
          "type": "address"
        }
      ],
      "name": "hasRole",
      "outputs": [
        {
          "internalType": "bool",
          "name": "",
          "type": "bool"
        }
      ],
      "stateMutability": "view",
      "type": "function"
    },
    {
      "inputs": [
        {
          "internalType": "address",
          "name": "_entryPoint",
          "type": "address"
        },
        {
          "internalType": "address",
          "name": "_owner",
          "type": "address"
        },
        {
          "internalType": "address[]",
          "name": "_guardians",
          "type": "address[]"
        }
      ],
      "name": "initialize",
      "outputs": [],
      "stateMutability": "nonpayable",
      "type": "function"
    },
    {
      "inputs": [
        {
          "internalType": "bytes32",
          "name": "hash",
          "type": "bytes32"
        },
        {
          "internalType": "bytes",
          "name": "signature",
          "type": "bytes"
        }
      ],
      "name": "isValidSignature",
      "outputs": [
        {
          "internalType": "bytes4",
          "name": "",
          "type": "bytes4"
        }
      ],
      "stateMutability": "view",
      "type": "function"
    },
    {
      "inputs": [],
      "name": "nonce",
      "outputs": [
        {
          "internalType": "uint256",
          "name": "",
          "type": "uint256"
        }
      ],
      "stateMutability": "view",
      "type": "function"
    },
    {
      "inputs": [
        {
          "internalType": "enum PostOpMode",
          "name": "mode",
          "type": "uint8"
        },
        {
          "internalType": "bytes",
          "name": "context",
          "type": "bytes"
        },
        {
          "internalType": "uint256",
          "name": "actualGasCost",
          "type": "uint256"
        }
      ],
      "name": "postOp",
      "outputs": [],
      "stateMutability": "nonpayable",
      "type": "function"
    },
    {
      "inputs": [
        {
          "internalType": "bytes32",
          "name": "role",
          "type": "bytes32"
        },
        {
          "internalType": "address",
          "name": "account",
          "type": "address"
        }
      ],
      "name": "renounceRole",
      "outputs": [],
      "stateMutability": "nonpayable",
      "type": "function"
    },
    {
      "inputs": [
        {
          "internalType": "address",
          "name": "guardian",
          "type": "address"
        }
      ],
      "name": "revokeGuardian",
      "outputs": [],
      "stateMutability": "nonpayable",
      "type": "function"
    },
    {
      "inputs": [
        {
          "internalType": "bytes32",
          "name": "role",
          "type": "bytes32"
        },
        {
          "internalType": "address",
          "name": "account",
          "type": "address"
        }
      ],
      "name": "revokeRole",
      "outputs": [],
      "stateMutability": "nonpayable",
      "type": "function"
    },
    {
      "inputs": [
        {
          "internalType": "bytes4",
          "name": "interfaceId",
          "type": "bytes4"
        }
      ],
      "name": "supportsInterface",
      "outputs": [
        {
          "internalType": "bool",
          "name": "",
          "type": "bool"
        }
      ],
      "stateMutability": "view",
      "type": "function"
    },
    {
      "inputs": [
        {
          "internalType": "address",
          "name": "newOwner",
          "type": "address"
        }
      ],
      "name": "transferOwner",
      "outputs": [],
      "stateMutability": "nonpayable",
      "type": "function"
    },
    {
      "inputs": [
        {
          "internalType": "address",
          "name": "newImplementation",
          "type": "address"
        }
      ],
      "name": "upgradeTo",
      "outputs": [],
      "stateMutability": "nonpayable",
      "type": "function"
    },
    {
      "inputs": [
        {
          "internalType": "address",
          "name": "newImplementation",
          "type": "address"
        },
        {
          "internalType": "bytes",
          "name": "data",
          "type": "bytes"
        }
      ],
      "name": "upgradeToAndCall",
      "outputs": [],
      "stateMutability": "payable",
      "type": "function"
    },
    {
      "inputs": [
        {
          "components": [
            {
              "internalType": "address",
              "name": "sender",
              "type": "address"
            },
            {
              "internalType": "uint256",
              "name": "nonce",
              "type": "uint256"
            },
            {
              "internalType": "bytes",
              "name": "initCode",
              "type": "bytes"
            },
            {
              "internalType": "bytes",
              "name": "callData",
              "type": "bytes"
            },
            {
              "internalType": "uint256",
              "name": "callGas",
              "type": "uint256"
            },
            {
              "internalType": "uint256",
              "name": "verificationGas",
              "type": "uint256"
            },
            {
              "internalType": "uint256",
              "name": "preVerificationGas",
              "type": "uint256"
            },
            {
              "internalType": "uint256",
              "name": "maxFeePerGas",
              "type": "uint256"
            },
            {
              "internalType": "uint256",
              "name": "maxPriorityFeePerGas",
              "type": "uint256"
            },
            {
              "internalType": "address",
              "name": "paymaster",
              "type": "address"
            },
            {
              "internalType": "bytes",
              "name": "paymasterData",
              "type": "bytes"
            },
            {
              "internalType": "bytes",
              "name": "signature",
              "type": "bytes"
            }
          ],
          "internalType": "struct UserOperation",
          "name": "userOp",
          "type": "tuple"
        },
        {
          "internalType": "uint256",
          "name": "maxcost",
          "type": "uint256"
        }
      ],
      "name": "validatePaymasterUserOp",
      "outputs": [
        {
          "internalType": "bytes",
          "name": "context",
          "type": "bytes"
        }
      ],
      "stateMutability": "view",
      "type": "function"
    },
    {
      "inputs": [
        {
          "components": [
            {
              "internalType": "address",
              "name": "sender",
              "type": "address"
            },
            {
              "internalType": "uint256",
              "name": "nonce",
              "type": "uint256"
            },
            {
              "internalType": "bytes",
              "name": "initCode",
              "type": "bytes"
            },
            {
              "internalType": "bytes",
              "name": "callData",
              "type": "bytes"
            },
            {
              "internalType": "uint256",
              "name": "callGas",
              "type": "uint256"
            },
            {
              "internalType": "uint256",
              "name": "verificationGas",
              "type": "uint256"
            },
            {
              "internalType": "uint256",
              "name": "preVerificationGas",
              "type": "uint256"
            },
            {
              "internalType": "uint256",
              "name": "maxFeePerGas",
              "type": "uint256"
            },
            {
              "internalType": "uint256",
              "name": "maxPriorityFeePerGas",
              "type": "uint256"
            },
            {
              "internalType": "address",
              "name": "paymaster",
              "type": "address"
            },
            {
              "internalType": "bytes",
              "name": "paymasterData",
              "type": "bytes"
            },
            {
              "internalType": "bytes",
              "name": "signature",
              "type": "bytes"
            }
          ],
          "internalType": "struct UserOperation",
          "name": "userOp",
          "type": "tuple"
        },
        {
          "internalType": "uint256",
          "name": "requiredPrefund",
          "type": "uint256"
        }
      ],
      "name": "validateUserOp",
      "outputs": [],
      "stateMutability": "nonpayable",
      "type": "function"
    },
    {
      "stateMutability": "payable",
      "type": "receive"
    }
  ],
  "bytecode": "0x60a0604052306080523480156200001557600080fd5b50600054610100900460ff168062000030575060005460ff16155b620000985760405162461bcd60e51b815260206004820152602e60248201527f496e697469616c697a61626c653a20636f6e747261637420697320616c72656160448201526d191e481a5b9a5d1a585b1a5e995960921b606482015260840160405180910390fd5b600054610100900460ff16158015620000bb576000805461ffff19166101011790555b8015620000ce576000805461ff00191690555b50608051614f506200010060003960008181610d1501528181610dc501528181610f380152610fe80152614f506000f3fe6080604052600436106101c65760003560e01c806367674a6f116100f7578063af648c3d11610095578063ca15c87311610064578063ca15c8731461058b578063d547741f146105ab578063e58378bb146105cb578063ef18374a146105e257600080fd5b8063af648c3d14610506578063affed0e014610526578063b0d691fe1461053d578063c41a360a1461056b57600080fd5b806391d14854116100d157806391d148541461045e57806394b1d2c0146104b1578063a217fddf146104d1578063a9a23409146104e657600080fd5b806367674a6f146103fe57806377a24f361461041e5780639010d07c1461043e57600080fd5b806336568abe116101645780634cc499d71161013e5780634cc499d71461037e5780634f1ef2861461039e5780634fb2e45d146103b15780635765f462146103d157600080fd5b806336568abe146103295780633659cfe61461034957806336aea01e1461036957600080fd5b8063248a9ca3116101a0578063248a9ca31461027a57806324ea54f4146102b857806329cca569146102cf5780632f2ff15d1461030957600080fd5b806301ffc9a7146101d25780631058ea3c146102075780631626ba7e1461022957600080fd5b366101cd57005b600080fd5b3480156101de57600080fd5b506101f26101ed3660046140a2565b6105f7565b60405190151581526020015b60405180910390f35b34801561021357600080fd5b506102276102223660046140bf565b610653565b005b34801561023557600080fd5b5061024961024436600461424d565b610b37565b6040517fffffffff0000000000000000000000000000000000000000000000000000000090911681526020016101fe565b34801561028657600080fd5b506102aa610295366004614294565b600090815260c9602052604090206001015490565b6040519081526020016101fe565b3480156102c457600080fd5b506102aa6101305481565b3480156102db57600080fd5b506102e4610bda565b60405173ffffffffffffffffffffffffffffffffffffffff90911681526020016101fe565b34801561031557600080fd5b506102276103243660046142cf565b610c1f565b34801561033557600080fd5b506102276103443660046142cf565b610c4a565b34801561035557600080fd5b506102276103643660046142ff565b610cfd565b34801561037557600080fd5b506102aa610f03565b34801561038a57600080fd5b506102e4610399366004614294565b610f11565b6102276103ac36600461431c565b610f20565b3480156103bd57600080fd5b506102276103cc3660046142ff565b611113565b3480156103dd57600080fd5b506103f16103ec3660046140bf565b6111bc565b6040516101fe91906143cc565b34801561040a57600080fd5b50610227610419366004614421565b6112e4565b34801561042a57600080fd5b506102276104393660046144a1565b611441565b34801561044a57600080fd5b506102e4610459366004614562565b611654565b34801561046a57600080fd5b506101f26104793660046142cf565b600091825260c96020908152604080842073ffffffffffffffffffffffffffffffffffffffff93909316845291905290205460ff1690565b3480156104bd57600080fd5b506102276104cc3660046142ff565b61166c565b3480156104dd57600080fd5b506102aa600081565b3480156104f257600080fd5b50610227610501366004614584565b611799565b34801561051257600080fd5b506102276105213660046142ff565b6119d3565b34801561053257600080fd5b506102aa61012d5481565b34801561054957600080fd5b5061012e546102e49073ffffffffffffffffffffffffffffffffffffffff1681565b34801561057757600080fd5b506102e4610586366004614294565b611a62565b34801561059757600080fd5b506102aa6105a6366004614294565b611a71565b3480156105b757600080fd5b506102276105c63660046142cf565b611a88565b3480156105d757600080fd5b506102aa61012f5481565b3480156105ee57600080fd5b506102aa611aae565b60007fffffffff0000000000000000000000000000000000000000000000000000000082167f5a05180f00000000000000000000000000000000000000000000000000000000148061064d575061064d82611abc565b92915050565b61012e5473ffffffffffffffffffffffffffffffffffffffff1633146106da576040517f08c379a000000000000000000000000000000000000000000000000000000000815260206004820152601b60248201527f57616c6c65743a204e6f742066726f6d20456e747279506f696e74000000000060448201526064015b60405180910390fd5b60006106e583611b53565b90506000815160018111156106fc576106fc6145e4565b14156107a95761073e61012f54610479836020015160008151811061072357610723614613565b60200260200101516020015186611bdd90919063ffffffff16565b6107a4576040517f08c379a000000000000000000000000000000000000000000000000000000000815260206004820152601960248201527f57616c6c65743a20496e76616c6964206f776e6572207369670000000000000060448201526064016106d1565b610a41565b6107b38383611bf2565b610819576040517f08c379a000000000000000000000000000000000000000000000000000000000815260206004820152601f60248201527f57616c6c65743a20496e76616c696420677561726469616e20616374696f6e0060448201526064016106d1565b61082f61082861013054611a71565b6002611cde565b816020015151101561089d576040517f08c379a000000000000000000000000000000000000000000000000000000000815260206004820152601e60248201527f57616c6c65743a20496e73756666696369656e7420677561726469616e73000060448201526064016106d1565b60005b816020015151811015610a3f57610904826020015182815181106108c6576108c6614613565b602002602001015160000151836020015183815181106108e8576108e8614613565b60200260200101516020015186611d109092919063ffffffff16565b61096a576040517f08c379a000000000000000000000000000000000000000000000000000000000815260206004820152601c60248201527f57616c6c65743a20496e76616c696420677561726469616e207369670000000060448201526064016106d1565b6109c7610130548360200151838151811061098757610987614613565b60209081029190910181015151600092835260c98252604080842073ffffffffffffffffffffffffffffffffffffffff9092168452915290205460ff1690565b610a2d576040517f08c379a000000000000000000000000000000000000000000000000000000000815260206004820152601660248201527f57616c6c65743a204e6f74206120677561726469616e0000000000000000000060448201526064016106d1565b80610a3781614671565b9150506108a0565b505b826020013561012d5414610ab1576040517f08c379a000000000000000000000000000000000000000000000000000000000815260206004820152601560248201527f57616c6c65743a20496e76616c6964206e6f6e6365000000000000000000000060448201526064016106d1565b8115610b1c5761012e5460405160009173ffffffffffffffffffffffffffffffffffffffff169084908381818185875af1925050503d8060008114610b12576040519150601f19603f3d011682016040523d82523d6000602084013e610b17565b606091505b505050505b61012d8054906000610b2d83614671565b9190505550505050565b61012f54600090610b4c906104798585611d2d565b610bb2576040517f08c379a000000000000000000000000000000000000000000000000000000000815260206004820152601960248201527f57616c6c65743a20496e76616c6964207369676e61747572650000000000000060448201526064016106d1565b507f1626ba7e0000000000000000000000000000000000000000000000000000000092915050565b6000610c1a7f360894a13ba1a3210667c828492db98dca3e2076cc3735a920a3ca505d382bbc5473ffffffffffffffffffffffffffffffffffffffff1690565b905090565b600082815260c96020526040902060010154610c3b8133611d51565b610c458383611e23565b505050565b73ffffffffffffffffffffffffffffffffffffffff81163314610cef576040517f08c379a000000000000000000000000000000000000000000000000000000000815260206004820152602f60248201527f416363657373436f6e74726f6c3a2063616e206f6e6c792072656e6f756e636560448201527f20726f6c657320666f722073656c66000000000000000000000000000000000060648201526084016106d1565b610cf98282611e45565b5050565b3073ffffffffffffffffffffffffffffffffffffffff7f0000000000000000000000000000000000000000000000000000000000000000161415610dc3576040517f08c379a000000000000000000000000000000000000000000000000000000000815260206004820152602c60248201527f46756e6374696f6e206d7573742062652063616c6c6564207468726f7567682060448201527f64656c656761746563616c6c000000000000000000000000000000000000000060648201526084016106d1565b7f000000000000000000000000000000000000000000000000000000000000000073ffffffffffffffffffffffffffffffffffffffff16610e387f360894a13ba1a3210667c828492db98dca3e2076cc3735a920a3ca505d382bbc5473ffffffffffffffffffffffffffffffffffffffff1690565b73ffffffffffffffffffffffffffffffffffffffff1614610edb576040517f08c379a000000000000000000000000000000000000000000000000000000000815260206004820152602c60248201527f46756e6374696f6e206d7573742062652063616c6c6564207468726f7567682060448201527f6163746976652070726f7879000000000000000000000000000000000000000060648201526084016106d1565b610ee481611e67565b60408051600080825260208201909252610f0091839190611ee9565b50565b6000610c1a61013054611a71565b600061064d6101305483611654565b3073ffffffffffffffffffffffffffffffffffffffff7f0000000000000000000000000000000000000000000000000000000000000000161415610fe6576040517f08c379a000000000000000000000000000000000000000000000000000000000815260206004820152602c60248201527f46756e6374696f6e206d7573742062652063616c6c6564207468726f7567682060448201527f64656c656761746563616c6c000000000000000000000000000000000000000060648201526084016106d1565b7f000000000000000000000000000000000000000000000000000000000000000073ffffffffffffffffffffffffffffffffffffffff1661105b7f360894a13ba1a3210667c828492db98dca3e2076cc3735a920a3ca505d382bbc5473ffffffffffffffffffffffffffffffffffffffff1690565b73ffffffffffffffffffffffffffffffffffffffff16146110fe576040517f08c379a000000000000000000000000000000000000000000000000000000000815260206004820152602c60248201527f46756e6374696f6e206d7573742062652063616c6c6564207468726f7567682060448201527f6163746976652070726f7879000000000000000000000000000000000000000060648201526084016106d1565b61110782611e67565b610cf982826001611ee9565b61012e5473ffffffffffffffffffffffffffffffffffffffff163314611195576040517f08c379a000000000000000000000000000000000000000000000000000000000815260206004820152601b60248201527f57616c6c65743a204e6f742066726f6d20456e747279506f696e74000000000060448201526064016106d1565b6111af61012f546111aa61012f546000611654565b611e45565b610f0061012f5482611e23565b60606111ce61012f5461047985612148565b611234576040517f08c379a000000000000000000000000000000000000000000000000000000000815260206004820152601c60248201527f5061796d61737465723a20496e76616c6964207369676e61747572650000000060448201526064016106d1565b61123e8383612379565b801561124f575061124f838361246c565b8061125f575061125f8383612488565b8061126e575061126e836124a4565b6112d4576040517f08c379a000000000000000000000000000000000000000000000000000000000815260206004820152601760248201527f5061796d61737465723a204e6f7420617070726f76656400000000000000000060448201526064016106d1565b6112dd836124b9565b9392505050565b61012e5473ffffffffffffffffffffffffffffffffffffffff163314611366576040517f08c379a000000000000000000000000000000000000000000000000000000000815260206004820152601b60248201527f57616c6c65743a204e6f742066726f6d20456e747279506f696e74000000000060448201526064016106d1565b6000808573ffffffffffffffffffffffffffffffffffffffff168585856040516113919291906146aa565b60006040518083038185875af1925050503d80600081146113ce576040519150601f19603f3d011682016040523d82523d6000602084013e6113d3565b606091505b509150915081611439576044815110156113ec57600080fd5b6004810190508080602001905181019061140691906146ba565b6040517f08c379a00000000000000000000000000000000000000000000000000000000081526004016106d191906143cc565b505050505050565b600054610100900460ff168061145a575060005460ff16155b6114e6576040517f08c379a000000000000000000000000000000000000000000000000000000000815260206004820152602e60248201527f496e697469616c697a61626c653a20636f6e747261637420697320616c72656160448201527f647920696e697469616c697a656400000000000000000000000000000000000060648201526084016106d1565b600054610100900460ff1615801561152557600080547fffffffffffffffffffffffffffffffffffffffffffffffffffffffffffff0000166101011790555b61152d612535565b61153561265a565b61012e80547fffffffffffffffffffffffff00000000000000000000000000000000000000001673ffffffffffffffffffffffffffffffffffffffff86161790557fb19546dff01e856fb3f010c267a7b1c60363cf8a4664e21cc89c26224620214e61012f8190557f55435dd261a4b9b3364963f7738a7a662ad9c84396d64be3365284bb7f0a50416101308190556115cd9161274e565b6115da61012f5484611e23565b60005b825181101561161e5761160c610130548483815181106115ff576115ff614613565b6020026020010151611e23565b8061161681614671565b9150506115dd565b50801561164e57600080547fffffffffffffffffffffffffffffffffffffffffffffffffffffffffffff00ff1690555b50505050565b600082815260fb602052604081206112dd9083612799565b61012e5473ffffffffffffffffffffffffffffffffffffffff1633146116ee576040517f08c379a000000000000000000000000000000000000000000000000000000000815260206004820152601b60248201527f57616c6c65743a204e6f742066726f6d20456e747279506f696e74000000000060448201526064016106d1565b61012f54600090815260c96020908152604080832073ffffffffffffffffffffffffffffffffffffffff8516845290915290205460ff161561178c576040517f08c379a000000000000000000000000000000000000000000000000000000000815260206004820181905260248201527f57616c6c65743a204f776e65722063616e6e6f7420626520677561726469616e60448201526064016106d1565b610f006101305482611e23565b61012e5473ffffffffffffffffffffffffffffffffffffffff16331461181b576040517f08c379a000000000000000000000000000000000000000000000000000000000815260206004820152601b60248201527f57616c6c65743a204e6f742066726f6d20456e747279506f696e74000000000060448201526064016106d1565b600080808061182c86880188614728565b935093509350935060008373ffffffffffffffffffffffffffffffffffffffff1663313ce5676040518163ffffffff1660e01b815260040160206040518083038186803b15801561187c57600080fd5b505afa158015611890573d6000803e3d6000fd5b505050506040513d601f19601f820116820180604052508101906118b4919061476e565b6118bf90600a6148b1565b905073ffffffffffffffffffffffffffffffffffffffff84166323b872dd8630856118f286670de0b6b3a76400006148c0565b866118fd8a8e6148c0565b61190791906148c0565b611911919061492c565b61191b9190614940565b6040517fffffffff0000000000000000000000000000000000000000000000000000000060e086901b16815273ffffffffffffffffffffffffffffffffffffffff93841660048201529290911660248301526044820152606401602060405180830381600087803b15801561198f57600080fd5b505af11580156119a3573d6000803e3d6000fd5b505050506040513d601f19601f820116820180604052508101906119c79190614958565b50505050505050505050565b61012e5473ffffffffffffffffffffffffffffffffffffffff163314611a55576040517f08c379a000000000000000000000000000000000000000000000000000000000815260206004820152601b60248201527f57616c6c65743a204e6f742066726f6d20456e747279506f696e74000000000060448201526064016106d1565b610f006101305482611e45565b600061064d61012f5483611654565b600081815260fb6020526040812061064d906127a5565b600082815260c96020526040902060010154611aa48133611d51565b610c458383611e45565b6000610c1a61012f54611a71565b60007fffffffff0000000000000000000000000000000000000000000000000000000082167f7965db0b00000000000000000000000000000000000000000000000000000000148061064d57507f01ffc9a7000000000000000000000000000000000000000000000000000000007fffffffff0000000000000000000000000000000000000000000000000000000083161461064d565b604080518082019091526000815260606020820152600080611b7961016085018561497a565b810190611b8691906149df565b91509150611ba560408051808201909152600081526060602082015290565b80836001811115611bb857611bb86145e4565b90816001811115611bcb57611bcb6145e4565b90525060208101919091529392505050565b60006112dd82611bec856127af565b90611d2d565b6000611c01606084018461497a565b15159050611c115750600061064d565b611c1f61014084018461497a565b1580159150611c335750611c338383612488565b806112dd575060408051808201909152601681527f7472616e736665724f776e6572286164647265737329000000000000000000006020909101527f4fb2e45d00000000000000000000000000000000000000000000000000000000611c9c606085018561497a565b611cab91600491600091614b0d565b611cb491614b37565b7fffffffff0000000000000000000000000000000000000000000000000000000016149392505050565b6000611cea8284614b7f565b15611cf6576001611cf9565b60005b60ff16611d06838561492c565b6112dd9190614940565b6000611d2583611d1f866127af565b846128e2565b949350505050565b6000806000611d3c8585612ad1565b91509150611d4981612b41565b509392505050565b600082815260c96020908152604080832073ffffffffffffffffffffffffffffffffffffffff8516845290915290205460ff16610cf957611da98173ffffffffffffffffffffffffffffffffffffffff166014612d9a565b611db4836020612d9a565b604051602001611dc5929190614b93565b604080517fffffffffffffffffffffffffffffffffffffffffffffffffffffffffffffffe0818403018152908290527f08c379a00000000000000000000000000000000000000000000000000000000082526106d1916004016143cc565b611e2d8282612fdd565b600082815260fb60205260409020610c4590826130d1565b611e4f82826130f3565b600082815260fb60205260409020610c4590826131ae565b61012e5473ffffffffffffffffffffffffffffffffffffffff163314610f00576040517f08c379a000000000000000000000000000000000000000000000000000000000815260206004820152601b60248201527f57616c6c65743a204e6f742066726f6d20456e747279506f696e74000000000060448201526064016106d1565b6000611f297f360894a13ba1a3210667c828492db98dca3e2076cc3735a920a3ca505d382bbc5473ffffffffffffffffffffffffffffffffffffffff1690565b9050611f34846131d0565b600083511180611f415750815b15611f5257611f5084846132c4565b505b7f4910fdfa16fed3260ed0e7147f7cc6da11a60208b5b9406d12a635614ffd9143805460ff166121415780547fffffffffffffffffffffffffffffffffffffffffffffffffffffffffffffff0016600117815560405173ffffffffffffffffffffffffffffffffffffffff83166024820152612048908690604401604080517fffffffffffffffffffffffffffffffffffffffffffffffffffffffffffffffe08184030181529190526020810180517bffffffffffffffffffffffffffffffffffffffffffffffffffffffff167f3659cfe6000000000000000000000000000000000000000000000000000000001790526132c4565b5080547fffffffffffffffffffffffffffffffffffffffffffffffffffffffffffffff001681557f360894a13ba1a3210667c828492db98dca3e2076cc3735a920a3ca505d382bbc5473ffffffffffffffffffffffffffffffffffffffff838116911614612138576040517f08c379a000000000000000000000000000000000000000000000000000000000815260206004820152602f60248201527f45524331393637557067726164653a207570677261646520627265616b73206660448201527f757274686572207570677261646573000000000000000000000000000000000060648201526084016106d1565b612141856133ed565b5050505050565b6000806121548361343a565b60608101519091506112dd90611bec61217060208701876142ff565b6020870135612182604089018961497a565b6040516121909291906146aa565b6040519081900390206121a660608a018a61497a565b6040516121b49291906146aa565b604051809103902089608001358a60a001358b60c001358c60e001358d61010001358e6101200160208101906121ea91906142ff565b8d600001518e602001518f6040015160405160200161224593929190928352606091821b7fffffffffffffffffffffffffffffffffffffffff0000000000000000000000009081166020850152911b16603482015260480190565b604080517fffffffffffffffffffffffffffffffffffffffffffffffffffffffffffffffe08184030181529082905280516020918201207fffffffffffffffffffffffffffffffffffffffff00000000000000000000000060609d8e1b811692840192909252603483019b909b5260548201999099526074810197909752609487019590955260b486019390935260d485019190915260f484015261011483015290931b16610134830152610148820152610168015b604080517fffffffffffffffffffffffffffffffffffffffffffffffffffffffffffffffe081840301815282825280516020918201207f19457468657265756d205369676e6564204d6573736167653a0a33320000000084830152603c8085019190915282518085039091018152605c909301909152815191012090565b6000806123858461343a565b9050612391848461350c565b60208083015173ffffffffffffffffffffffffffffffffffffffff169063dd62ed3e906123c0908801886142ff565b6040517fffffffff0000000000000000000000000000000000000000000000000000000060e084901b16815273ffffffffffffffffffffffffffffffffffffffff909116600482015230602482015260440160206040518083038186803b15801561242a57600080fd5b505afa15801561243e573d6000803e3d6000fd5b505050506040513d601f19601f820116820180604052508101906124629190614c14565b1015949350505050565b600061247783613600565b15806112dd57506112dd8383613709565b600061249383613600565b80156112dd57506112dd8383613709565b6000806124b08361343a565b51159392505050565b606060006124c68361343a565b90506124d560208401846142ff565b81602001516124e3856137c4565b83516040805173ffffffffffffffffffffffffffffffffffffffff958616602082015294909316928401929092526060830152608082015260a001604051602081830303815290604052915050919050565b600054610100900460ff168061254e575060005460ff16155b6125da576040517f08c379a000000000000000000000000000000000000000000000000000000000815260206004820152602e60248201527f496e697469616c697a61626c653a20636f6e747261637420697320616c72656160448201527f647920696e697469616c697a656400000000000000000000000000000000000060648201526084016106d1565b600054610100900460ff1615801561261957600080547fffffffffffffffffffffffffffffffffffffffffffffffffffffffffffff0000166101011790555b61262161397f565b61262961397f565b8015610f0057600080547fffffffffffffffffffffffffffffffffffffffffffffffffffffffffffff00ff16905550565b600054610100900460ff1680612673575060005460ff16155b6126ff576040517f08c379a000000000000000000000000000000000000000000000000000000000815260206004820152602e60248201527f496e697469616c697a61626c653a20636f6e747261637420697320616c72656160448201527f647920696e697469616c697a656400000000000000000000000000000000000060648201526084016106d1565b600054610100900460ff1615801561273e57600080547fffffffffffffffffffffffffffffffffffffffffffffffffffffffffffff0000166101011790555b61274661397f565b61261961397f565b600082815260c96020526040808220600101805490849055905190918391839186917fbd79b86ffe0ab8e8776151514217cd7cacd52c909f66475c3af44e129f0b00ff9190a4505050565b60006112dd8383613a93565b600061064d825490565b600061064d6127c160208401846142ff565b60208401356127d3604086018661497a565b6040516127e19291906146aa565b6040519081900390206127f7606087018761497a565b6040516128059291906146aa565b604051908190039020608087013560a088013560c089013560e08a01356101008b013561283a6101408d016101208e016142ff565b6128486101408e018e61497a565b6040516128569291906146aa565b6040519081900381207fffffffffffffffffffffffffffffffffffffffff00000000000000000000000060609c8d1b81166020840152603483019b909b5260548201999099526074810197909752609487019590955260b486019390935260d485019190915260f484015261011483015290931b909116610134830152610148820152610168016122fb565b60008060006128f18585612ad1565b9092509050600081600481111561290a5761290a6145e4565b14801561294257508573ffffffffffffffffffffffffffffffffffffffff168273ffffffffffffffffffffffffffffffffffffffff16145b15612952576001925050506112dd565b6000808773ffffffffffffffffffffffffffffffffffffffff16631626ba7e60e01b8888604051602401612987929190614c2d565b604080517fffffffffffffffffffffffffffffffffffffffffffffffffffffffffffffffe08184030181529181526020820180517bffffffffffffffffffffffffffffffffffffffffffffffffffffffff167fffffffff00000000000000000000000000000000000000000000000000000000909416939093179092529051612a109190614c46565b600060405180830381855afa9150503d8060008114612a4b576040519150601f19603f3d011682016040523d82523d6000602084013e612a50565b606091505b5091509150818015612a63575080516020145b8015612ac5575080517f1626ba7e0000000000000000000000000000000000000000000000000000000090612aa19083016020908101908401614c62565b7fffffffff0000000000000000000000000000000000000000000000000000000016145b98975050505050505050565b600080825160411415612b085760208301516040840151606085015160001a612afc87828585613abd565b94509450505050612b3a565b825160401415612b325760208301516040840151612b27868383613bd5565b935093505050612b3a565b506000905060025b9250929050565b6000816004811115612b5557612b556145e4565b1415612b5e5750565b6001816004811115612b7257612b726145e4565b1415612bda576040517f08c379a000000000000000000000000000000000000000000000000000000000815260206004820152601860248201527f45434453413a20696e76616c6964207369676e6174757265000000000000000060448201526064016106d1565b6002816004811115612bee57612bee6145e4565b1415612c56576040517f08c379a000000000000000000000000000000000000000000000000000000000815260206004820152601f60248201527f45434453413a20696e76616c6964207369676e6174757265206c656e6774680060448201526064016106d1565b6003816004811115612c6a57612c6a6145e4565b1415612cf8576040517f08c379a000000000000000000000000000000000000000000000000000000000815260206004820152602260248201527f45434453413a20696e76616c6964207369676e6174757265202773272076616c60448201527f756500000000000000000000000000000000000000000000000000000000000060648201526084016106d1565b6004816004811115612d0c57612d0c6145e4565b1415610f00576040517f08c379a000000000000000000000000000000000000000000000000000000000815260206004820152602260248201527f45434453413a20696e76616c6964207369676e6174757265202776272076616c60448201527f756500000000000000000000000000000000000000000000000000000000000060648201526084016106d1565b60606000612da98360026148c0565b612db4906002614940565b67ffffffffffffffff811115612dcc57612dcc61410a565b6040519080825280601f01601f191660200182016040528015612df6576020820181803683370190505b5090507f300000000000000000000000000000000000000000000000000000000000000081600081518110612e2d57612e2d614613565b60200101907effffffffffffffffffffffffffffffffffffffffffffffffffffffffffffff1916908160001a9053507f780000000000000000000000000000000000000000000000000000000000000081600181518110612e9057612e90614613565b60200101907effffffffffffffffffffffffffffffffffffffffffffffffffffffffffffff1916908160001a9053506000612ecc8460026148c0565b612ed7906001614940565b90505b6001811115612f74577f303132333435363738396162636465660000000000000000000000000000000085600f1660108110612f1857612f18614613565b1a60f81b828281518110612f2e57612f2e614613565b60200101907effffffffffffffffffffffffffffffffffffffffffffffffffffffffffffff1916908160001a90535060049490941c93612f6d81614c7f565b9050612eda565b5083156112dd576040517f08c379a000000000000000000000000000000000000000000000000000000000815260206004820181905260248201527f537472696e67733a20686578206c656e67746820696e73756666696369656e7460448201526064016106d1565b600082815260c96020908152604080832073ffffffffffffffffffffffffffffffffffffffff8516845290915290205460ff16610cf957600082815260c96020908152604080832073ffffffffffffffffffffffffffffffffffffffff85168452909152902080547fffffffffffffffffffffffffffffffffffffffffffffffffffffffffffffff001660011790556130733390565b73ffffffffffffffffffffffffffffffffffffffff168173ffffffffffffffffffffffffffffffffffffffff16837f2f8788117e7eff1d82e926ec794901d17c78024a50270940304540a733656f0d60405160405180910390a45050565b60006112dd8373ffffffffffffffffffffffffffffffffffffffff8416613c1d565b600082815260c96020908152604080832073ffffffffffffffffffffffffffffffffffffffff8516845290915290205460ff1615610cf957600082815260c96020908152604080832073ffffffffffffffffffffffffffffffffffffffff8516808552925280832080547fffffffffffffffffffffffffffffffffffffffffffffffffffffffffffffff0016905551339285917ff6391f5c32d9c69d2a47ea670b442974b53935d1edc7fd64eb21e047a839171b9190a45050565b60006112dd8373ffffffffffffffffffffffffffffffffffffffff8416613c6c565b803b61325e576040517f08c379a000000000000000000000000000000000000000000000000000000000815260206004820152602d60248201527f455243313936373a206e657720696d706c656d656e746174696f6e206973206e60448201527f6f74206120636f6e74726163740000000000000000000000000000000000000060648201526084016106d1565b7f360894a13ba1a3210667c828492db98dca3e2076cc3735a920a3ca505d382bbc80547fffffffffffffffffffffffff00000000000000000000000000000000000000001673ffffffffffffffffffffffffffffffffffffffff92909216919091179055565b6060823b613354576040517f08c379a000000000000000000000000000000000000000000000000000000000815260206004820152602660248201527f416464726573733a2064656c65676174652063616c6c20746f206e6f6e2d636f60448201527f6e7472616374000000000000000000000000000000000000000000000000000060648201526084016106d1565b6000808473ffffffffffffffffffffffffffffffffffffffff168460405161337c9190614c46565b600060405180830381855af49150503d80600081146133b7576040519150601f19603f3d011682016040523d82523d6000602084013e6133bc565b606091505b50915091506133e48282604051806060016040528060278152602001614ef460279139613d5f565b95945050505050565b6133f6816131d0565b60405173ffffffffffffffffffffffffffffffffffffffff8216907fbc7cd75a20ee27fd9adebab32041f755214dbc6bffa90cc0225b39da2e5c2d3b90600090a250565b604080516080810182526000808252602082018190529181018290526060808201529080808061346e61014087018761497a565b81019061347b9190614cb4565b93509350935093506134da604051806080016040528060008152602001600073ffffffffffffffffffffffffffffffffffffffff168152602001600073ffffffffffffffffffffffffffffffffffffffff168152602001606081525090565b93845273ffffffffffffffffffffffffffffffffffffffff928316602085015291166040830152606082015292915050565b6000806135188461343a565b90506000816020015173ffffffffffffffffffffffffffffffffffffffff1663313ce5676040518163ffffffff1660e01b815260040160206040518083038186803b15801561356657600080fd5b505afa15801561357a573d6000803e3d6000fd5b505050506040513d601f19601f8201168201806040525081019061359e919061476e565b6135a990600a6148b1565b905060006135bf82670de0b6b3a76400006148c0565b826135c9886137c4565b6135d390886148c0565b6135dd91906148c0565b6135e7919061492c565b83519091506135f69082614940565b9695505050505050565b600061360b82613db2565b61361757506000919050565b600061362283613e45565b9050600061362f8461343a565b9050806020015173ffffffffffffffffffffffffffffffffffffffff16826000015173ffffffffffffffffffffffffffffffffffffffff16148015611d255750604080518082018252601881527f617070726f766528616464726573732c75696e743235362900000000000000006020909101528201517f095ea7b300000000000000000000000000000000000000000000000000000000906136d59060006004613efa565b6136de90614d20565b7fffffffff000000000000000000000000000000000000000000000000000000001614949350505050565b600061371483613db2565b6137205750600061064d565b600061372b84613e45565b9050600080613750836040015160048086604001515161374b9190614d70565b613efa565b8060200190518101906137639190614d87565b909250905061377a610140870161012088016142ff565b73ffffffffffffffffffffffffffffffffffffffff168273ffffffffffffffffffffffffffffffffffffffff161480156135f657506137b9868661350c565b111595945050505050565b6000806137d08361343a565b90506000816040015173ffffffffffffffffffffffffffffffffffffffff1663feaf968c6040518163ffffffff1660e01b815260040160a06040518083038186803b15801561381e57600080fd5b505afa158015613832573d6000803e3d6000fd5b505050506040513d601f19601f820116820180604052508101906138569190614dd4565b505050915050816020015173ffffffffffffffffffffffffffffffffffffffff1663313ce5676040518163ffffffff1660e01b815260040160206040518083038186803b1580156138a657600080fd5b505afa1580156138ba573d6000803e3d6000fd5b505050506040513d601f19601f820116820180604052508101906138de919061476e565b826040015173ffffffffffffffffffffffffffffffffffffffff1663313ce5676040518163ffffffff1660e01b815260040160206040518083038186803b15801561392857600080fd5b505afa15801561393c573d6000803e3d6000fd5b505050506040513d601f19601f82011682018060405250810190613960919061476e565b61396a9190614e24565b61397590600a6148b1565b611d25908261492c565b600054610100900460ff1680613998575060005460ff16155b613a24576040517f08c379a000000000000000000000000000000000000000000000000000000000815260206004820152602e60248201527f496e697469616c697a61626c653a20636f6e747261637420697320616c72656160448201527f647920696e697469616c697a656400000000000000000000000000000000000060648201526084016106d1565b600054610100900460ff1615801561262957600080547fffffffffffffffffffffffffffffffffffffffffffffffffffffffffffff0000166101011790558015610f0057600080547fffffffffffffffffffffffffffffffffffffffffffffffffffffffffffff00ff16905550565b6000826000018281548110613aaa57613aaa614613565b9060005260206000200154905092915050565b6000807f7fffffffffffffffffffffffffffffff5d576e7357a4501ddfe92f46681b20a0831115613af45750600090506003613bcc565b8460ff16601b14158015613b0c57508460ff16601c14155b15613b1d5750600090506004613bcc565b6040805160008082526020820180845289905260ff881692820192909252606081018690526080810185905260019060a0016020604051602081039080840390855afa158015613b71573d6000803e3d6000fd5b50506040517fffffffffffffffffffffffffffffffffffffffffffffffffffffffffffffffe0015191505073ffffffffffffffffffffffffffffffffffffffff8116613bc557600060019250925050613bcc565b9150600090505b94509492505050565b6000807f7fffffffffffffffffffffffffffffffffffffffffffffffffffffffffffffff831660ff84901c601b01613c0f87828885613abd565b935093505050935093915050565b6000818152600183016020526040812054613c645750815460018181018455600084815260208082209093018490558454848252828601909352604090209190915561064d565b50600061064d565b60008181526001830160205260408120548015613d55576000613c90600183614d70565b8554909150600090613ca490600190614d70565b9050818114613d09576000866000018281548110613cc457613cc4614613565b9060005260206000200154905080876000018481548110613ce757613ce7614613565b6000918252602080832090910192909255918252600188019052604090208390555b8554869080613d1a57613d1a614e47565b60019003818190600052602060002001600090559055856001016000868152602001908152602001600020600090556001935050505061064d565b600091505061064d565b60608315613d6e5750816112dd565b825115613d7e5782518084602001fd5b816040517f08c379a00000000000000000000000000000000000000000000000000000000081526004016106d191906143cc565b6000604051806060016040528060248152602001614ed06024913980516020909101207fffffffff0000000000000000000000000000000000000000000000000000000016613e04606084018461497a565b613e1391600491600091614b0d565b613e1c91614b37565b7fffffffff00000000000000000000000000000000000000000000000000000000161492915050565b6040805160608082018352600080835260208301529181019190915260008080613e72606086018661497a565b613e80916004908290614b0d565b810190613e8d9190614e76565b925092509250613ecd6040518060600160405280600073ffffffffffffffffffffffffffffffffffffffff16815260200160008152602001606081525090565b73ffffffffffffffffffffffffffffffffffffffff90931683526020830191909152604082015292915050565b606081613f0881601f614940565b1015613f70576040517f08c379a000000000000000000000000000000000000000000000000000000000815260206004820152600e60248201527f736c6963655f6f766572666c6f7700000000000000000000000000000000000060448201526064016106d1565b613f7a8284614940565b84511015613fe4576040517f08c379a000000000000000000000000000000000000000000000000000000000815260206004820152601160248201527f736c6963655f6f75744f66426f756e647300000000000000000000000000000060448201526064016106d1565b606082158015614003576040519150600082526020820160405261406b565b6040519150601f8416801560200281840101858101878315602002848b0101015b8183101561403c578051835260209283019201614024565b5050858452601f017fffffffffffffffffffffffffffffffffffffffffffffffffffffffffffffffe016604052505b50949350505050565b7fffffffff0000000000000000000000000000000000000000000000000000000081168114610f0057600080fd5b6000602082840312156140b457600080fd5b81356112dd81614074565b600080604083850312156140d257600080fd5b823567ffffffffffffffff8111156140e957600080fd5b830161018081860312156140fc57600080fd5b946020939093013593505050565b7f4e487b7100000000000000000000000000000000000000000000000000000000600052604160045260246000fd5b6040805190810167ffffffffffffffff8111828210171561415c5761415c61410a565b60405290565b604051601f82017fffffffffffffffffffffffffffffffffffffffffffffffffffffffffffffffe016810167ffffffffffffffff811182821017156141a9576141a961410a565b604052919050565b600067ffffffffffffffff8211156141cb576141cb61410a565b50601f017fffffffffffffffffffffffffffffffffffffffffffffffffffffffffffffffe01660200190565b600082601f83011261420857600080fd5b813561421b614216826141b1565b614162565b81815284602083860101111561423057600080fd5b816020850160208301376000918101602001919091529392505050565b6000806040838503121561426057600080fd5b82359150602083013567ffffffffffffffff81111561427e57600080fd5b61428a858286016141f7565b9150509250929050565b6000602082840312156142a657600080fd5b5035919050565b73ffffffffffffffffffffffffffffffffffffffff81168114610f0057600080fd5b600080604083850312156142e257600080fd5b8235915060208301356142f4816142ad565b809150509250929050565b60006020828403121561431157600080fd5b81356112dd816142ad565b6000806040838503121561432f57600080fd5b823561433a816142ad565b9150602083013567ffffffffffffffff81111561427e57600080fd5b60005b83811015614371578181015183820152602001614359565b8381111561164e5750506000910152565b6000815180845261439a816020860160208601614356565b601f017fffffffffffffffffffffffffffffffffffffffffffffffffffffffffffffffe0169290920160200192915050565b6020815260006112dd6020830184614382565b60008083601f8401126143f157600080fd5b50813567ffffffffffffffff81111561440957600080fd5b602083019150836020828501011115612b3a57600080fd5b6000806000806060858703121561443757600080fd5b8435614442816142ad565b935060208501359250604085013567ffffffffffffffff81111561446557600080fd5b614471878288016143df565b95989497509550505050565b600067ffffffffffffffff8211156144975761449761410a565b5060051b60200190565b6000806000606084860312156144b657600080fd5b83356144c1816142ad565b92506020848101356144d2816142ad565b9250604085013567ffffffffffffffff8111156144ee57600080fd5b8501601f810187136144ff57600080fd5b803561450d6142168261447d565b81815260059190911b8201830190838101908983111561452c57600080fd5b928401925b82841015614553578335614544816142ad565b82529284019290840190614531565b80955050505050509250925092565b6000806040838503121561457557600080fd5b50508035926020909101359150565b6000806000806060858703121561459a57600080fd5b8435600381106145a957600080fd5b9350602085013567ffffffffffffffff8111156145c557600080fd5b6145d1878288016143df565b9598909750949560400135949350505050565b7f4e487b7100000000000000000000000000000000000000000000000000000000600052602160045260246000fd5b7f4e487b7100000000000000000000000000000000000000000000000000000000600052603260045260246000fd5b7f4e487b7100000000000000000000000000000000000000000000000000000000600052601160045260246000fd5b60007fffffffffffffffffffffffffffffffffffffffffffffffffffffffffffffffff8214156146a3576146a3614642565b5060010190565b8183823760009101908152919050565b6000602082840312156146cc57600080fd5b815167ffffffffffffffff8111156146e357600080fd5b8201601f810184136146f457600080fd5b8051614702614216826141b1565b81815285602083850101111561471757600080fd5b6133e4826020830160208601614356565b6000806000806080858703121561473e57600080fd5b8435614749816142ad565b93506020850135614759816142ad565b93969395505050506040820135916060013590565b60006020828403121561478057600080fd5b815160ff811681146112dd57600080fd5b600181815b808511156147ea57817fffffffffffffffffffffffffffffffffffffffffffffffffffffffffffffffff048211156147d0576147d0614642565b808516156147dd57918102915b93841c9390800290614796565b509250929050565b6000826148015750600161064d565b8161480e5750600061064d565b8160018114614824576002811461482e5761484a565b600191505061064d565b60ff84111561483f5761483f614642565b50506001821b61064d565b5060208310610133831016604e8410600b841016171561486d575081810a61064d565b6148778383614791565b807fffffffffffffffffffffffffffffffffffffffffffffffffffffffffffffffff048211156148a9576148a9614642565b029392505050565b60006112dd60ff8416836147f2565b6000817fffffffffffffffffffffffffffffffffffffffffffffffffffffffffffffffff04831182151516156148f8576148f8614642565b500290565b7f4e487b7100000000000000000000000000000000000000000000000000000000600052601260045260246000fd5b60008261493b5761493b6148fd565b500490565b6000821982111561495357614953614642565b500190565b60006020828403121561496a57600080fd5b815180151581146112dd57600080fd5b60008083357fffffffffffffffffffffffffffffffffffffffffffffffffffffffffffffffe18436030181126149af57600080fd5b83018035915067ffffffffffffffff8211156149ca57600080fd5b602001915036819003821315612b3a57600080fd5b60008060408084860312156149f357600080fd5b833560028110614a0257600080fd5b925060208481013567ffffffffffffffff80821115614a2057600080fd5b818701915087601f830112614a3457600080fd5b8135614a426142168261447d565b81815260059190911b8301840190848101908a831115614a6157600080fd5b8585015b83811015614afb57803585811115614a7d5760008081fd5b8601808d037fffffffffffffffffffffffffffffffffffffffffffffffffffffffffffffffe001891315614ab15760008081fd5b614ab9614139565b88820135614ac6816142ad565b8152818a013587811115614ada5760008081fd5b614ae88f8b838601016141f7565b828b015250845250918601918601614a65565b50809750505050505050509250929050565b60008085851115614b1d57600080fd5b83861115614b2a57600080fd5b5050820193919092039150565b7fffffffff000000000000000000000000000000000000000000000000000000008135818116916004851015614b775780818660040360031b1b83161692505b505092915050565b600082614b8e57614b8e6148fd565b500690565b7f416363657373436f6e74726f6c3a206163636f756e7420000000000000000000815260008351614bcb816017850160208801614356565b7f206973206d697373696e6720726f6c65200000000000000000000000000000006017918401918201528351614c08816028840160208801614356565b01602801949350505050565b600060208284031215614c2657600080fd5b5051919050565b828152604060208201526000611d256040830184614382565b60008251614c58818460208701614356565b9190910192915050565b600060208284031215614c7457600080fd5b81516112dd81614074565b600081614c8e57614c8e614642565b507fffffffffffffffffffffffffffffffffffffffffffffffffffffffffffffffff0190565b60008060008060808587031215614cca57600080fd5b843593506020850135614cdc816142ad565b92506040850135614cec816142ad565b9150606085013567ffffffffffffffff811115614d0857600080fd5b614d14878288016141f7565b91505092959194509250565b6000815160208301517fffffffff0000000000000000000000000000000000000000000000000000000080821693506004831015614d685780818460040360031b1b83161693505b505050919050565b600082821015614d8257614d82614642565b500390565b60008060408385031215614d9a57600080fd5b8251614da5816142ad565b6020939093015192949293505050565b805169ffffffffffffffffffff81168114614dcf57600080fd5b919050565b600080600080600060a08688031215614dec57600080fd5b614df586614db5565b9450602086015193506040860151925060608601519150614e1860808701614db5565b90509295509295909350565b600060ff821660ff841680821015614e3e57614e3e614642565b90039392505050565b7f4e487b7100000000000000000000000000000000000000000000000000000000600052603160045260246000fd5b600080600060608486031215614e8b57600080fd5b8335614e96816142ad565b925060208401359150604084013567ffffffffffffffff811115614eb957600080fd5b614ec5868287016141f7565b915050925092509256fe65786563757465557365724f7028616464726573732c75696e743235362c627974657329416464726573733a206c6f772d6c6576656c2064656c65676174652063616c6c206661696c6564a2646970667358221220f53ef3af713bb9818ee5ed8c5019cbad8e9f4458eaf76334e7cd4af73b9d9be864736f6c63430008090033",
  "linkReferences": {},
  "deployedLinkReferences": {}
}