{
  "_format": "hh-sol-artifact-1",
  "contractName": "Wallet",
  "sourceName": "contracts/ERC4337/Wallet.sol",
  "abi": [
    {
      "inputs": [],
      "stateMutability": "nonpayable",
      "type": "constructor"
    },
    {
      "anonymous": false,
      "inputs": [
        {
          "indexed": false,
          "internalType": "address",
          "name": "previousAdmin",
          "type": "address"
        },
        {
          "indexed": false,
          "internalType": "address",
          "name": "newAdmin",
          "type": "address"
        }
      ],
      "name": "AdminChanged",
      "type": "event"
    },
    {
      "anonymous": false,
      "inputs": [
        {
          "indexed": true,
          "internalType": "address",
          "name": "beacon",
          "type": "address"
        }
      ],
      "name": "BeaconUpgraded",
      "type": "event"
    },
    {
      "anonymous": false,
      "inputs": [
        {
          "indexed": true,
          "internalType": "bytes32",
          "name": "role",
          "type": "bytes32"
        },
        {
          "indexed": true,
          "internalType": "bytes32",
          "name": "previousAdminRole",
          "type": "bytes32"
        },
        {
          "indexed": true,
          "internalType": "bytes32",
          "name": "newAdminRole",
          "type": "bytes32"
        }
      ],
      "name": "RoleAdminChanged",
      "type": "event"
    },
    {
      "anonymous": false,
      "inputs": [
        {
          "indexed": true,
          "internalType": "bytes32",
          "name": "role",
          "type": "bytes32"
        },
        {
          "indexed": true,
          "internalType": "address",
          "name": "account",
          "type": "address"
        },
        {
          "indexed": true,
          "internalType": "address",
          "name": "sender",
          "type": "address"
        }
      ],
      "name": "RoleGranted",
      "type": "event"
    },
    {
      "anonymous": false,
      "inputs": [
        {
          "indexed": true,
          "internalType": "bytes32",
          "name": "role",
          "type": "bytes32"
        },
        {
          "indexed": true,
          "internalType": "address",
          "name": "account",
          "type": "address"
        },
        {
          "indexed": true,
          "internalType": "address",
          "name": "sender",
          "type": "address"
        }
      ],
      "name": "RoleRevoked",
      "type": "event"
    },
    {
      "anonymous": false,
      "inputs": [
        {
          "indexed": true,
          "internalType": "address",
          "name": "implementation",
          "type": "address"
        }
      ],
      "name": "Upgraded",
      "type": "event"
    },
    {
      "inputs": [],
      "name": "DEFAULT_ADMIN_ROLE",
      "outputs": [
        {
          "internalType": "bytes32",
          "name": "",
          "type": "bytes32"
        }
      ],
      "stateMutability": "view",
      "type": "function"
    },
    {
      "inputs": [],
      "name": "GUARDIAN_ROLE",
      "outputs": [
        {
          "internalType": "bytes32",
          "name": "",
          "type": "bytes32"
        }
      ],
      "stateMutability": "view",
      "type": "function"
    },
    {
      "inputs": [],
      "name": "OWNER_ROLE",
      "outputs": [
        {
          "internalType": "bytes32",
          "name": "",
          "type": "bytes32"
        }
      ],
      "stateMutability": "view",
      "type": "function"
    },
    {
      "inputs": [],
      "name": "entryPoint",
      "outputs": [
        {
          "internalType": "address",
          "name": "",
          "type": "address"
        }
      ],
      "stateMutability": "view",
      "type": "function"
    },
    {
      "inputs": [
        {
          "internalType": "address",
          "name": "to",
          "type": "address"
        },
        {
          "internalType": "uint256",
          "name": "value",
          "type": "uint256"
        },
        {
          "internalType": "bytes",
          "name": "data",
          "type": "bytes"
        }
      ],
      "name": "executeUserOp",
      "outputs": [],
      "stateMutability": "nonpayable",
      "type": "function"
    },
    {
      "inputs": [],
      "name": "getCurrentImplementation",
      "outputs": [
        {
          "internalType": "address",
          "name": "",
          "type": "address"
        }
      ],
      "stateMutability": "view",
      "type": "function"
    },
    {
      "inputs": [
        {
          "internalType": "uint256",
          "name": "index",
          "type": "uint256"
        }
      ],
      "name": "getGuardian",
      "outputs": [
        {
          "internalType": "address",
          "name": "",
          "type": "address"
        }
      ],
      "stateMutability": "view",
      "type": "function"
    },
    {
      "inputs": [],
      "name": "getGuardianCount",
      "outputs": [
        {
          "internalType": "uint256",
          "name": "",
          "type": "uint256"
        }
      ],
      "stateMutability": "view",
      "type": "function"
    },
    {
      "inputs": [
        {
          "internalType": "uint256",
          "name": "index",
          "type": "uint256"
        }
      ],
      "name": "getOwner",
      "outputs": [
        {
          "internalType": "address",
          "name": "",
          "type": "address"
        }
      ],
      "stateMutability": "view",
      "type": "function"
    },
    {
      "inputs": [],
      "name": "getOwnerCount",
      "outputs": [
        {
          "internalType": "uint256",
          "name": "",
          "type": "uint256"
        }
      ],
      "stateMutability": "view",
      "type": "function"
    },
    {
      "inputs": [
        {
          "internalType": "bytes32",
          "name": "role",
          "type": "bytes32"
        }
      ],
      "name": "getRoleAdmin",
      "outputs": [
        {
          "internalType": "bytes32",
          "name": "",
          "type": "bytes32"
        }
      ],
      "stateMutability": "view",
      "type": "function"
    },
    {
      "inputs": [
        {
          "internalType": "bytes32",
          "name": "role",
          "type": "bytes32"
        },
        {
          "internalType": "uint256",
          "name": "index",
          "type": "uint256"
        }
      ],
      "name": "getRoleMember",
      "outputs": [
        {
          "internalType": "address",
          "name": "",
          "type": "address"
        }
      ],
      "stateMutability": "view",
      "type": "function"
    },
    {
      "inputs": [
        {
          "internalType": "bytes32",
          "name": "role",
          "type": "bytes32"
        }
      ],
      "name": "getRoleMemberCount",
      "outputs": [
        {
          "internalType": "uint256",
          "name": "",
          "type": "uint256"
        }
      ],
      "stateMutability": "view",
      "type": "function"
    },
    {
      "inputs": [
        {
          "internalType": "address",
          "name": "guardian",
          "type": "address"
        }
      ],
      "name": "grantGuardian",
      "outputs": [],
      "stateMutability": "nonpayable",
      "type": "function"
    },
    {
      "inputs": [
        {
          "internalType": "bytes32",
          "name": "role",
          "type": "bytes32"
        },
        {
          "internalType": "address",
          "name": "account",
          "type": "address"
        }
      ],
      "name": "grantRole",
      "outputs": [],
      "stateMutability": "nonpayable",
      "type": "function"
    },
    {
      "inputs": [
        {
          "internalType": "bytes32",
          "name": "role",
          "type": "bytes32"
        },
        {
          "internalType": "address",
          "name": "account",
          "type": "address"
        }
      ],
      "name": "hasRole",
      "outputs": [
        {
          "internalType": "bool",
          "name": "",
          "type": "bool"
        }
      ],
      "stateMutability": "view",
      "type": "function"
    },
    {
      "inputs": [
        {
          "internalType": "address",
          "name": "_entryPoint",
          "type": "address"
        },
        {
          "internalType": "address",
          "name": "_owner",
          "type": "address"
        },
        {
          "internalType": "address[]",
          "name": "_guardians",
          "type": "address[]"
        }
      ],
      "name": "initialize",
      "outputs": [],
      "stateMutability": "nonpayable",
      "type": "function"
    },
    {
      "inputs": [
        {
          "internalType": "bytes32",
          "name": "hash",
          "type": "bytes32"
        },
        {
          "internalType": "bytes",
          "name": "signature",
          "type": "bytes"
        }
      ],
      "name": "isValidSignature",
      "outputs": [
        {
          "internalType": "bytes4",
          "name": "",
          "type": "bytes4"
        }
      ],
      "stateMutability": "view",
      "type": "function"
    },
    {
      "inputs": [],
      "name": "nonce",
      "outputs": [
        {
          "internalType": "uint256",
          "name": "",
          "type": "uint256"
        }
      ],
      "stateMutability": "view",
      "type": "function"
    },
    {
      "inputs": [
        {
          "internalType": "enum PostOpMode",
          "name": "mode",
          "type": "uint8"
        },
        {
          "internalType": "bytes",
          "name": "context",
          "type": "bytes"
        },
        {
          "internalType": "uint256",
          "name": "actualGasCost",
          "type": "uint256"
        }
      ],
      "name": "postOp",
      "outputs": [],
      "stateMutability": "nonpayable",
      "type": "function"
    },
    {
      "inputs": [
        {
          "internalType": "address",
          "name": "newOwner",
          "type": "address"
        },
        {
          "components": [
            {
              "internalType": "address",
              "name": "guardian",
              "type": "address"
            },
            {
              "internalType": "address",
              "name": "wallet",
              "type": "address"
            },
            {
              "internalType": "address",
              "name": "newOwner",
              "type": "address"
            },
            {
              "internalType": "bytes",
              "name": "signature",
              "type": "bytes"
            }
          ],
          "internalType": "struct GuardianRecovery[]",
          "name": "guardianRecoveryArray",
          "type": "tuple[]"
        }
      ],
      "name": "recoverAccount",
      "outputs": [],
      "stateMutability": "nonpayable",
      "type": "function"
    },
    {
      "inputs": [
        {
          "internalType": "bytes32",
          "name": "role",
          "type": "bytes32"
        },
        {
          "internalType": "address",
          "name": "account",
          "type": "address"
        }
      ],
      "name": "renounceRole",
      "outputs": [],
      "stateMutability": "nonpayable",
      "type": "function"
    },
    {
      "inputs": [
        {
          "internalType": "address",
          "name": "guardian",
          "type": "address"
        }
      ],
      "name": "revokeGuardian",
      "outputs": [],
      "stateMutability": "nonpayable",
      "type": "function"
    },
    {
      "inputs": [
        {
          "internalType": "bytes32",
          "name": "role",
          "type": "bytes32"
        },
        {
          "internalType": "address",
          "name": "account",
          "type": "address"
        }
      ],
      "name": "revokeRole",
      "outputs": [],
      "stateMutability": "nonpayable",
      "type": "function"
    },
    {
      "inputs": [
        {
          "internalType": "bytes4",
          "name": "interfaceId",
          "type": "bytes4"
        }
      ],
      "name": "supportsInterface",
      "outputs": [
        {
          "internalType": "bool",
          "name": "",
          "type": "bool"
        }
      ],
      "stateMutability": "view",
      "type": "function"
    },
    {
      "inputs": [
        {
          "internalType": "address",
          "name": "newImplementation",
          "type": "address"
        }
      ],
      "name": "upgradeTo",
      "outputs": [],
      "stateMutability": "nonpayable",
      "type": "function"
    },
    {
      "inputs": [
        {
          "internalType": "address",
          "name": "newImplementation",
          "type": "address"
        },
        {
          "internalType": "bytes",
          "name": "data",
          "type": "bytes"
        }
      ],
      "name": "upgradeToAndCall",
      "outputs": [],
      "stateMutability": "payable",
      "type": "function"
    },
    {
      "inputs": [
        {
          "components": [
            {
              "internalType": "address",
              "name": "sender",
              "type": "address"
            },
            {
              "internalType": "uint256",
              "name": "nonce",
              "type": "uint256"
            },
            {
              "internalType": "bytes",
              "name": "initCode",
              "type": "bytes"
            },
            {
              "internalType": "bytes",
              "name": "callData",
              "type": "bytes"
            },
            {
              "internalType": "uint256",
              "name": "callGas",
              "type": "uint256"
            },
            {
              "internalType": "uint256",
              "name": "verificationGas",
              "type": "uint256"
            },
            {
              "internalType": "uint256",
              "name": "preVerificationGas",
              "type": "uint256"
            },
            {
              "internalType": "uint256",
              "name": "maxFeePerGas",
              "type": "uint256"
            },
            {
              "internalType": "uint256",
              "name": "maxPriorityFeePerGas",
              "type": "uint256"
            },
            {
              "internalType": "address",
              "name": "paymaster",
              "type": "address"
            },
            {
              "internalType": "bytes",
              "name": "paymasterData",
              "type": "bytes"
            },
            {
              "internalType": "bytes",
              "name": "signature",
              "type": "bytes"
            }
          ],
          "internalType": "struct UserOperation",
          "name": "userOp",
          "type": "tuple"
        },
        {
          "internalType": "uint256",
          "name": "maxcost",
          "type": "uint256"
        }
      ],
      "name": "validatePaymasterUserOp",
      "outputs": [
        {
          "internalType": "bytes",
          "name": "context",
          "type": "bytes"
        }
      ],
      "stateMutability": "view",
      "type": "function"
    },
    {
      "inputs": [
        {
          "components": [
            {
              "internalType": "address",
              "name": "sender",
              "type": "address"
            },
            {
              "internalType": "uint256",
              "name": "nonce",
              "type": "uint256"
            },
            {
              "internalType": "bytes",
              "name": "initCode",
              "type": "bytes"
            },
            {
              "internalType": "bytes",
              "name": "callData",
              "type": "bytes"
            },
            {
              "internalType": "uint256",
              "name": "callGas",
              "type": "uint256"
            },
            {
              "internalType": "uint256",
              "name": "verificationGas",
              "type": "uint256"
            },
            {
              "internalType": "uint256",
              "name": "preVerificationGas",
              "type": "uint256"
            },
            {
              "internalType": "uint256",
              "name": "maxFeePerGas",
              "type": "uint256"
            },
            {
              "internalType": "uint256",
              "name": "maxPriorityFeePerGas",
              "type": "uint256"
            },
            {
              "internalType": "address",
              "name": "paymaster",
              "type": "address"
            },
            {
              "internalType": "bytes",
              "name": "paymasterData",
              "type": "bytes"
            },
            {
              "internalType": "bytes",
              "name": "signature",
              "type": "bytes"
            }
          ],
          "internalType": "struct UserOperation",
          "name": "userOp",
          "type": "tuple"
        },
        {
          "internalType": "uint256",
          "name": "requiredPrefund",
          "type": "uint256"
        }
      ],
      "name": "validateUserOp",
      "outputs": [],
      "stateMutability": "nonpayable",
      "type": "function"
    },
    {
      "stateMutability": "payable",
      "type": "receive"
    }
  ],
  "bytecode": "0x60a0604052306080523480156200001557600080fd5b50600054610100900460ff168062000030575060005460ff16155b620000985760405162461bcd60e51b815260206004820152602e60248201527f496e697469616c697a61626c653a20636f6e747261637420697320616c72656160448201526d191e481a5b9a5d1a585b1a5e995960921b606482015260840160405180910390fd5b600054610100900460ff16158015620000bb576000805461ffff19166101011790555b8015620000ce576000805461ff00191690555b50608051614e806200010060003960008181610e3901528181610ee90152818161105c015261110c0152614e806000f3fe6080604052600436106101c65760003560e01c806367674a6f116100f7578063af648c3d11610095578063ca15c87311610064578063ca15c8731461058b578063d547741f146105ab578063e58378bb146105cb578063ef18374a146105e257600080fd5b8063af648c3d14610506578063affed0e014610526578063b0d691fe1461053d578063c41a360a1461056b57600080fd5b806391d14854116100d157806391d148541461045e57806394b1d2c0146104b1578063a217fddf146104d1578063a9a23409146104e657600080fd5b806367674a6f146103fe57806377a24f361461041e5780639010d07c1461043e57600080fd5b80632f2ff15d1161016457806336aea01e1161013e57806336aea01e146103895780634cc499d71461039e5780634f1ef286146103be5780635765f462146103d157600080fd5b80632f2ff15d1461032957806336568abe146103495780633659cfe61461036957600080fd5b80631626ba7e116101a05780631626ba7e14610249578063248a9ca31461029a57806324ea54f4146102d857806329cca569146102ef57600080fd5b806301ffc9a7146101d25780631058ea3c14610207578063107a248a1461022957600080fd5b366101cd57005b600080fd5b3480156101de57600080fd5b506101f26101ed366004614064565b6105f7565b60405190151581526020015b60405180910390f35b34801561021357600080fd5b50610227610222366004614081565b610653565b005b34801561023557600080fd5b506102276102443660046140ee565b610852565b34801561025557600080fd5b50610269610264366004614290565b610c60565b6040517fffffffff0000000000000000000000000000000000000000000000000000000090911681526020016101fe565b3480156102a657600080fd5b506102ca6102b53660046142d7565b600090815260c9602052604090206001015490565b6040519081526020016101fe565b3480156102e457600080fd5b506102ca6101305481565b3480156102fb57600080fd5b50610304610d03565b60405173ffffffffffffffffffffffffffffffffffffffff90911681526020016101fe565b34801561033557600080fd5b506102276103443660046142f0565b610d48565b34801561035557600080fd5b506102276103643660046142f0565b610d6e565b34801561037557600080fd5b50610227610384366004614320565b610e21565b34801561039557600080fd5b506102ca611027565b3480156103aa57600080fd5b506103046103b93660046142d7565b611035565b6102276103cc36600461433d565b611044565b3480156103dd57600080fd5b506103f16103ec366004614081565b611237565b6040516101fe91906143ed565b34801561040a57600080fd5b50610227610419366004614442565b61135f565b34801561042a57600080fd5b5061022761043936600461449e565b6114bc565b34801561044a57600080fd5b50610304610459366004614577565b6116cf565b34801561046a57600080fd5b506101f26104793660046142f0565b600091825260c96020908152604080842073ffffffffffffffffffffffffffffffffffffffff93909316845291905290205460ff1690565b3480156104bd57600080fd5b506102276104cc366004614320565b6116e7565b3480156104dd57600080fd5b506102ca600081565b3480156104f257600080fd5b50610227610501366004614599565b611814565b34801561051257600080fd5b50610227610521366004614320565b611a4e565b34801561053257600080fd5b506102ca61012d5481565b34801561054957600080fd5b5061012e546103049073ffffffffffffffffffffffffffffffffffffffff1681565b34801561057757600080fd5b506103046105863660046142d7565b611add565b34801561059757600080fd5b506102ca6105a63660046142d7565b611aec565b3480156105b757600080fd5b506102276105c63660046142f0565b611b03565b3480156105d757600080fd5b506102ca61012f5481565b3480156105ee57600080fd5b506102ca611b29565b60007fffffffff0000000000000000000000000000000000000000000000000000000082167f5a05180f00000000000000000000000000000000000000000000000000000000148061064d575061064d82611b37565b92915050565b61012e5473ffffffffffffffffffffffffffffffffffffffff1633146106da576040517f08c379a000000000000000000000000000000000000000000000000000000000815260206004820152601b60248201527f57616c6c65743a204e6f742066726f6d20456e747279506f696e74000000000060448201526064015b60405180910390fd5b6106e382611bce565b61075d576106f761012f5461047984611c7e565b61075d576040517f08c379a000000000000000000000000000000000000000000000000000000000815260206004820152601960248201527f57616c6c65743a20496e76616c6964207369676e61747572650000000000000060448201526064016106d1565b816020013561012d54146107cd576040517f08c379a000000000000000000000000000000000000000000000000000000000815260206004820152601560248201527f57616c6c65743a20496e76616c6964206e6f6e6365000000000000000000000060448201526064016106d1565b80156108385761012e5460405160009173ffffffffffffffffffffffffffffffffffffffff169083908381818185875af1925050503d806000811461082e576040519150601f19603f3d011682016040523d82523d6000602084013e610833565b606091505b505050505b61012d805490600061084983614628565b91905055505050565b61012e5473ffffffffffffffffffffffffffffffffffffffff1633146108d4576040517f08c379a000000000000000000000000000000000000000000000000000000000815260206004820152601b60248201527f57616c6c65743a204e6f742066726f6d20456e747279506f696e74000000000060448201526064016106d1565b60005b81811015610bb45761090b8383838181106108f4576108f4614661565b90506020028101906109069190614690565b611e7c565b610971576040517f08c379a000000000000000000000000000000000000000000000000000000000815260206004820181905260248201527f57616c6c65743a20496e76616c696420677561726469616e5265636f7665727960448201526064016106d1565b6109aa6101305484848481811061098a5761098a614661565b905060200281019061099c9190614690565b610479906020810190614320565b610a10576040517f08c379a000000000000000000000000000000000000000000000000000000000815260206004820152601660248201527f57616c6c65743a204e6f74206120677561726469616e0000000000000000000060448201526064016106d1565b828282818110610a2257610a22614661565b9050602002810190610a349190614690565b610a45906040810190602001614320565b73ffffffffffffffffffffffffffffffffffffffff163073ffffffffffffffffffffffffffffffffffffffff1614610ad9576040517f08c379a000000000000000000000000000000000000000000000000000000000815260206004820152601460248201527f57616c6c65743a2057726f6e672077616c6c657400000000000000000000000060448201526064016106d1565b828282818110610aeb57610aeb614661565b9050602002810190610afd9190614690565b610b0e906060810190604001614320565b73ffffffffffffffffffffffffffffffffffffffff168473ffffffffffffffffffffffffffffffffffffffff1614610ba2576040517f08c379a000000000000000000000000000000000000000000000000000000000815260206004820152601960248201527f57616c6c65743a206e65774f776e6572206d69736d617463680000000000000060448201526064016106d1565b80610bac81614628565b9150506108d7565b50610bcb610bc461013054611aec565b6002611f4f565b811015610c34576040517f08c379a000000000000000000000000000000000000000000000000000000000815260206004820152601e60248201527f57616c6c65743a20496e73756666696369656e7420677561726469616e73000060448201526064016106d1565b610c4e61012f54610c4961012f5460006116cf565b611f81565b610c5b61012f5484611fa3565b505050565b61012f54600090610c75906104798585611fc5565b610cdb576040517f08c379a000000000000000000000000000000000000000000000000000000000815260206004820152601960248201527f57616c6c65743a20496e76616c6964207369676e61747572650000000000000060448201526064016106d1565b507f1626ba7e0000000000000000000000000000000000000000000000000000000092915050565b6000610d437f360894a13ba1a3210667c828492db98dca3e2076cc3735a920a3ca505d382bbc5473ffffffffffffffffffffffffffffffffffffffff1690565b905090565b600082815260c96020526040902060010154610d648133611fe9565b610c5b8383611fa3565b73ffffffffffffffffffffffffffffffffffffffff81163314610e13576040517f08c379a000000000000000000000000000000000000000000000000000000000815260206004820152602f60248201527f416363657373436f6e74726f6c3a2063616e206f6e6c792072656e6f756e636560448201527f20726f6c657320666f722073656c66000000000000000000000000000000000060648201526084016106d1565b610e1d8282611f81565b5050565b3073ffffffffffffffffffffffffffffffffffffffff7f0000000000000000000000000000000000000000000000000000000000000000161415610ee7576040517f08c379a000000000000000000000000000000000000000000000000000000000815260206004820152602c60248201527f46756e6374696f6e206d7573742062652063616c6c6564207468726f7567682060448201527f64656c656761746563616c6c000000000000000000000000000000000000000060648201526084016106d1565b7f000000000000000000000000000000000000000000000000000000000000000073ffffffffffffffffffffffffffffffffffffffff16610f5c7f360894a13ba1a3210667c828492db98dca3e2076cc3735a920a3ca505d382bbc5473ffffffffffffffffffffffffffffffffffffffff1690565b73ffffffffffffffffffffffffffffffffffffffff1614610fff576040517f08c379a000000000000000000000000000000000000000000000000000000000815260206004820152602c60248201527f46756e6374696f6e206d7573742062652063616c6c6564207468726f7567682060448201527f6163746976652070726f7879000000000000000000000000000000000000000060648201526084016106d1565b611008816120bb565b604080516000808252602082019092526110249183919061213d565b50565b6000610d4361013054611aec565b600061064d61013054836116cf565b3073ffffffffffffffffffffffffffffffffffffffff7f000000000000000000000000000000000000000000000000000000000000000016141561110a576040517f08c379a000000000000000000000000000000000000000000000000000000000815260206004820152602c60248201527f46756e6374696f6e206d7573742062652063616c6c6564207468726f7567682060448201527f64656c656761746563616c6c000000000000000000000000000000000000000060648201526084016106d1565b7f000000000000000000000000000000000000000000000000000000000000000073ffffffffffffffffffffffffffffffffffffffff1661117f7f360894a13ba1a3210667c828492db98dca3e2076cc3735a920a3ca505d382bbc5473ffffffffffffffffffffffffffffffffffffffff1690565b73ffffffffffffffffffffffffffffffffffffffff1614611222576040517f08c379a000000000000000000000000000000000000000000000000000000000815260206004820152602c60248201527f46756e6374696f6e206d7573742062652063616c6c6564207468726f7567682060448201527f6163746976652070726f7879000000000000000000000000000000000000000060648201526084016106d1565b61122b826120bb565b610e1d8282600161213d565b606061124961012f546104798561239c565b6112af576040517f08c379a000000000000000000000000000000000000000000000000000000000815260206004820152601c60248201527f5061796d61737465723a20496e76616c6964207369676e61747572650000000060448201526064016106d1565b6112b98383612553565b80156112ca57506112ca8383612646565b806112da57506112da8383612662565b806112e957506112e98361267e565b61134f576040517f08c379a000000000000000000000000000000000000000000000000000000000815260206004820152601760248201527f5061796d61737465723a204e6f7420617070726f76656400000000000000000060448201526064016106d1565b61135883612693565b9392505050565b61012e5473ffffffffffffffffffffffffffffffffffffffff1633146113e1576040517f08c379a000000000000000000000000000000000000000000000000000000000815260206004820152601b60248201527f57616c6c65743a204e6f742066726f6d20456e747279506f696e74000000000060448201526064016106d1565b6000808573ffffffffffffffffffffffffffffffffffffffff1685858560405161140c9291906146ce565b60006040518083038185875af1925050503d8060008114611449576040519150601f19603f3d011682016040523d82523d6000602084013e61144e565b606091505b5091509150816114b45760448151101561146757600080fd5b6004810190508080602001905181019061148191906146de565b6040517f08c379a00000000000000000000000000000000000000000000000000000000081526004016106d191906143ed565b505050505050565b600054610100900460ff16806114d5575060005460ff16155b611561576040517f08c379a000000000000000000000000000000000000000000000000000000000815260206004820152602e60248201527f496e697469616c697a61626c653a20636f6e747261637420697320616c72656160448201527f647920696e697469616c697a656400000000000000000000000000000000000060648201526084016106d1565b600054610100900460ff161580156115a057600080547fffffffffffffffffffffffffffffffffffffffffffffffffffffffffffff0000166101011790555b6115a861270f565b6115b0612834565b61012e80547fffffffffffffffffffffffff00000000000000000000000000000000000000001673ffffffffffffffffffffffffffffffffffffffff86161790557fb19546dff01e856fb3f010c267a7b1c60363cf8a4664e21cc89c26224620214e61012f8190557f55435dd261a4b9b3364963f7738a7a662ad9c84396d64be3365284bb7f0a504161013081905561164891612928565b61165561012f5484611fa3565b60005b8251811015611699576116876101305484838151811061167a5761167a614661565b6020026020010151611fa3565b8061169181614628565b915050611658565b5080156116c957600080547fffffffffffffffffffffffffffffffffffffffffffffffffffffffffffff00ff1690555b50505050565b600082815260fb602052604081206113589083612973565b61012e5473ffffffffffffffffffffffffffffffffffffffff163314611769576040517f08c379a000000000000000000000000000000000000000000000000000000000815260206004820152601b60248201527f57616c6c65743a204e6f742066726f6d20456e747279506f696e74000000000060448201526064016106d1565b61012f54600090815260c96020908152604080832073ffffffffffffffffffffffffffffffffffffffff8516845290915290205460ff1615611807576040517f08c379a000000000000000000000000000000000000000000000000000000000815260206004820181905260248201527f57616c6c65743a204f776e65722063616e6e6f7420626520677561726469616e60448201526064016106d1565b6110246101305482611fa3565b61012e5473ffffffffffffffffffffffffffffffffffffffff163314611896576040517f08c379a000000000000000000000000000000000000000000000000000000000815260206004820152601b60248201527f57616c6c65743a204e6f742066726f6d20456e747279506f696e74000000000060448201526064016106d1565b60008080806118a78688018861474c565b935093509350935060008373ffffffffffffffffffffffffffffffffffffffff1663313ce5676040518163ffffffff1660e01b815260040160206040518083038186803b1580156118f757600080fd5b505afa15801561190b573d6000803e3d6000fd5b505050506040513d601f19601f8201168201806040525081019061192f9190614792565b61193a90600a6148d5565b905073ffffffffffffffffffffffffffffffffffffffff84166323b872dd86308561196d86670de0b6b3a76400006148e4565b866119788a8e6148e4565b61198291906148e4565b61198c9190614950565b6119969190614964565b6040517fffffffff0000000000000000000000000000000000000000000000000000000060e086901b16815273ffffffffffffffffffffffffffffffffffffffff93841660048201529290911660248301526044820152606401602060405180830381600087803b158015611a0a57600080fd5b505af1158015611a1e573d6000803e3d6000fd5b505050506040513d601f19601f82011682018060405250810190611a42919061497c565b50505050505050505050565b61012e5473ffffffffffffffffffffffffffffffffffffffff163314611ad0576040517f08c379a000000000000000000000000000000000000000000000000000000000815260206004820152601b60248201527f57616c6c65743a204e6f742066726f6d20456e747279506f696e74000000000060448201526064016106d1565b6110246101305482611f81565b600061064d61012f54836116cf565b600081815260fb6020526040812061064d9061297f565b600082815260c96020526040902060010154611b1f8133611fe9565b610c5b8383611f81565b6000610d4361012f54611aec565b60007fffffffff0000000000000000000000000000000000000000000000000000000082167f7965db0b00000000000000000000000000000000000000000000000000000000148061064d57507f01ffc9a7000000000000000000000000000000000000000000000000000000007fffffffff0000000000000000000000000000000000000000000000000000000083161461064d565b6000611bdd606083018361499e565b15159050611bed57506000919050565b604051806060016040528060398152602001614deb6039913980516020909101207fffffffff0000000000000000000000000000000000000000000000000000000016611c3d606084018461499e565b611c4c91600491600091614a03565b611c5591614a2d565b7fffffffff00000000000000000000000000000000000000000000000000000000161492915050565b600061064d611c9161016084018461499e565b8080601f016020809104026020016040519081016040528093929190818152602001838380828437600092019190915250611e769250611cd79150506020860186614320565b6020860135611ce9604088018861499e565b604051611cf79291906146ce565b604051908190039020611d0d606089018961499e565b604051611d1b9291906146ce565b604051809103902088608001358960a001358a60c001358b60e001358c61010001358d610120016020810190611d519190614320565b8e806101400190611d62919061499e565b604051611d709291906146ce565b6040519081900381207fffffffffffffffffffffffffffffffffffffffff00000000000000000000000060609c8d1b81166020840152603483019b909b5260548201999099526074810197909752609487019590955260b486019390935260d485019190915260f484015261011483015290931b909116610134830152610148820152610168015b604080517fffffffffffffffffffffffffffffffffffffffffffffffffffffffffffffffe081840301815282825280516020918201207f19457468657265756d205369676e6564204d6573736167653a0a33320000000084830152603c8085019190915282518085039091018152605c909301909152815191012090565b90611fc5565b600061064d611e8e6020840184614320565b611f08611e9e6020860186614320565b611eae6040870160208801614320565b611ebe6060880160408901614320565b6040517fffffffffffffffffffffffffffffffffffffffff000000000000000000000000606094851b8116602083015292841b83166034820152921b166048820152605c01611df8565b611f15606086018661499e565b8080601f01602080910402602001604051908101604052809392919081815260200183838082843760009201919091525061298992505050565b6000611f5b8284614a75565b15611f67576001611f6a565b60005b60ff16611f778385614950565b6113589190614964565b611f8b8282612b78565b600082815260fb60205260409020610c5b9082612c33565b611fad8282612c55565b600082815260fb60205260409020610c5b9082612d49565b6000806000611fd48585612d6b565b91509150611fe181612ddb565b509392505050565b600082815260c96020908152604080832073ffffffffffffffffffffffffffffffffffffffff8516845290915290205460ff16610e1d576120418173ffffffffffffffffffffffffffffffffffffffff166014613034565b61204c836020613034565b60405160200161205d929190614a89565b604080517fffffffffffffffffffffffffffffffffffffffffffffffffffffffffffffffe0818403018152908290527f08c379a00000000000000000000000000000000000000000000000000000000082526106d1916004016143ed565b61012e5473ffffffffffffffffffffffffffffffffffffffff163314611024576040517f08c379a000000000000000000000000000000000000000000000000000000000815260206004820152601b60248201527f57616c6c65743a204e6f742066726f6d20456e747279506f696e74000000000060448201526064016106d1565b600061217d7f360894a13ba1a3210667c828492db98dca3e2076cc3735a920a3ca505d382bbc5473ffffffffffffffffffffffffffffffffffffffff1690565b905061218884613277565b6000835111806121955750815b156121a6576121a4848461336b565b505b7f4910fdfa16fed3260ed0e7147f7cc6da11a60208b5b9406d12a635614ffd9143805460ff166123955780547fffffffffffffffffffffffffffffffffffffffffffffffffffffffffffffff0016600117815560405173ffffffffffffffffffffffffffffffffffffffff8316602482015261229c908690604401604080517fffffffffffffffffffffffffffffffffffffffffffffffffffffffffffffffe08184030181529190526020810180517bffffffffffffffffffffffffffffffffffffffffffffffffffffffff167f3659cfe60000000000000000000000000000000000000000000000000000000017905261336b565b5080547fffffffffffffffffffffffffffffffffffffffffffffffffffffffffffffff001681557f360894a13ba1a3210667c828492db98dca3e2076cc3735a920a3ca505d382bbc5473ffffffffffffffffffffffffffffffffffffffff83811691161461238c576040517f08c379a000000000000000000000000000000000000000000000000000000000815260206004820152602f60248201527f45524331393637557067726164653a207570677261646520627265616b73206660448201527f757274686572207570677261646573000000000000000000000000000000000060648201526084016106d1565b61239585613494565b5050505050565b6000806123a8836134e1565b606081015190915061135890611e766123c46020870187614320565b60208701356123d6604089018961499e565b6040516123e49291906146ce565b6040519081900390206123fa60608a018a61499e565b6040516124089291906146ce565b604051809103902089608001358a60a001358b60c001358c60e001358d61010001358e61012001602081019061243e9190614320565b8d600001518e602001518f6040015160405160200161249993929190928352606091821b7fffffffffffffffffffffffffffffffffffffffff0000000000000000000000009081166020850152911b16603482015260480190565b604080517fffffffffffffffffffffffffffffffffffffffffffffffffffffffffffffffe08184030181529082905280516020918201207fffffffffffffffffffffffffffffffffffffffff00000000000000000000000060609d8e1b811692840192909252603483019b909b5260548201999099526074810197909752609487019590955260b486019390935260d485019190915260f484015261011483015290931b1661013483015261014882015261016801611df8565b60008061255f846134e1565b905061256b84846135b3565b60208083015173ffffffffffffffffffffffffffffffffffffffff169063dd62ed3e9061259a90880188614320565b6040517fffffffff0000000000000000000000000000000000000000000000000000000060e084901b16815273ffffffffffffffffffffffffffffffffffffffff909116600482015230602482015260440160206040518083038186803b15801561260457600080fd5b505afa158015612618573d6000803e3d6000fd5b505050506040513d601f19601f8201168201806040525081019061263c9190614b0a565b1015949350505050565b6000612651836136a7565b15806113585750611358838361379b565b600061266d836136a7565b80156113585750611358838361379b565b60008061268a836134e1565b51159392505050565b606060006126a0836134e1565b90506126af6020840184614320565b81602001516126bd85613819565b83516040805173ffffffffffffffffffffffffffffffffffffffff958616602082015294909316928401929092526060830152608082015260a001604051602081830303815290604052915050919050565b600054610100900460ff1680612728575060005460ff16155b6127b4576040517f08c379a000000000000000000000000000000000000000000000000000000000815260206004820152602e60248201527f496e697469616c697a61626c653a20636f6e747261637420697320616c72656160448201527f647920696e697469616c697a656400000000000000000000000000000000000060648201526084016106d1565b600054610100900460ff161580156127f357600080547fffffffffffffffffffffffffffffffffffffffffffffffffffffffffffff0000166101011790555b6127fb6139d4565b6128036139d4565b801561102457600080547fffffffffffffffffffffffffffffffffffffffffffffffffffffffffffff00ff16905550565b600054610100900460ff168061284d575060005460ff16155b6128d9576040517f08c379a000000000000000000000000000000000000000000000000000000000815260206004820152602e60248201527f496e697469616c697a61626c653a20636f6e747261637420697320616c72656160448201527f647920696e697469616c697a656400000000000000000000000000000000000060648201526084016106d1565b600054610100900460ff1615801561291857600080547fffffffffffffffffffffffffffffffffffffffffffffffffffffffffffff0000166101011790555b6129206139d4565b6127f36139d4565b600082815260c96020526040808220600101805490849055905190918391839186917fbd79b86ffe0ab8e8776151514217cd7cacd52c909f66475c3af44e129f0b00ff9190a4505050565b60006113588383613ae8565b600061064d825490565b60008060006129988585612d6b565b909250905060008160048111156129b1576129b1614b23565b1480156129e957508573ffffffffffffffffffffffffffffffffffffffff168273ffffffffffffffffffffffffffffffffffffffff16145b156129f957600192505050611358565b6000808773ffffffffffffffffffffffffffffffffffffffff16631626ba7e60e01b8888604051602401612a2e929190614b52565b604080517fffffffffffffffffffffffffffffffffffffffffffffffffffffffffffffffe08184030181529181526020820180517bffffffffffffffffffffffffffffffffffffffffffffffffffffffff167fffffffff00000000000000000000000000000000000000000000000000000000909416939093179092529051612ab79190614b6b565b600060405180830381855afa9150503d8060008114612af2576040519150601f19603f3d011682016040523d82523d6000602084013e612af7565b606091505b5091509150818015612b0a575080516020145b8015612b6c575080517f1626ba7e0000000000000000000000000000000000000000000000000000000090612b489083016020908101908401614b7d565b7fffffffff0000000000000000000000000000000000000000000000000000000016145b98975050505050505050565b600082815260c96020908152604080832073ffffffffffffffffffffffffffffffffffffffff8516845290915290205460ff1615610e1d57600082815260c96020908152604080832073ffffffffffffffffffffffffffffffffffffffff8516808552925280832080547fffffffffffffffffffffffffffffffffffffffffffffffffffffffffffffff0016905551339285917ff6391f5c32d9c69d2a47ea670b442974b53935d1edc7fd64eb21e047a839171b9190a45050565b60006113588373ffffffffffffffffffffffffffffffffffffffff8416613b12565b600082815260c96020908152604080832073ffffffffffffffffffffffffffffffffffffffff8516845290915290205460ff16610e1d57600082815260c96020908152604080832073ffffffffffffffffffffffffffffffffffffffff85168452909152902080547fffffffffffffffffffffffffffffffffffffffffffffffffffffffffffffff00166001179055612ceb3390565b73ffffffffffffffffffffffffffffffffffffffff168173ffffffffffffffffffffffffffffffffffffffff16837f2f8788117e7eff1d82e926ec794901d17c78024a50270940304540a733656f0d60405160405180910390a45050565b60006113588373ffffffffffffffffffffffffffffffffffffffff8416613c05565b600080825160411415612da25760208301516040840151606085015160001a612d9687828585613c54565b94509450505050612dd4565b825160401415612dcc5760208301516040840151612dc1868383613d6c565b935093505050612dd4565b506000905060025b9250929050565b6000816004811115612def57612def614b23565b1415612df85750565b6001816004811115612e0c57612e0c614b23565b1415612e74576040517f08c379a000000000000000000000000000000000000000000000000000000000815260206004820152601860248201527f45434453413a20696e76616c6964207369676e6174757265000000000000000060448201526064016106d1565b6002816004811115612e8857612e88614b23565b1415612ef0576040517f08c379a000000000000000000000000000000000000000000000000000000000815260206004820152601f60248201527f45434453413a20696e76616c6964207369676e6174757265206c656e6774680060448201526064016106d1565b6003816004811115612f0457612f04614b23565b1415612f92576040517f08c379a000000000000000000000000000000000000000000000000000000000815260206004820152602260248201527f45434453413a20696e76616c6964207369676e6174757265202773272076616c60448201527f756500000000000000000000000000000000000000000000000000000000000060648201526084016106d1565b6004816004811115612fa657612fa6614b23565b1415611024576040517f08c379a000000000000000000000000000000000000000000000000000000000815260206004820152602260248201527f45434453413a20696e76616c6964207369676e6174757265202776272076616c60448201527f756500000000000000000000000000000000000000000000000000000000000060648201526084016106d1565b606060006130438360026148e4565b61304e906002614964565b67ffffffffffffffff81111561306657613066614176565b6040519080825280601f01601f191660200182016040528015613090576020820181803683370190505b5090507f3000000000000000000000000000000000000000000000000000000000000000816000815181106130c7576130c7614661565b60200101907effffffffffffffffffffffffffffffffffffffffffffffffffffffffffffff1916908160001a9053507f78000000000000000000000000000000000000000000000000000000000000008160018151811061312a5761312a614661565b60200101907effffffffffffffffffffffffffffffffffffffffffffffffffffffffffffff1916908160001a90535060006131668460026148e4565b613171906001614964565b90505b600181111561320e577f303132333435363738396162636465660000000000000000000000000000000085600f16601081106131b2576131b2614661565b1a60f81b8282815181106131c8576131c8614661565b60200101907effffffffffffffffffffffffffffffffffffffffffffffffffffffffffffff1916908160001a90535060049490941c9361320781614b9a565b9050613174565b508315611358576040517f08c379a000000000000000000000000000000000000000000000000000000000815260206004820181905260248201527f537472696e67733a20686578206c656e67746820696e73756666696369656e7460448201526064016106d1565b803b613305576040517f08c379a000000000000000000000000000000000000000000000000000000000815260206004820152602d60248201527f455243313936373a206e657720696d706c656d656e746174696f6e206973206e60448201527f6f74206120636f6e74726163740000000000000000000000000000000000000060648201526084016106d1565b7f360894a13ba1a3210667c828492db98dca3e2076cc3735a920a3ca505d382bbc80547fffffffffffffffffffffffff00000000000000000000000000000000000000001673ffffffffffffffffffffffffffffffffffffffff92909216919091179055565b6060823b6133fb576040517f08c379a000000000000000000000000000000000000000000000000000000000815260206004820152602660248201527f416464726573733a2064656c65676174652063616c6c20746f206e6f6e2d636f60448201527f6e7472616374000000000000000000000000000000000000000000000000000060648201526084016106d1565b6000808473ffffffffffffffffffffffffffffffffffffffff16846040516134239190614b6b565b600060405180830381855af49150503d806000811461345e576040519150601f19603f3d011682016040523d82523d6000602084013e613463565b606091505b509150915061348b8282604051806060016040528060278152602001614e2460279139613db4565b95945050505050565b61349d81613277565b60405173ffffffffffffffffffffffffffffffffffffffff8216907fbc7cd75a20ee27fd9adebab32041f755214dbc6bffa90cc0225b39da2e5c2d3b90600090a250565b604080516080810182526000808252602082018190529181018290526060808201529080808061351561014087018761499e565b8101906135229190614bcf565b9350935093509350613581604051806080016040528060008152602001600073ffffffffffffffffffffffffffffffffffffffff168152602001600073ffffffffffffffffffffffffffffffffffffffff168152602001606081525090565b93845273ffffffffffffffffffffffffffffffffffffffff928316602085015291166040830152606082015292915050565b6000806135bf846134e1565b90506000816020015173ffffffffffffffffffffffffffffffffffffffff1663313ce5676040518163ffffffff1660e01b815260040160206040518083038186803b15801561360d57600080fd5b505afa158015613621573d6000803e3d6000fd5b505050506040513d601f19601f820116820180604052508101906136459190614792565b61365090600a6148d5565b9050600061366682670de0b6b3a76400006148e4565b8261367088613819565b61367a90886148e4565b61368491906148e4565b61368e9190614950565b835190915061369d9082614964565b9695505050505050565b6000806136b383613e07565b905060006136c0846134e1565b9050806020015173ffffffffffffffffffffffffffffffffffffffff16826000015173ffffffffffffffffffffffffffffffffffffffff161480156137935750604080518082018252601881527f617070726f766528616464726573732c75696e743235362900000000000000006020909101528201517f095ea7b300000000000000000000000000000000000000000000000000000000906137669060006004613ebc565b61376f90614c3b565b7fffffffff0000000000000000000000000000000000000000000000000000000016145b949350505050565b6000806137a784613e07565b90506000806137cc83604001516004808660400151516137c79190614c8b565b613ebc565b8060200190518101906137df9190614ca2565b909250905073ffffffffffffffffffffffffffffffffffffffff82163014801561369d575061380e86866135b3565b111595945050505050565b600080613825836134e1565b90506000816040015173ffffffffffffffffffffffffffffffffffffffff1663feaf968c6040518163ffffffff1660e01b815260040160a06040518083038186803b15801561387357600080fd5b505afa158015613887573d6000803e3d6000fd5b505050506040513d601f19601f820116820180604052508101906138ab9190614cef565b505050915050816020015173ffffffffffffffffffffffffffffffffffffffff1663313ce5676040518163ffffffff1660e01b815260040160206040518083038186803b1580156138fb57600080fd5b505afa15801561390f573d6000803e3d6000fd5b505050506040513d601f19601f820116820180604052508101906139339190614792565b826040015173ffffffffffffffffffffffffffffffffffffffff1663313ce5676040518163ffffffff1660e01b815260040160206040518083038186803b15801561397d57600080fd5b505afa158015613991573d6000803e3d6000fd5b505050506040513d601f19601f820116820180604052508101906139b59190614792565b6139bf9190614d3f565b6139ca90600a6148d5565b6137939082614950565b600054610100900460ff16806139ed575060005460ff16155b613a79576040517f08c379a000000000000000000000000000000000000000000000000000000000815260206004820152602e60248201527f496e697469616c697a61626c653a20636f6e747261637420697320616c72656160448201527f647920696e697469616c697a656400000000000000000000000000000000000060648201526084016106d1565b600054610100900460ff1615801561280357600080547fffffffffffffffffffffffffffffffffffffffffffffffffffffffffffff000016610101179055801561102457600080547fffffffffffffffffffffffffffffffffffffffffffffffffffffffffffff00ff16905550565b6000826000018281548110613aff57613aff614661565b9060005260206000200154905092915050565b60008181526001830160205260408120548015613bfb576000613b36600183614c8b565b8554909150600090613b4a90600190614c8b565b9050818114613baf576000866000018281548110613b6a57613b6a614661565b9060005260206000200154905080876000018481548110613b8d57613b8d614661565b6000918252602080832090910192909255918252600188019052604090208390555b8554869080613bc057613bc0614d62565b60019003818190600052602060002001600090559055856001016000868152602001908152602001600020600090556001935050505061064d565b600091505061064d565b6000818152600183016020526040812054613c4c5750815460018181018455600084815260208082209093018490558454848252828601909352604090209190915561064d565b50600061064d565b6000807f7fffffffffffffffffffffffffffffff5d576e7357a4501ddfe92f46681b20a0831115613c8b5750600090506003613d63565b8460ff16601b14158015613ca357508460ff16601c14155b15613cb45750600090506004613d63565b6040805160008082526020820180845289905260ff881692820192909252606081018690526080810185905260019060a0016020604051602081039080840390855afa158015613d08573d6000803e3d6000fd5b50506040517fffffffffffffffffffffffffffffffffffffffffffffffffffffffffffffffe0015191505073ffffffffffffffffffffffffffffffffffffffff8116613d5c57600060019250925050613d63565b9150600090505b94509492505050565b6000807f7fffffffffffffffffffffffffffffffffffffffffffffffffffffffffffffff831660ff84901c601b01613da687828885613c54565b935093505050935093915050565b60608315613dc3575081611358565b825115613dd35782518084602001fd5b816040517f08c379a00000000000000000000000000000000000000000000000000000000081526004016106d191906143ed565b6040805160608082018352600080835260208301529181019190915260008080613e34606086018661499e565b613e42916004908290614a03565b810190613e4f9190614d91565b925092509250613e8f6040518060600160405280600073ffffffffffffffffffffffffffffffffffffffff16815260200160008152602001606081525090565b73ffffffffffffffffffffffffffffffffffffffff90931683526020830191909152604082015292915050565b606081613eca81601f614964565b1015613f32576040517f08c379a000000000000000000000000000000000000000000000000000000000815260206004820152600e60248201527f736c6963655f6f766572666c6f7700000000000000000000000000000000000060448201526064016106d1565b613f3c8284614964565b84511015613fa6576040517f08c379a000000000000000000000000000000000000000000000000000000000815260206004820152601160248201527f736c6963655f6f75744f66426f756e647300000000000000000000000000000060448201526064016106d1565b606082158015613fc5576040519150600082526020820160405261402d565b6040519150601f8416801560200281840101858101878315602002848b0101015b81831015613ffe578051835260209283019201613fe6565b5050858452601f017fffffffffffffffffffffffffffffffffffffffffffffffffffffffffffffffe016604052505b50949350505050565b7fffffffff000000000000000000000000000000000000000000000000000000008116811461102457600080fd5b60006020828403121561407657600080fd5b813561135881614036565b6000806040838503121561409457600080fd5b823567ffffffffffffffff8111156140ab57600080fd5b830161018081860312156140be57600080fd5b946020939093013593505050565b73ffffffffffffffffffffffffffffffffffffffff8116811461102457600080fd5b60008060006040848603121561410357600080fd5b833561410e816140cc565b9250602084013567ffffffffffffffff8082111561412b57600080fd5b818601915086601f83011261413f57600080fd5b81358181111561414e57600080fd5b8760208260051b850101111561416357600080fd5b6020830194508093505050509250925092565b7f4e487b7100000000000000000000000000000000000000000000000000000000600052604160045260246000fd5b604051601f82017fffffffffffffffffffffffffffffffffffffffffffffffffffffffffffffffe016810167ffffffffffffffff811182821017156141ec576141ec614176565b604052919050565b600067ffffffffffffffff82111561420e5761420e614176565b50601f017fffffffffffffffffffffffffffffffffffffffffffffffffffffffffffffffe01660200190565b600082601f83011261424b57600080fd5b813561425e614259826141f4565b6141a5565b81815284602083860101111561427357600080fd5b816020850160208301376000918101602001919091529392505050565b600080604083850312156142a357600080fd5b82359150602083013567ffffffffffffffff8111156142c157600080fd5b6142cd8582860161423a565b9150509250929050565b6000602082840312156142e957600080fd5b5035919050565b6000806040838503121561430357600080fd5b823591506020830135614315816140cc565b809150509250929050565b60006020828403121561433257600080fd5b8135611358816140cc565b6000806040838503121561435057600080fd5b823561435b816140cc565b9150602083013567ffffffffffffffff8111156142c157600080fd5b60005b8381101561439257818101518382015260200161437a565b838111156116c95750506000910152565b600081518084526143bb816020860160208601614377565b601f017fffffffffffffffffffffffffffffffffffffffffffffffffffffffffffffffe0169290920160200192915050565b60208152600061135860208301846143a3565b60008083601f84011261441257600080fd5b50813567ffffffffffffffff81111561442a57600080fd5b602083019150836020828501011115612dd457600080fd5b6000806000806060858703121561445857600080fd5b8435614463816140cc565b935060208501359250604085013567ffffffffffffffff81111561448657600080fd5b61449287828801614400565b95989497509550505050565b6000806000606084860312156144b357600080fd5b83356144be816140cc565b92506020848101356144cf816140cc565b9250604085013567ffffffffffffffff808211156144ec57600080fd5b818701915087601f83011261450057600080fd5b81358181111561451257614512614176565b8060051b91506145238483016141a5565b818152918301840191848101908a84111561453d57600080fd5b938501935b838510156145675784359250614557836140cc565b8282529385019390850190614542565b8096505050505050509250925092565b6000806040838503121561458a57600080fd5b50508035926020909101359150565b600080600080606085870312156145af57600080fd5b8435600381106145be57600080fd5b9350602085013567ffffffffffffffff8111156145da57600080fd5b6145e687828801614400565b9598909750949560400135949350505050565b7f4e487b7100000000000000000000000000000000000000000000000000000000600052601160045260246000fd5b60007fffffffffffffffffffffffffffffffffffffffffffffffffffffffffffffffff82141561465a5761465a6145f9565b5060010190565b7f4e487b7100000000000000000000000000000000000000000000000000000000600052603260045260246000fd5b600082357fffffffffffffffffffffffffffffffffffffffffffffffffffffffffffffff818336030181126146c457600080fd5b9190910192915050565b8183823760009101908152919050565b6000602082840312156146f057600080fd5b815167ffffffffffffffff81111561470757600080fd5b8201601f8101841361471857600080fd5b8051614726614259826141f4565b81815285602083850101111561473b57600080fd5b61348b826020830160208601614377565b6000806000806080858703121561476257600080fd5b843561476d816140cc565b9350602085013561477d816140cc565b93969395505050506040820135916060013590565b6000602082840312156147a457600080fd5b815160ff8116811461135857600080fd5b600181815b8085111561480e57817fffffffffffffffffffffffffffffffffffffffffffffffffffffffffffffffff048211156147f4576147f46145f9565b8085161561480157918102915b93841c93908002906147ba565b509250929050565b6000826148255750600161064d565b816148325750600061064d565b816001811461484857600281146148525761486e565b600191505061064d565b60ff841115614863576148636145f9565b50506001821b61064d565b5060208310610133831016604e8410600b8410161715614891575081810a61064d565b61489b83836147b5565b807fffffffffffffffffffffffffffffffffffffffffffffffffffffffffffffffff048211156148cd576148cd6145f9565b029392505050565b600061135860ff841683614816565b6000817fffffffffffffffffffffffffffffffffffffffffffffffffffffffffffffffff048311821515161561491c5761491c6145f9565b500290565b7f4e487b7100000000000000000000000000000000000000000000000000000000600052601260045260246000fd5b60008261495f5761495f614921565b500490565b60008219821115614977576149776145f9565b500190565b60006020828403121561498e57600080fd5b8151801515811461135857600080fd5b60008083357fffffffffffffffffffffffffffffffffffffffffffffffffffffffffffffffe18436030181126149d357600080fd5b83018035915067ffffffffffffffff8211156149ee57600080fd5b602001915036819003821315612dd457600080fd5b60008085851115614a1357600080fd5b83861115614a2057600080fd5b5050820193919092039150565b7fffffffff000000000000000000000000000000000000000000000000000000008135818116916004851015614a6d5780818660040360031b1b83161692505b505092915050565b600082614a8457614a84614921565b500690565b7f416363657373436f6e74726f6c3a206163636f756e7420000000000000000000815260008351614ac1816017850160208801614377565b7f206973206d697373696e6720726f6c65200000000000000000000000000000006017918401918201528351614afe816028840160208801614377565b01602801949350505050565b600060208284031215614b1c57600080fd5b5051919050565b7f4e487b7100000000000000000000000000000000000000000000000000000000600052602160045260246000fd5b82815260406020820152600061379360408301846143a3565b600082516146c4818460208701614377565b600060208284031215614b8f57600080fd5b815161135881614036565b600081614ba957614ba96145f9565b507fffffffffffffffffffffffffffffffffffffffffffffffffffffffffffffffff0190565b60008060008060808587031215614be557600080fd5b843593506020850135614bf7816140cc565b92506040850135614c07816140cc565b9150606085013567ffffffffffffffff811115614c2357600080fd5b614c2f8782880161423a565b91505092959194509250565b6000815160208301517fffffffff0000000000000000000000000000000000000000000000000000000080821693506004831015614c835780818460040360031b1b83161693505b505050919050565b600082821015614c9d57614c9d6145f9565b500390565b60008060408385031215614cb557600080fd5b8251614cc0816140cc565b6020939093015192949293505050565b805169ffffffffffffffffffff81168114614cea57600080fd5b919050565b600080600080600060a08688031215614d0757600080fd5b614d1086614cd0565b9450602086015193506040860151925060608601519150614d3360808701614cd0565b90509295509295909350565b600060ff821660ff841680821015614d5957614d596145f9565b90039392505050565b7f4e487b7100000000000000000000000000000000000000000000000000000000600052603160045260246000fd5b600080600060608486031215614da657600080fd5b8335614db1816140cc565b925060208401359150604084013567ffffffffffffffff811115614dd457600080fd5b614de08682870161423a565b915050925092509256fe7265636f7665724163636f756e7428616464726573732c28616464726573732c616464726573732c616464726573732c6279746573295b5d29416464726573733a206c6f772d6c6576656c2064656c65676174652063616c6c206661696c6564a2646970667358221220624cc9e7fd40dacecbc620feef0912c595279a5bcc7b8f66577192d4380ec75a64736f6c63430008090033",
  "linkReferences": {},
  "deployedLinkReferences": {}
}