{
  "_format": "hh-sol-artifact-1",
  "contractName": "Wallet",
  "sourceName": "contracts/ERC4337/Wallet.sol",
  "abi": [
    {
      "inputs": [],
      "stateMutability": "nonpayable",
      "type": "constructor"
    },
    {
      "anonymous": false,
      "inputs": [
        {
          "indexed": false,
          "internalType": "address",
          "name": "previousAdmin",
          "type": "address"
        },
        {
          "indexed": false,
          "internalType": "address",
          "name": "newAdmin",
          "type": "address"
        }
      ],
      "name": "AdminChanged",
      "type": "event"
    },
    {
      "anonymous": false,
      "inputs": [
        {
          "indexed": true,
          "internalType": "address",
          "name": "beacon",
          "type": "address"
        }
      ],
      "name": "BeaconUpgraded",
      "type": "event"
    },
    {
      "anonymous": false,
      "inputs": [
        {
          "indexed": true,
          "internalType": "bytes32",
          "name": "role",
          "type": "bytes32"
        },
        {
          "indexed": true,
          "internalType": "bytes32",
          "name": "previousAdminRole",
          "type": "bytes32"
        },
        {
          "indexed": true,
          "internalType": "bytes32",
          "name": "newAdminRole",
          "type": "bytes32"
        }
      ],
      "name": "RoleAdminChanged",
      "type": "event"
    },
    {
      "anonymous": false,
      "inputs": [
        {
          "indexed": true,
          "internalType": "bytes32",
          "name": "role",
          "type": "bytes32"
        },
        {
          "indexed": true,
          "internalType": "address",
          "name": "account",
          "type": "address"
        },
        {
          "indexed": true,
          "internalType": "address",
          "name": "sender",
          "type": "address"
        }
      ],
      "name": "RoleGranted",
      "type": "event"
    },
    {
      "anonymous": false,
      "inputs": [
        {
          "indexed": true,
          "internalType": "bytes32",
          "name": "role",
          "type": "bytes32"
        },
        {
          "indexed": true,
          "internalType": "address",
          "name": "account",
          "type": "address"
        },
        {
          "indexed": true,
          "internalType": "address",
          "name": "sender",
          "type": "address"
        }
      ],
      "name": "RoleRevoked",
      "type": "event"
    },
    {
      "anonymous": false,
      "inputs": [
        {
          "indexed": true,
          "internalType": "address",
          "name": "implementation",
          "type": "address"
        }
      ],
      "name": "Upgraded",
      "type": "event"
    },
    {
      "inputs": [],
      "name": "DEFAULT_ADMIN_ROLE",
      "outputs": [
        {
          "internalType": "bytes32",
          "name": "",
          "type": "bytes32"
        }
      ],
      "stateMutability": "view",
      "type": "function"
    },
    {
      "inputs": [],
      "name": "GUARDIAN_ROLE",
      "outputs": [
        {
          "internalType": "bytes32",
          "name": "",
          "type": "bytes32"
        }
      ],
      "stateMutability": "view",
      "type": "function"
    },
    {
      "inputs": [],
      "name": "OWNER_ROLE",
      "outputs": [
        {
          "internalType": "bytes32",
          "name": "",
          "type": "bytes32"
        }
      ],
      "stateMutability": "view",
      "type": "function"
    },
    {
      "inputs": [],
      "name": "entryPoint",
      "outputs": [
        {
          "internalType": "address",
          "name": "",
          "type": "address"
        }
      ],
      "stateMutability": "view",
      "type": "function"
    },
    {
      "inputs": [
        {
          "internalType": "address",
          "name": "to",
          "type": "address"
        },
        {
          "internalType": "uint256",
          "name": "value",
          "type": "uint256"
        },
        {
          "internalType": "bytes",
          "name": "data",
          "type": "bytes"
        }
      ],
      "name": "executeUserOp",
      "outputs": [],
      "stateMutability": "nonpayable",
      "type": "function"
    },
    {
      "inputs": [],
      "name": "getCurrentImplementation",
      "outputs": [
        {
          "internalType": "address",
          "name": "",
          "type": "address"
        }
      ],
      "stateMutability": "view",
      "type": "function"
    },
    {
      "inputs": [
        {
          "internalType": "uint256",
          "name": "index",
          "type": "uint256"
        }
      ],
      "name": "getGuardian",
      "outputs": [
        {
          "internalType": "address",
          "name": "",
          "type": "address"
        }
      ],
      "stateMutability": "view",
      "type": "function"
    },
    {
      "inputs": [],
      "name": "getGuardianCount",
      "outputs": [
        {
          "internalType": "uint256",
          "name": "",
          "type": "uint256"
        }
      ],
      "stateMutability": "view",
      "type": "function"
    },
    {
      "inputs": [
        {
          "internalType": "uint256",
          "name": "index",
          "type": "uint256"
        }
      ],
      "name": "getOwner",
      "outputs": [
        {
          "internalType": "address",
          "name": "",
          "type": "address"
        }
      ],
      "stateMutability": "view",
      "type": "function"
    },
    {
      "inputs": [],
      "name": "getOwnerCount",
      "outputs": [
        {
          "internalType": "uint256",
          "name": "",
          "type": "uint256"
        }
      ],
      "stateMutability": "view",
      "type": "function"
    },
    {
      "inputs": [
        {
          "internalType": "bytes32",
          "name": "role",
          "type": "bytes32"
        }
      ],
      "name": "getRoleAdmin",
      "outputs": [
        {
          "internalType": "bytes32",
          "name": "",
          "type": "bytes32"
        }
      ],
      "stateMutability": "view",
      "type": "function"
    },
    {
      "inputs": [
        {
          "internalType": "bytes32",
          "name": "role",
          "type": "bytes32"
        },
        {
          "internalType": "uint256",
          "name": "index",
          "type": "uint256"
        }
      ],
      "name": "getRoleMember",
      "outputs": [
        {
          "internalType": "address",
          "name": "",
          "type": "address"
        }
      ],
      "stateMutability": "view",
      "type": "function"
    },
    {
      "inputs": [
        {
          "internalType": "bytes32",
          "name": "role",
          "type": "bytes32"
        }
      ],
      "name": "getRoleMemberCount",
      "outputs": [
        {
          "internalType": "uint256",
          "name": "",
          "type": "uint256"
        }
      ],
      "stateMutability": "view",
      "type": "function"
    },
    {
      "inputs": [
        {
          "internalType": "address",
          "name": "guardian",
          "type": "address"
        }
      ],
      "name": "grantGuardian",
      "outputs": [],
      "stateMutability": "nonpayable",
      "type": "function"
    },
    {
      "inputs": [
        {
          "internalType": "bytes32",
          "name": "role",
          "type": "bytes32"
        },
        {
          "internalType": "address",
          "name": "account",
          "type": "address"
        }
      ],
      "name": "grantRole",
      "outputs": [],
      "stateMutability": "nonpayable",
      "type": "function"
    },
    {
      "inputs": [
        {
          "internalType": "bytes32",
          "name": "role",
          "type": "bytes32"
        },
        {
          "internalType": "address",
          "name": "account",
          "type": "address"
        }
      ],
      "name": "hasRole",
      "outputs": [
        {
          "internalType": "bool",
          "name": "",
          "type": "bool"
        }
      ],
      "stateMutability": "view",
      "type": "function"
    },
    {
      "inputs": [
        {
          "internalType": "address",
          "name": "_entryPoint",
          "type": "address"
        },
        {
          "internalType": "address",
          "name": "_owner",
          "type": "address"
        },
        {
          "internalType": "address[]",
          "name": "_guardians",
          "type": "address[]"
        }
      ],
      "name": "initialize",
      "outputs": [],
      "stateMutability": "nonpayable",
      "type": "function"
    },
    {
      "inputs": [
        {
          "internalType": "bytes32",
          "name": "hash",
          "type": "bytes32"
        },
        {
          "internalType": "bytes",
          "name": "signature",
          "type": "bytes"
        }
      ],
      "name": "isValidSignature",
      "outputs": [
        {
          "internalType": "bytes4",
          "name": "",
          "type": "bytes4"
        }
      ],
      "stateMutability": "view",
      "type": "function"
    },
    {
      "inputs": [],
      "name": "nonce",
      "outputs": [
        {
          "internalType": "uint256",
          "name": "",
          "type": "uint256"
        }
      ],
      "stateMutability": "view",
      "type": "function"
    },
    {
      "inputs": [
        {
          "internalType": "enum PostOpMode",
          "name": "mode",
          "type": "uint8"
        },
        {
          "internalType": "bytes",
          "name": "context",
          "type": "bytes"
        },
        {
          "internalType": "uint256",
          "name": "actualGasCost",
          "type": "uint256"
        }
      ],
      "name": "postOp",
      "outputs": [],
      "stateMutability": "nonpayable",
      "type": "function"
    },
    {
      "inputs": [
        {
          "internalType": "bytes32",
          "name": "role",
          "type": "bytes32"
        },
        {
          "internalType": "address",
          "name": "account",
          "type": "address"
        }
      ],
      "name": "renounceRole",
      "outputs": [],
      "stateMutability": "nonpayable",
      "type": "function"
    },
    {
      "inputs": [
        {
          "internalType": "address",
          "name": "guardian",
          "type": "address"
        }
      ],
      "name": "revokeGuardian",
      "outputs": [],
      "stateMutability": "nonpayable",
      "type": "function"
    },
    {
      "inputs": [
        {
          "internalType": "bytes32",
          "name": "role",
          "type": "bytes32"
        },
        {
          "internalType": "address",
          "name": "account",
          "type": "address"
        }
      ],
      "name": "revokeRole",
      "outputs": [],
      "stateMutability": "nonpayable",
      "type": "function"
    },
    {
      "inputs": [
        {
          "internalType": "bytes4",
          "name": "interfaceId",
          "type": "bytes4"
        }
      ],
      "name": "supportsInterface",
      "outputs": [
        {
          "internalType": "bool",
          "name": "",
          "type": "bool"
        }
      ],
      "stateMutability": "view",
      "type": "function"
    },
    {
      "inputs": [
        {
          "internalType": "address",
          "name": "newOwner",
          "type": "address"
        }
      ],
      "name": "transferOwner",
      "outputs": [],
      "stateMutability": "nonpayable",
      "type": "function"
    },
    {
      "inputs": [
        {
          "internalType": "address",
          "name": "newImplementation",
          "type": "address"
        }
      ],
      "name": "upgradeTo",
      "outputs": [],
      "stateMutability": "nonpayable",
      "type": "function"
    },
    {
      "inputs": [
        {
          "internalType": "address",
          "name": "newImplementation",
          "type": "address"
        },
        {
          "internalType": "bytes",
          "name": "data",
          "type": "bytes"
        }
      ],
      "name": "upgradeToAndCall",
      "outputs": [],
      "stateMutability": "payable",
      "type": "function"
    },
    {
      "inputs": [
        {
          "components": [
            {
              "internalType": "address",
              "name": "sender",
              "type": "address"
            },
            {
              "internalType": "uint256",
              "name": "nonce",
              "type": "uint256"
            },
            {
              "internalType": "bytes",
              "name": "initCode",
              "type": "bytes"
            },
            {
              "internalType": "bytes",
              "name": "callData",
              "type": "bytes"
            },
            {
              "internalType": "uint256",
              "name": "callGas",
              "type": "uint256"
            },
            {
              "internalType": "uint256",
              "name": "verificationGas",
              "type": "uint256"
            },
            {
              "internalType": "uint256",
              "name": "preVerificationGas",
              "type": "uint256"
            },
            {
              "internalType": "uint256",
              "name": "maxFeePerGas",
              "type": "uint256"
            },
            {
              "internalType": "uint256",
              "name": "maxPriorityFeePerGas",
              "type": "uint256"
            },
            {
              "internalType": "address",
              "name": "paymaster",
              "type": "address"
            },
            {
              "internalType": "bytes",
              "name": "paymasterData",
              "type": "bytes"
            },
            {
              "internalType": "bytes",
              "name": "signature",
              "type": "bytes"
            }
          ],
          "internalType": "struct UserOperation",
          "name": "userOp",
          "type": "tuple"
        },
        {
          "internalType": "uint256",
          "name": "maxcost",
          "type": "uint256"
        }
      ],
      "name": "validatePaymasterUserOp",
      "outputs": [
        {
          "internalType": "bytes",
          "name": "context",
          "type": "bytes"
        }
      ],
      "stateMutability": "view",
      "type": "function"
    },
    {
      "inputs": [
        {
          "components": [
            {
              "internalType": "address",
              "name": "sender",
              "type": "address"
            },
            {
              "internalType": "uint256",
              "name": "nonce",
              "type": "uint256"
            },
            {
              "internalType": "bytes",
              "name": "initCode",
              "type": "bytes"
            },
            {
              "internalType": "bytes",
              "name": "callData",
              "type": "bytes"
            },
            {
              "internalType": "uint256",
              "name": "callGas",
              "type": "uint256"
            },
            {
              "internalType": "uint256",
              "name": "verificationGas",
              "type": "uint256"
            },
            {
              "internalType": "uint256",
              "name": "preVerificationGas",
              "type": "uint256"
            },
            {
              "internalType": "uint256",
              "name": "maxFeePerGas",
              "type": "uint256"
            },
            {
              "internalType": "uint256",
              "name": "maxPriorityFeePerGas",
              "type": "uint256"
            },
            {
              "internalType": "address",
              "name": "paymaster",
              "type": "address"
            },
            {
              "internalType": "bytes",
              "name": "paymasterData",
              "type": "bytes"
            },
            {
              "internalType": "bytes",
              "name": "signature",
              "type": "bytes"
            }
          ],
          "internalType": "struct UserOperation",
          "name": "userOp",
          "type": "tuple"
        },
        {
          "internalType": "bytes32",
          "name": "requestId",
          "type": "bytes32"
        },
        {
          "internalType": "uint256",
          "name": "requiredPrefund",
          "type": "uint256"
        }
      ],
      "name": "validateUserOp",
      "outputs": [],
      "stateMutability": "nonpayable",
      "type": "function"
    },
    {
      "stateMutability": "payable",
      "type": "receive"
    }
  ],
  "bytecode": "0x60a0604052306080523480156200001557600080fd5b50600054610100900460ff168062000030575060005460ff16155b620000985760405162461bcd60e51b815260206004820152602e60248201527f496e697469616c697a61626c653a20636f6e747261637420697320616c72656160448201526d191e481a5b9a5d1a585b1a5e995960921b606482015260840160405180910390fd5b600054610100900460ff16158015620000bb576000805461ffff19166101011790555b8015620000ce576000805461ff00191690555b50608051614ed26200010060003960008181610836015281816108e601528181610a590152610b090152614ed26000f3fe6080604052600436106101c65760003560e01c806377a24f36116100f7578063affed0e011610095578063d547741f11610064578063d547741f1461058b578063e58378bb146105ab578063ef18374a146105c2578063fcbac1f4146105d757600080fd5b8063affed0e014610506578063b0d691fe1461051d578063c41a360a1461054b578063ca15c8731461056b57600080fd5b806394b1d2c0116100d157806394b1d2c014610491578063a217fddf146104b1578063a9a23409146104c6578063af648c3d146104e657600080fd5b806377a24f36146103fe5780639010d07c1461041e57806391d148541461043e57600080fd5b80633659cfe6116101645780634f1ef2861161013e5780634f1ef2861461037e5780634fb2e45d146103915780635765f462146103b157806367674a6f146103de57600080fd5b80633659cfe61461032957806336aea01e146103495780634cc499d71461035e57600080fd5b806324ea54f4116101a057806324ea54f41461029657806329cca569146102ad5780632f2ff15d146102e757806336568abe1461030957600080fd5b806301ffc9a7146101d25780631626ba7e14610207578063248a9ca31461025857600080fd5b366101cd57005b600080fd5b3480156101de57600080fd5b506101f26101ed366004613fc3565b6105f7565b60405190151581526020015b60405180910390f35b34801561021357600080fd5b50610227610222366004614123565b610653565b6040517fffffffff0000000000000000000000000000000000000000000000000000000090911681526020016101fe565b34801561026457600080fd5b5061028861027336600461416a565b600090815260c9602052604090206001015490565b6040519081526020016101fe565b3480156102a257600080fd5b506102886101305481565b3480156102b957600080fd5b506102c26106fb565b60405173ffffffffffffffffffffffffffffffffffffffff90911681526020016101fe565b3480156102f357600080fd5b506103076103023660046141a5565b610740565b005b34801561031557600080fd5b506103076103243660046141a5565b61076b565b34801561033557600080fd5b506103076103443660046141d5565b61081e565b34801561035557600080fd5b50610288610a24565b34801561036a57600080fd5b506102c261037936600461416a565b610a32565b61030761038c3660046141f2565b610a41565b34801561039d57600080fd5b506103076103ac3660046141d5565b610c34565b3480156103bd57600080fd5b506103d16103cc366004614245565b610cdd565b6040516101fe9190614300565b3480156103ea57600080fd5b506103076103f9366004614355565b610e05565b34801561040a57600080fd5b506103076104193660046143d5565b610f62565b34801561042a57600080fd5b506102c2610439366004614496565b611175565b34801561044a57600080fd5b506101f26104593660046141a5565b600091825260c96020908152604080842073ffffffffffffffffffffffffffffffffffffffff93909316845291905290205460ff1690565b34801561049d57600080fd5b506103076104ac3660046141d5565b61118d565b3480156104bd57600080fd5b50610288600081565b3480156104d257600080fd5b506103076104e13660046144b8565b6112ba565b3480156104f257600080fd5b506103076105013660046141d5565b6114f4565b34801561051257600080fd5b5061028861012d5481565b34801561052957600080fd5b5061012e546102c29073ffffffffffffffffffffffffffffffffffffffff1681565b34801561055757600080fd5b506102c261056636600461416a565b611583565b34801561057757600080fd5b5061028861058636600461416a565b611592565b34801561059757600080fd5b506103076105a63660046141a5565b6115a9565b3480156105b757600080fd5b5061028861012f5481565b3480156105ce57600080fd5b506102886115cf565b3480156105e357600080fd5b506103076105f2366004614518565b6115dd565b60007fffffffff0000000000000000000000000000000000000000000000000000000082167f5a05180f00000000000000000000000000000000000000000000000000000000148061064d575061064d82611b57565b92915050565b61012f54600090610668906104598585611bee565b6106d3576040517f08c379a000000000000000000000000000000000000000000000000000000000815260206004820152601960248201527f57616c6c65743a20496e76616c6964207369676e61747572650000000000000060448201526064015b60405180910390fd5b507f1626ba7e0000000000000000000000000000000000000000000000000000000092915050565b600061073b7f360894a13ba1a3210667c828492db98dca3e2076cc3735a920a3ca505d382bbc5473ffffffffffffffffffffffffffffffffffffffff1690565b905090565b600082815260c9602052604090206001015461075c8133611c12565b6107668383611ce4565b505050565b73ffffffffffffffffffffffffffffffffffffffff81163314610810576040517f08c379a000000000000000000000000000000000000000000000000000000000815260206004820152602f60248201527f416363657373436f6e74726f6c3a2063616e206f6e6c792072656e6f756e636560448201527f20726f6c657320666f722073656c66000000000000000000000000000000000060648201526084016106ca565b61081a8282611d06565b5050565b3073ffffffffffffffffffffffffffffffffffffffff7f00000000000000000000000000000000000000000000000000000000000000001614156108e4576040517f08c379a000000000000000000000000000000000000000000000000000000000815260206004820152602c60248201527f46756e6374696f6e206d7573742062652063616c6c6564207468726f7567682060448201527f64656c656761746563616c6c000000000000000000000000000000000000000060648201526084016106ca565b7f000000000000000000000000000000000000000000000000000000000000000073ffffffffffffffffffffffffffffffffffffffff166109597f360894a13ba1a3210667c828492db98dca3e2076cc3735a920a3ca505d382bbc5473ffffffffffffffffffffffffffffffffffffffff1690565b73ffffffffffffffffffffffffffffffffffffffff16146109fc576040517f08c379a000000000000000000000000000000000000000000000000000000000815260206004820152602c60248201527f46756e6374696f6e206d7573742062652063616c6c6564207468726f7567682060448201527f6163746976652070726f7879000000000000000000000000000000000000000060648201526084016106ca565b610a0581611d28565b60408051600080825260208201909252610a2191839190611daa565b50565b600061073b61013054611592565b600061064d6101305483611175565b3073ffffffffffffffffffffffffffffffffffffffff7f0000000000000000000000000000000000000000000000000000000000000000161415610b07576040517f08c379a000000000000000000000000000000000000000000000000000000000815260206004820152602c60248201527f46756e6374696f6e206d7573742062652063616c6c6564207468726f7567682060448201527f64656c656761746563616c6c000000000000000000000000000000000000000060648201526084016106ca565b7f000000000000000000000000000000000000000000000000000000000000000073ffffffffffffffffffffffffffffffffffffffff16610b7c7f360894a13ba1a3210667c828492db98dca3e2076cc3735a920a3ca505d382bbc5473ffffffffffffffffffffffffffffffffffffffff1690565b73ffffffffffffffffffffffffffffffffffffffff1614610c1f576040517f08c379a000000000000000000000000000000000000000000000000000000000815260206004820152602c60248201527f46756e6374696f6e206d7573742062652063616c6c6564207468726f7567682060448201527f6163746976652070726f7879000000000000000000000000000000000000000060648201526084016106ca565b610c2882611d28565b61081a82826001611daa565b61012e5473ffffffffffffffffffffffffffffffffffffffff163314610cb6576040517f08c379a000000000000000000000000000000000000000000000000000000000815260206004820152601b60248201527f57616c6c65743a204e6f742066726f6d20456e747279506f696e74000000000060448201526064016106ca565b610cd061012f54610ccb61012f546000611175565b611d06565b610a2161012f5482611ce4565b6060610cef61012f5461045985612009565b610d55576040517f08c379a000000000000000000000000000000000000000000000000000000000815260206004820152601c60248201527f5061796d61737465723a20496e76616c6964207369676e61747572650000000060448201526064016106ca565b610d5f8383612224565b8015610d705750610d708383612317565b80610d805750610d808383612333565b80610d8f5750610d8f8361234f565b610df5576040517f08c379a000000000000000000000000000000000000000000000000000000000815260206004820152601760248201527f5061796d61737465723a204e6f7420617070726f76656400000000000000000060448201526064016106ca565b610dfe83612364565b9392505050565b61012e5473ffffffffffffffffffffffffffffffffffffffff163314610e87576040517f08c379a000000000000000000000000000000000000000000000000000000000815260206004820152601b60248201527f57616c6c65743a204e6f742066726f6d20456e747279506f696e74000000000060448201526064016106ca565b6000808573ffffffffffffffffffffffffffffffffffffffff16858585604051610eb2929190614566565b60006040518083038185875af1925050503d8060008114610eef576040519150601f19603f3d011682016040523d82523d6000602084013e610ef4565b606091505b509150915081610f5a57604481511015610f0d57600080fd5b60048101905080806020019051810190610f279190614576565b6040517f08c379a00000000000000000000000000000000000000000000000000000000081526004016106ca9190614300565b505050505050565b600054610100900460ff1680610f7b575060005460ff16155b611007576040517f08c379a000000000000000000000000000000000000000000000000000000000815260206004820152602e60248201527f496e697469616c697a61626c653a20636f6e747261637420697320616c72656160448201527f647920696e697469616c697a656400000000000000000000000000000000000060648201526084016106ca565b600054610100900460ff1615801561104657600080547fffffffffffffffffffffffffffffffffffffffffffffffffffffffffffff0000166101011790555b61104e6123e0565b611056612505565b61012e80547fffffffffffffffffffffffff00000000000000000000000000000000000000001673ffffffffffffffffffffffffffffffffffffffff86161790557fb19546dff01e856fb3f010c267a7b1c60363cf8a4664e21cc89c26224620214e61012f8190557f55435dd261a4b9b3364963f7738a7a662ad9c84396d64be3365284bb7f0a50416101308190556110ee916125f9565b6110fb61012f5484611ce4565b60005b825181101561113f5761112d61013054848381518110611120576111206145e4565b6020026020010151611ce4565b8061113781614642565b9150506110fe565b50801561116f57600080547fffffffffffffffffffffffffffffffffffffffffffffffffffffffffffff00ff1690555b50505050565b600082815260fb60205260408120610dfe9083612644565b61012e5473ffffffffffffffffffffffffffffffffffffffff16331461120f576040517f08c379a000000000000000000000000000000000000000000000000000000000815260206004820152601b60248201527f57616c6c65743a204e6f742066726f6d20456e747279506f696e74000000000060448201526064016106ca565b61012f54600090815260c96020908152604080832073ffffffffffffffffffffffffffffffffffffffff8516845290915290205460ff16156112ad576040517f08c379a000000000000000000000000000000000000000000000000000000000815260206004820181905260248201527f57616c6c65743a204f776e65722063616e6e6f7420626520677561726469616e60448201526064016106ca565b610a216101305482611ce4565b61012e5473ffffffffffffffffffffffffffffffffffffffff16331461133c576040517f08c379a000000000000000000000000000000000000000000000000000000000815260206004820152601b60248201527f57616c6c65743a204e6f742066726f6d20456e747279506f696e74000000000060448201526064016106ca565b600080808061134d8688018861467b565b935093509350935060008373ffffffffffffffffffffffffffffffffffffffff1663313ce5676040518163ffffffff1660e01b815260040160206040518083038186803b15801561139d57600080fd5b505afa1580156113b1573d6000803e3d6000fd5b505050506040513d601f19601f820116820180604052508101906113d591906146c1565b6113e090600a614804565b905073ffffffffffffffffffffffffffffffffffffffff84166323b872dd86308561141386670de0b6b3a7640000614813565b8661141e8a8e614813565b6114289190614813565b611432919061487f565b61143c9190614893565b6040517fffffffff0000000000000000000000000000000000000000000000000000000060e086901b16815273ffffffffffffffffffffffffffffffffffffffff93841660048201529290911660248301526044820152606401602060405180830381600087803b1580156114b057600080fd5b505af11580156114c4573d6000803e3d6000fd5b505050506040513d601f19601f820116820180604052508101906114e891906148ab565b50505050505050505050565b61012e5473ffffffffffffffffffffffffffffffffffffffff163314611576576040517f08c379a000000000000000000000000000000000000000000000000000000000815260206004820152601b60248201527f57616c6c65743a204e6f742066726f6d20456e747279506f696e74000000000060448201526064016106ca565b610a216101305482611d06565b600061064d61012f5483611175565b600081815260fb6020526040812061064d90612650565b600082815260c960205260409020600101546115c58133611c12565b6107668383611d06565b600061073b61012f54611592565b61012e5473ffffffffffffffffffffffffffffffffffffffff16331461165f576040517f08c379a000000000000000000000000000000000000000000000000000000000815260206004820152601b60248201527f57616c6c65743a204e6f742066726f6d20456e747279506f696e74000000000060448201526064016106ca565b600061166a8461265a565b9050600081516001811115611681576116816148cd565b141561177c5761171161012f5461045983602001516000815181106116a8576116a86145e4565b60200260200101516020015161170b876040517f19457468657265756d205369676e6564204d6573736167653a0a3332000000006020820152603c8101829052600090605c01604051602081830303815290604052805190602001209050919050565b90611bee565b611777576040517f08c379a000000000000000000000000000000000000000000000000000000000815260206004820152601960248201527f57616c6c65743a20496e76616c6964206f776e6572207369670000000000000060448201526064016106ca565b611a60565b61178684836126e4565b6117ec576040517f08c379a000000000000000000000000000000000000000000000000000000000815260206004820152601f60248201527f57616c6c65743a20496e76616c696420677561726469616e20616374696f6e0060448201526064016106ca565b6118026117fb61013054611592565b60026127d0565b8160200151511015611870576040517f08c379a000000000000000000000000000000000000000000000000000000000815260206004820152601e60248201527f57616c6c65743a20496e73756666696369656e7420677561726469616e73000060448201526064016106ca565b60005b816020015151811015611a5e5761192382602001518281518110611899576118996145e4565b6020026020010151600001516118fc866040517f19457468657265756d205369676e6564204d6573736167653a0a3332000000006020820152603c8101829052600090605c01604051602081830303815290604052805190602001209050919050565b84602001518481518110611912576119126145e4565b602002602001015160200151612802565b611989576040517f08c379a000000000000000000000000000000000000000000000000000000000815260206004820152601c60248201527f57616c6c65743a20496e76616c696420677561726469616e207369670000000060448201526064016106ca565b6119e661013054836020015183815181106119a6576119a66145e4565b60209081029190910181015151600092835260c98252604080842073ffffffffffffffffffffffffffffffffffffffff9092168452915290205460ff1690565b611a4c576040517f08c379a000000000000000000000000000000000000000000000000000000000815260206004820152601660248201527f57616c6c65743a204e6f74206120677561726469616e0000000000000000000060448201526064016106ca565b80611a5681614642565b915050611873565b505b836020013561012d5414611ad0576040517f08c379a000000000000000000000000000000000000000000000000000000000815260206004820152601560248201527f57616c6c65743a20496e76616c6964206e6f6e6365000000000000000000000060448201526064016106ca565b8115611b3b5761012e5460405160009173ffffffffffffffffffffffffffffffffffffffff169084908381818185875af1925050503d8060008114611b31576040519150601f19603f3d011682016040523d82523d6000602084013e611b36565b606091505b505050505b61012d8054906000611b4c83614642565b919050555050505050565b60007fffffffff0000000000000000000000000000000000000000000000000000000082167f7965db0b00000000000000000000000000000000000000000000000000000000148061064d57507f01ffc9a7000000000000000000000000000000000000000000000000000000007fffffffff0000000000000000000000000000000000000000000000000000000083161461064d565b6000806000611bfd85856129f1565b91509150611c0a81612a61565b509392505050565b600082815260c96020908152604080832073ffffffffffffffffffffffffffffffffffffffff8516845290915290205460ff1661081a57611c6a8173ffffffffffffffffffffffffffffffffffffffff166014612cba565b611c75836020612cba565b604051602001611c869291906148fc565b604080517fffffffffffffffffffffffffffffffffffffffffffffffffffffffffffffffe0818403018152908290527f08c379a00000000000000000000000000000000000000000000000000000000082526106ca91600401614300565b611cee8282612efd565b600082815260fb602052604090206107669082612ff1565b611d108282613013565b600082815260fb6020526040902061076690826130ce565b61012e5473ffffffffffffffffffffffffffffffffffffffff163314610a21576040517f08c379a000000000000000000000000000000000000000000000000000000000815260206004820152601b60248201527f57616c6c65743a204e6f742066726f6d20456e747279506f696e74000000000060448201526064016106ca565b6000611dea7f360894a13ba1a3210667c828492db98dca3e2076cc3735a920a3ca505d382bbc5473ffffffffffffffffffffffffffffffffffffffff1690565b9050611df5846130f0565b600083511180611e025750815b15611e1357611e1184846131e4565b505b7f4910fdfa16fed3260ed0e7147f7cc6da11a60208b5b9406d12a635614ffd9143805460ff166120025780547fffffffffffffffffffffffffffffffffffffffffffffffffffffffffffffff0016600117815560405173ffffffffffffffffffffffffffffffffffffffff83166024820152611f09908690604401604080517fffffffffffffffffffffffffffffffffffffffffffffffffffffffffffffffe08184030181529190526020810180517bffffffffffffffffffffffffffffffffffffffffffffffffffffffff167f3659cfe6000000000000000000000000000000000000000000000000000000001790526131e4565b5080547fffffffffffffffffffffffffffffffffffffffffffffffffffffffffffffff001681557f360894a13ba1a3210667c828492db98dca3e2076cc3735a920a3ca505d382bbc5473ffffffffffffffffffffffffffffffffffffffff838116911614611ff9576040517f08c379a000000000000000000000000000000000000000000000000000000000815260206004820152602f60248201527f45524331393637557067726164653a207570677261646520627265616b73206660448201527f757274686572207570677261646573000000000000000000000000000000000060648201526084016106ca565b6120028561330d565b5050505050565b6000806120158361335a565b6060810151909150610dfe9061170b61203160208701876141d5565b6020870135612043604089018961497d565b604051612051929190614566565b60405190819003902061206760608a018a61497d565b604051612075929190614566565b604051809103902089608001358a60a001358b60c001358c60e001358d61010001358e6101200160208101906120ab91906141d5565b8d600001518e602001518f6040015160405160200161210693929190928352606091821b7fffffffffffffffffffffffffffffffffffffffff0000000000000000000000009081166020850152911b16603482015260480190565b604080517fffffffffffffffffffffffffffffffffffffffffffffffffffffffffffffffe08184030181529082905280516020918201207fffffffffffffffffffffffffffffffffffffffff00000000000000000000000060609d8e1b811692840192909252603483019b909b5260548201999099526074810197909752609487019590955260b486019390935260d485019190915260f484015261011483015290931b1661013483015261014882015261016801604051602081830303815290604052805190602001206040517f19457468657265756d205369676e6564204d6573736167653a0a3332000000006020820152603c8101829052600090605c01604051602081830303815290604052805190602001209050919050565b6000806122308461335a565b905061223c848461342c565b60208083015173ffffffffffffffffffffffffffffffffffffffff169063dd62ed3e9061226b908801886141d5565b6040517fffffffff0000000000000000000000000000000000000000000000000000000060e084901b16815273ffffffffffffffffffffffffffffffffffffffff909116600482015230602482015260440160206040518083038186803b1580156122d557600080fd5b505afa1580156122e9573d6000803e3d6000fd5b505050506040513d601f19601f8201168201806040525081019061230d91906149e2565b1015949350505050565b600061232283613520565b1580610dfe5750610dfe838361362a565b600061233e83613520565b8015610dfe5750610dfe838361362a565b60008061235b8361335a565b51159392505050565b606060006123718361335a565b905061238060208401846141d5565b816020015161238e856136e5565b83516040805173ffffffffffffffffffffffffffffffffffffffff958616602082015294909316928401929092526060830152608082015260a001604051602081830303815290604052915050919050565b600054610100900460ff16806123f9575060005460ff16155b612485576040517f08c379a000000000000000000000000000000000000000000000000000000000815260206004820152602e60248201527f496e697469616c697a61626c653a20636f6e747261637420697320616c72656160448201527f647920696e697469616c697a656400000000000000000000000000000000000060648201526084016106ca565b600054610100900460ff161580156124c457600080547fffffffffffffffffffffffffffffffffffffffffffffffffffffffffffff0000166101011790555b6124cc6138a0565b6124d46138a0565b8015610a2157600080547fffffffffffffffffffffffffffffffffffffffffffffffffffffffffffff00ff16905550565b600054610100900460ff168061251e575060005460ff16155b6125aa576040517f08c379a000000000000000000000000000000000000000000000000000000000815260206004820152602e60248201527f496e697469616c697a61626c653a20636f6e747261637420697320616c72656160448201527f647920696e697469616c697a656400000000000000000000000000000000000060648201526084016106ca565b600054610100900460ff161580156125e957600080547fffffffffffffffffffffffffffffffffffffffffffffffffffffffffffff0000166101011790555b6125f16138a0565b6124c46138a0565b600082815260c96020526040808220600101805490849055905190918391839186917fbd79b86ffe0ab8e8776151514217cd7cacd52c909f66475c3af44e129f0b00ff9190a4505050565b6000610dfe83836139b4565b600061064d825490565b60408051808201909152600081526060602082015260008061268061016085018561497d565b81019061268d91906149fb565b915091506126ac60408051808201909152600081526060602082015290565b808360018111156126bf576126bf6148cd565b908160018111156126d2576126d26148cd565b90525060208101919091529392505050565b60006126f3606084018461497d565b151590506127035750600061064d565b61271161014084018461497d565b158015915061272557506127258383612333565b80610dfe575060408051808201909152601681527f7472616e736665724f776e6572286164647265737329000000000000000000006020909101527f4fb2e45d0000000000000000000000000000000000000000000000000000000061278e606085018561497d565b61279d91600491600091614b29565b6127a691614b53565b7fffffffff0000000000000000000000000000000000000000000000000000000016149392505050565b60006127dc8284614b9b565b156127e85760016127eb565b60005b60ff166127f8838561487f565b610dfe9190614893565b600080600061281185856129f1565b9092509050600081600481111561282a5761282a6148cd565b14801561286257508573ffffffffffffffffffffffffffffffffffffffff168273ffffffffffffffffffffffffffffffffffffffff16145b1561287257600192505050610dfe565b6000808773ffffffffffffffffffffffffffffffffffffffff16631626ba7e60e01b88886040516024016128a7929190614baf565b604080517fffffffffffffffffffffffffffffffffffffffffffffffffffffffffffffffe08184030181529181526020820180517bffffffffffffffffffffffffffffffffffffffffffffffffffffffff167fffffffff000000000000000000000000000000000000000000000000000000009094169390931790925290516129309190614bc8565b600060405180830381855afa9150503d806000811461296b576040519150601f19603f3d011682016040523d82523d6000602084013e612970565b606091505b5091509150818015612983575080516020145b80156129e5575080517f1626ba7e00000000000000000000000000000000000000000000000000000000906129c19083016020908101908401614be4565b7fffffffff0000000000000000000000000000000000000000000000000000000016145b98975050505050505050565b600080825160411415612a285760208301516040840151606085015160001a612a1c878285856139de565b94509450505050612a5a565b825160401415612a525760208301516040840151612a47868383613af6565b935093505050612a5a565b506000905060025b9250929050565b6000816004811115612a7557612a756148cd565b1415612a7e5750565b6001816004811115612a9257612a926148cd565b1415612afa576040517f08c379a000000000000000000000000000000000000000000000000000000000815260206004820152601860248201527f45434453413a20696e76616c6964207369676e6174757265000000000000000060448201526064016106ca565b6002816004811115612b0e57612b0e6148cd565b1415612b76576040517f08c379a000000000000000000000000000000000000000000000000000000000815260206004820152601f60248201527f45434453413a20696e76616c6964207369676e6174757265206c656e6774680060448201526064016106ca565b6003816004811115612b8a57612b8a6148cd565b1415612c18576040517f08c379a000000000000000000000000000000000000000000000000000000000815260206004820152602260248201527f45434453413a20696e76616c6964207369676e6174757265202773272076616c60448201527f756500000000000000000000000000000000000000000000000000000000000060648201526084016106ca565b6004816004811115612c2c57612c2c6148cd565b1415610a21576040517f08c379a000000000000000000000000000000000000000000000000000000000815260206004820152602260248201527f45434453413a20696e76616c6964207369676e6174757265202776272076616c60448201527f756500000000000000000000000000000000000000000000000000000000000060648201526084016106ca565b60606000612cc9836002614813565b612cd4906002614893565b67ffffffffffffffff811115612cec57612cec613fe0565b6040519080825280601f01601f191660200182016040528015612d16576020820181803683370190505b5090507f300000000000000000000000000000000000000000000000000000000000000081600081518110612d4d57612d4d6145e4565b60200101907effffffffffffffffffffffffffffffffffffffffffffffffffffffffffffff1916908160001a9053507f780000000000000000000000000000000000000000000000000000000000000081600181518110612db057612db06145e4565b60200101907effffffffffffffffffffffffffffffffffffffffffffffffffffffffffffff1916908160001a9053506000612dec846002614813565b612df7906001614893565b90505b6001811115612e94577f303132333435363738396162636465660000000000000000000000000000000085600f1660108110612e3857612e386145e4565b1a60f81b828281518110612e4e57612e4e6145e4565b60200101907effffffffffffffffffffffffffffffffffffffffffffffffffffffffffffff1916908160001a90535060049490941c93612e8d81614c01565b9050612dfa565b508315610dfe576040517f08c379a000000000000000000000000000000000000000000000000000000000815260206004820181905260248201527f537472696e67733a20686578206c656e67746820696e73756666696369656e7460448201526064016106ca565b600082815260c96020908152604080832073ffffffffffffffffffffffffffffffffffffffff8516845290915290205460ff1661081a57600082815260c96020908152604080832073ffffffffffffffffffffffffffffffffffffffff85168452909152902080547fffffffffffffffffffffffffffffffffffffffffffffffffffffffffffffff00166001179055612f933390565b73ffffffffffffffffffffffffffffffffffffffff168173ffffffffffffffffffffffffffffffffffffffff16837f2f8788117e7eff1d82e926ec794901d17c78024a50270940304540a733656f0d60405160405180910390a45050565b6000610dfe8373ffffffffffffffffffffffffffffffffffffffff8416613b3e565b600082815260c96020908152604080832073ffffffffffffffffffffffffffffffffffffffff8516845290915290205460ff161561081a57600082815260c96020908152604080832073ffffffffffffffffffffffffffffffffffffffff8516808552925280832080547fffffffffffffffffffffffffffffffffffffffffffffffffffffffffffffff0016905551339285917ff6391f5c32d9c69d2a47ea670b442974b53935d1edc7fd64eb21e047a839171b9190a45050565b6000610dfe8373ffffffffffffffffffffffffffffffffffffffff8416613b8d565b803b61317e576040517f08c379a000000000000000000000000000000000000000000000000000000000815260206004820152602d60248201527f455243313936373a206e657720696d706c656d656e746174696f6e206973206e60448201527f6f74206120636f6e74726163740000000000000000000000000000000000000060648201526084016106ca565b7f360894a13ba1a3210667c828492db98dca3e2076cc3735a920a3ca505d382bbc80547fffffffffffffffffffffffff00000000000000000000000000000000000000001673ffffffffffffffffffffffffffffffffffffffff92909216919091179055565b6060823b613274576040517f08c379a000000000000000000000000000000000000000000000000000000000815260206004820152602660248201527f416464726573733a2064656c65676174652063616c6c20746f206e6f6e2d636f60448201527f6e7472616374000000000000000000000000000000000000000000000000000060648201526084016106ca565b6000808473ffffffffffffffffffffffffffffffffffffffff168460405161329c9190614bc8565b600060405180830381855af49150503d80600081146132d7576040519150601f19603f3d011682016040523d82523d6000602084013e6132dc565b606091505b50915091506133048282604051806060016040528060278152602001614e7660279139613c80565b95945050505050565b613316816130f0565b60405173ffffffffffffffffffffffffffffffffffffffff8216907fbc7cd75a20ee27fd9adebab32041f755214dbc6bffa90cc0225b39da2e5c2d3b90600090a250565b604080516080810182526000808252602082018190529181018290526060808201529080808061338e61014087018761497d565b81019061339b9190614c36565b93509350935093506133fa604051806080016040528060008152602001600073ffffffffffffffffffffffffffffffffffffffff168152602001600073ffffffffffffffffffffffffffffffffffffffff168152602001606081525090565b93845273ffffffffffffffffffffffffffffffffffffffff928316602085015291166040830152606082015292915050565b6000806134388461335a565b90506000816020015173ffffffffffffffffffffffffffffffffffffffff1663313ce5676040518163ffffffff1660e01b815260040160206040518083038186803b15801561348657600080fd5b505afa15801561349a573d6000803e3d6000fd5b505050506040513d601f19601f820116820180604052508101906134be91906146c1565b6134c990600a614804565b905060006134df82670de0b6b3a7640000614813565b826134e9886136e5565b6134f39088614813565b6134fd9190614813565b613507919061487f565b83519091506135169082614893565b9695505050505050565b600061352b82613cd3565b61353757506000919050565b600061354283613d66565b9050600061354f8461335a565b9050806020015173ffffffffffffffffffffffffffffffffffffffff16826000015173ffffffffffffffffffffffffffffffffffffffff161480156136225750604080518082018252601881527f617070726f766528616464726573732c75696e743235362900000000000000006020909101528201517f095ea7b300000000000000000000000000000000000000000000000000000000906135f59060006004613e1b565b6135fe90614ca2565b7fffffffff0000000000000000000000000000000000000000000000000000000016145b949350505050565b600061363583613cd3565b6136415750600061064d565b600061364c84613d66565b9050600080613671836040015160048086604001515161366c9190614cf2565b613e1b565b8060200190518101906136849190614d09565b909250905061369b610140870161012088016141d5565b73ffffffffffffffffffffffffffffffffffffffff168273ffffffffffffffffffffffffffffffffffffffff1614801561351657506136da868661342c565b111595945050505050565b6000806136f18361335a565b90506000816040015173ffffffffffffffffffffffffffffffffffffffff1663feaf968c6040518163ffffffff1660e01b815260040160a06040518083038186803b15801561373f57600080fd5b505afa158015613753573d6000803e3d6000fd5b505050506040513d601f19601f820116820180604052508101906137779190614d56565b505050915050816020015173ffffffffffffffffffffffffffffffffffffffff1663313ce5676040518163ffffffff1660e01b815260040160206040518083038186803b1580156137c757600080fd5b505afa1580156137db573d6000803e3d6000fd5b505050506040513d601f19601f820116820180604052508101906137ff91906146c1565b826040015173ffffffffffffffffffffffffffffffffffffffff1663313ce5676040518163ffffffff1660e01b815260040160206040518083038186803b15801561384957600080fd5b505afa15801561385d573d6000803e3d6000fd5b505050506040513d601f19601f8201168201806040525081019061388191906146c1565b61388b9190614da6565b61389690600a614804565b613622908261487f565b600054610100900460ff16806138b9575060005460ff16155b613945576040517f08c379a000000000000000000000000000000000000000000000000000000000815260206004820152602e60248201527f496e697469616c697a61626c653a20636f6e747261637420697320616c72656160448201527f647920696e697469616c697a656400000000000000000000000000000000000060648201526084016106ca565b600054610100900460ff161580156124d457600080547fffffffffffffffffffffffffffffffffffffffffffffffffffffffffffff0000166101011790558015610a2157600080547fffffffffffffffffffffffffffffffffffffffffffffffffffffffffffff00ff16905550565b60008260000182815481106139cb576139cb6145e4565b9060005260206000200154905092915050565b6000807f7fffffffffffffffffffffffffffffff5d576e7357a4501ddfe92f46681b20a0831115613a155750600090506003613aed565b8460ff16601b14158015613a2d57508460ff16601c14155b15613a3e5750600090506004613aed565b6040805160008082526020820180845289905260ff881692820192909252606081018690526080810185905260019060a0016020604051602081039080840390855afa158015613a92573d6000803e3d6000fd5b50506040517fffffffffffffffffffffffffffffffffffffffffffffffffffffffffffffffe0015191505073ffffffffffffffffffffffffffffffffffffffff8116613ae657600060019250925050613aed565b9150600090505b94509492505050565b6000807f7fffffffffffffffffffffffffffffffffffffffffffffffffffffffffffffff831660ff84901c601b01613b30878288856139de565b935093505050935093915050565b6000818152600183016020526040812054613b855750815460018181018455600084815260208082209093018490558454848252828601909352604090209190915561064d565b50600061064d565b60008181526001830160205260408120548015613c76576000613bb1600183614cf2565b8554909150600090613bc590600190614cf2565b9050818114613c2a576000866000018281548110613be557613be56145e4565b9060005260206000200154905080876000018481548110613c0857613c086145e4565b6000918252602080832090910192909255918252600188019052604090208390555b8554869080613c3b57613c3b614dc9565b60019003818190600052602060002001600090559055856001016000868152602001908152602001600020600090556001935050505061064d565b600091505061064d565b60608315613c8f575081610dfe565b825115613c9f5782518084602001fd5b816040517f08c379a00000000000000000000000000000000000000000000000000000000081526004016106ca9190614300565b6000604051806060016040528060248152602001614e526024913980516020909101207fffffffff0000000000000000000000000000000000000000000000000000000016613d25606084018461497d565b613d3491600491600091614b29565b613d3d91614b53565b7fffffffff00000000000000000000000000000000000000000000000000000000161492915050565b6040805160608082018352600080835260208301529181019190915260008080613d93606086018661497d565b613da1916004908290614b29565b810190613dae9190614df8565b925092509250613dee6040518060600160405280600073ffffffffffffffffffffffffffffffffffffffff16815260200160008152602001606081525090565b73ffffffffffffffffffffffffffffffffffffffff90931683526020830191909152604082015292915050565b606081613e2981601f614893565b1015613e91576040517f08c379a000000000000000000000000000000000000000000000000000000000815260206004820152600e60248201527f736c6963655f6f766572666c6f7700000000000000000000000000000000000060448201526064016106ca565b613e9b8284614893565b84511015613f05576040517f08c379a000000000000000000000000000000000000000000000000000000000815260206004820152601160248201527f736c6963655f6f75744f66426f756e647300000000000000000000000000000060448201526064016106ca565b606082158015613f245760405191506000825260208201604052613f8c565b6040519150601f8416801560200281840101858101878315602002848b0101015b81831015613f5d578051835260209283019201613f45565b5050858452601f017fffffffffffffffffffffffffffffffffffffffffffffffffffffffffffffffe016604052505b50949350505050565b7fffffffff0000000000000000000000000000000000000000000000000000000081168114610a2157600080fd5b600060208284031215613fd557600080fd5b8135610dfe81613f95565b7f4e487b7100000000000000000000000000000000000000000000000000000000600052604160045260246000fd5b6040805190810167ffffffffffffffff8111828210171561403257614032613fe0565b60405290565b604051601f82017fffffffffffffffffffffffffffffffffffffffffffffffffffffffffffffffe016810167ffffffffffffffff8111828210171561407f5761407f613fe0565b604052919050565b600067ffffffffffffffff8211156140a1576140a1613fe0565b50601f017fffffffffffffffffffffffffffffffffffffffffffffffffffffffffffffffe01660200190565b600082601f8301126140de57600080fd5b81356140f16140ec82614087565b614038565b81815284602083860101111561410657600080fd5b816020850160208301376000918101602001919091529392505050565b6000806040838503121561413657600080fd5b82359150602083013567ffffffffffffffff81111561415457600080fd5b614160858286016140cd565b9150509250929050565b60006020828403121561417c57600080fd5b5035919050565b73ffffffffffffffffffffffffffffffffffffffff81168114610a2157600080fd5b600080604083850312156141b857600080fd5b8235915060208301356141ca81614183565b809150509250929050565b6000602082840312156141e757600080fd5b8135610dfe81614183565b6000806040838503121561420557600080fd5b823561421081614183565b9150602083013567ffffffffffffffff81111561415457600080fd5b6000610180828403121561423f57600080fd5b50919050565b6000806040838503121561425857600080fd5b823567ffffffffffffffff81111561426f57600080fd5b61427b8582860161422c565b95602094909401359450505050565b60005b838110156142a557818101518382015260200161428d565b8381111561116f5750506000910152565b600081518084526142ce81602086016020860161428a565b601f017fffffffffffffffffffffffffffffffffffffffffffffffffffffffffffffffe0169290920160200192915050565b602081526000610dfe60208301846142b6565b60008083601f84011261432557600080fd5b50813567ffffffffffffffff81111561433d57600080fd5b602083019150836020828501011115612a5a57600080fd5b6000806000806060858703121561436b57600080fd5b843561437681614183565b935060208501359250604085013567ffffffffffffffff81111561439957600080fd5b6143a587828801614313565b95989497509550505050565b600067ffffffffffffffff8211156143cb576143cb613fe0565b5060051b60200190565b6000806000606084860312156143ea57600080fd5b83356143f581614183565b925060208481013561440681614183565b9250604085013567ffffffffffffffff81111561442257600080fd5b8501601f8101871361443357600080fd5b80356144416140ec826143b1565b81815260059190911b8201830190838101908983111561446057600080fd5b928401925b8284101561448757833561447881614183565b82529284019290840190614465565b80955050505050509250925092565b600080604083850312156144a957600080fd5b50508035926020909101359150565b600080600080606085870312156144ce57600080fd5b8435600381106144dd57600080fd5b9350602085013567ffffffffffffffff8111156144f957600080fd5b61450587828801614313565b9598909750949560400135949350505050565b60008060006060848603121561452d57600080fd5b833567ffffffffffffffff81111561454457600080fd5b6145508682870161422c565b9660208601359650604090950135949350505050565b8183823760009101908152919050565b60006020828403121561458857600080fd5b815167ffffffffffffffff81111561459f57600080fd5b8201601f810184136145b057600080fd5b80516145be6140ec82614087565b8181528560208385010111156145d357600080fd5b61330482602083016020860161428a565b7f4e487b7100000000000000000000000000000000000000000000000000000000600052603260045260246000fd5b7f4e487b7100000000000000000000000000000000000000000000000000000000600052601160045260246000fd5b60007fffffffffffffffffffffffffffffffffffffffffffffffffffffffffffffffff82141561467457614674614613565b5060010190565b6000806000806080858703121561469157600080fd5b843561469c81614183565b935060208501356146ac81614183565b93969395505050506040820135916060013590565b6000602082840312156146d357600080fd5b815160ff81168114610dfe57600080fd5b600181815b8085111561473d57817fffffffffffffffffffffffffffffffffffffffffffffffffffffffffffffffff0482111561472357614723614613565b8085161561473057918102915b93841c93908002906146e9565b509250929050565b6000826147545750600161064d565b816147615750600061064d565b816001811461477757600281146147815761479d565b600191505061064d565b60ff84111561479257614792614613565b50506001821b61064d565b5060208310610133831016604e8410600b84101617156147c0575081810a61064d565b6147ca83836146e4565b807fffffffffffffffffffffffffffffffffffffffffffffffffffffffffffffffff048211156147fc576147fc614613565b029392505050565b6000610dfe60ff841683614745565b6000817fffffffffffffffffffffffffffffffffffffffffffffffffffffffffffffffff048311821515161561484b5761484b614613565b500290565b7f4e487b7100000000000000000000000000000000000000000000000000000000600052601260045260246000fd5b60008261488e5761488e614850565b500490565b600082198211156148a6576148a6614613565b500190565b6000602082840312156148bd57600080fd5b81518015158114610dfe57600080fd5b7f4e487b7100000000000000000000000000000000000000000000000000000000600052602160045260246000fd5b7f416363657373436f6e74726f6c3a206163636f756e742000000000000000000081526000835161493481601785016020880161428a565b7f206973206d697373696e6720726f6c6520000000000000000000000000000000601791840191820152835161497181602884016020880161428a565b01602801949350505050565b60008083357fffffffffffffffffffffffffffffffffffffffffffffffffffffffffffffffe18436030181126149b257600080fd5b83018035915067ffffffffffffffff8211156149cd57600080fd5b602001915036819003821315612a5a57600080fd5b6000602082840312156149f457600080fd5b5051919050565b6000806040808486031215614a0f57600080fd5b833560028110614a1e57600080fd5b925060208481013567ffffffffffffffff80821115614a3c57600080fd5b818701915087601f830112614a5057600080fd5b8135614a5e6140ec826143b1565b81815260059190911b8301840190848101908a831115614a7d57600080fd5b8585015b83811015614b1757803585811115614a995760008081fd5b8601808d037fffffffffffffffffffffffffffffffffffffffffffffffffffffffffffffffe001891315614acd5760008081fd5b614ad561400f565b88820135614ae281614183565b8152818a013587811115614af65760008081fd5b614b048f8b838601016140cd565b828b015250845250918601918601614a81565b50809750505050505050509250929050565b60008085851115614b3957600080fd5b83861115614b4657600080fd5b5050820193919092039150565b7fffffffff000000000000000000000000000000000000000000000000000000008135818116916004851015614b935780818660040360031b1b83161692505b505092915050565b600082614baa57614baa614850565b500690565b82815260406020820152600061362260408301846142b6565b60008251614bda81846020870161428a565b9190910192915050565b600060208284031215614bf657600080fd5b8151610dfe81613f95565b600081614c1057614c10614613565b507fffffffffffffffffffffffffffffffffffffffffffffffffffffffffffffffff0190565b60008060008060808587031215614c4c57600080fd5b843593506020850135614c5e81614183565b92506040850135614c6e81614183565b9150606085013567ffffffffffffffff811115614c8a57600080fd5b614c96878288016140cd565b91505092959194509250565b6000815160208301517fffffffff0000000000000000000000000000000000000000000000000000000080821693506004831015614cea5780818460040360031b1b83161693505b505050919050565b600082821015614d0457614d04614613565b500390565b60008060408385031215614d1c57600080fd5b8251614d2781614183565b6020939093015192949293505050565b805169ffffffffffffffffffff81168114614d5157600080fd5b919050565b600080600080600060a08688031215614d6e57600080fd5b614d7786614d37565b9450602086015193506040860151925060608601519150614d9a60808701614d37565b90509295509295909350565b600060ff821660ff841680821015614dc057614dc0614613565b90039392505050565b7f4e487b7100000000000000000000000000000000000000000000000000000000600052603160045260246000fd5b600080600060608486031215614e0d57600080fd5b8335614e1881614183565b925060208401359150604084013567ffffffffffffffff811115614e3b57600080fd5b614e47868287016140cd565b915050925092509256fe65786563757465557365724f7028616464726573732c75696e743235362c627974657329416464726573733a206c6f772d6c6576656c2064656c65676174652063616c6c206661696c6564a2646970667358221220baa325d04079983e83f517d2b30c984c0f3799f8305b55dd3f0d061ab34dffde64736f6c63430008090033",
  "linkReferences": {},
  "deployedLinkReferences": {}
}